:020000040800F2
:1000000088090020B5010008D53100085B2E0008E2
:1000100000000000000000000000000000000000E0
:10002000000000000000000000000000FD36000895
:100030000000000000000000AD3200087537000825
:10004000C701000800000000C7010008C701000840
:10005000C7010008C7010008C70100087D0E00089D
:1000600000000000CD0D0008C7010008C70100080E
:10007000C7010008C7010008C70100080000000010
:10008000C70100080000000000000000C7010008D0
:1000900000000000C7010008C7010008C7010008F0
:1000A000C7010008C7010008C7010008C701000810
:1000B000AD46000800000000000000000000000045
:1000C00000F002F800F04BF80CA030C808382418F3
:1000D0002D18A246671EAB4654465D46AC4201D180
:1000E00000F03DF87E460F3E0FCCB6460126334267
:1000F00000D0FB1AA246AB4633431847084F000016
:10010000284F0000103A02D378C878C1FAD85207B5
:1001100001D330C830C101D504680C6070470000BD
:100120000023002400250026103A01D378C1FBD813
:10013000520700D330C100D50B60704710B5642959
:1001400002D100F0CFF810BD732902D100F0DEFB20
:1001500010BD002010BD1FB51FBD10B510BD00F0B3
:10016000EDFB1146FFF7F7FF04F0BCFC00F005FCC7
:1001700003B4FFF7F2FF03BC00F00CFC70B50546BA
:100180000C46164602E00FCC0FC5103E102EFAD2D8
:10019000082E02D303CC03C5083E042E07D301CC9E
:1001A00001C5361F03E021782970641C6D1C761E82
:1001B000F9D270BD0748804707480047FEE7FEE7D1
:1001C000FEE7FEE7FEE7FEE704480549054A064B61
:1001D00070470000FB370008C100000888030020BA
:1001E0008809002088050020880500200FB41CB570
:1001F0000C0007AA009001D00019401E084B7B4458
:1002000069460190069800F04EFB002C03D0694629
:10021000002000F05BFB1CBC08BC04B018470000C9
:10022000D5060000F8B50E460446002020622046A0
:10023000E1688847002829D0252802D06268A16893
:1002400020E0E16820460027884705001ED02846A8
:100250004138192802D80127FF02203532462046AE
:1002600027602946FFF76AFF002808D0012804D03C
:10027000F61DF608F6000836D9E7361DD7E762689E
:100280002846A1689047206A401CCFE7206AF8BD45
:1002900070B50C460546012A05D02878800600D5A1
:1002A000EA69002302E0012305E05B1C934202D2CD
:1002B000E05C0028F9D1A869E618C01AA861286A8C
:1002C000C01828622846C046C04604E06A68207804
:1002D000A968641C9047B442F8D32846C046C0467B
:1002E00070BD0000F7B5002575291068009914A6A7
:1002F00011D0C046C046002802DA404211A608E0EC
:10030000009909688A0701D50FA602E0490704D5BC
:100310000EA6012501E0C046C046009F00242437F8
:1003200004E000F0F7FA30313955641C0028F8D1A8
:100330002B4632462146009800F058FAFEBD0000D8
:10034000000000002D0000002B0000002000000035
:1003500030B5441C03E00178401C00290DD0810712
:10036000F9D10B4BDD0104C8D11A91432940FAD0D1
:10037000001B0A0603D0C01E30BD001B30BD0A049E
:1003800001D0801E30BD0902FCD0401E30BD0000EF
:1003900001010101F8B5042A2CD3830712D00B7890
:1003A000491C0370401C521E83070BD00B78491C5C
:1003B0000370401C521E830704D00B78491C037045
:1003C000401C521E8B079B0F05D0C91ADF0020234B
:1003D000DE1B08C90AE0FFF7D1FEF8BD1D4608C9BB
:1003E000FD401C46B4402C4310C0121F042AF5D215
:1003F000F308C91A521EF0D40B78491C0370401C34
:10040000521EEAD40B78491C0370401C012AE4D424
:1004100009780170F8BD01E004C0091F0429FBD26E
:100420008B0701D50280801CC90700D0027070477D
:1004300000290BD0C30702D00270401C491E0229BC
:1004400004D3830702D50280801C891EE3E70022C3
:10045000EEE70022DFE7002203098B422CD3030AD8
:100460008B4211D300239C464EE003460B433CD401
:10047000002243088B4231D303098B421CD3030A69
:100480008B4201D394463FE0C3098B4201D3CB0199
:10049000C01A524183098B4201D38B01C01A5241C9
:1004A00043098B4201D34B01C01A524103098B42CD
:1004B00001D30B01C01A5241C3088B4201D3CB00B8
:1004C000C01A524183088B4201D38B00C01A52419B
:1004D00043088B4201D34B00C01A5241411A00D24B
:1004E00001465241104670475DE0CA0F00D04942B4
:1004F000031000D34042534000229C4603098B4224
:100500002DD3030A8B4212D3FC22890112BA030AAB
:100510008B420CD3890192118B4208D3890192112D
:100520008B4204D389013AD0921100E08909C309B2
:100530008B4201D3CB01C01A524183098B4201D3B4
:100540008B01C01A524143098B4201D34B01C01A9F
:10055000524103098B4201D30B01C01A5241C30817
:100560008B4201D3CB00C01A524183088B4201D386
:100570008B00C01A5241D9D243088B4201D34B00A1
:10058000C01A5241411A00D20146634652415B10E3
:10059000104601D34042002B00D5494270476346C4
:1005A0005B1000D3404201B50020C046C04602BDEA
:1005B0007047704770470000F0B5FF252D04C6094D
:1005C000C209FF2704462E400137CB093E4348406D
:1005D0002A402B400746002A6BD0002B69D0AA4244
:1005E00067D0AB4265D0002800DA32460125ED0520
:1005F00029432C4309022002090AD21A4B0C7F24FA
:10060000E31A434C000A7C44E35C7D242404121961
:1006100014145B00A218884201D3521C00E0400071
:1006200049420C465C4324115C43DB016415E3182A
:10063000040A5C43C502200D0C4644436419250A94
:100640005D432303EC0C0D46654300030019EB18D2
:100650004C42A34201D35B18401CD4052018002B48
:1006600007D05B00C91804D3401C002901D1400801
:1006700040003F2189048A4209D3002A08DC110680
:10068000090F04D0032149074018C00FC007F0BD6F
:1006900001224100120689187F2252069142F6D2A9
:1006A00005214907C84201D59010F0BDFF20C005C3
:1006B000F0BD002F00DA32461648AA4207D2AB42FC
:1006C00005D21902090E17D0F80FC007F0BDFF259B
:1006D00063002D06AB42F9D84900A942F6D8AB42D7
:1006E00001D1A942F2D0A94201D1002101E061006B
:1006F0004908D0050843F0BD1102090EFBD0FF20C8
:100700000243D005F0BD0A460146104654E70000FA
:10071000BA4900000000C07F0102C21504D00123C5
:10072000DB071943002A0ADB9E239A1A02D40846E3
:10073000D0407047FF2241001206914201D90020AB
:100740007047C017C04370471F22030C02D10F220D
:1007500000041CD0030E01D10002083A030F01D19E
:100760000001121F830F01D18000921E002801DBBF
:100770004000521ED2055118021251181922904001
:1007800004D3491C002801D1490849000846704794
:10079000C10FC90700D04042012292071143D3E79D
:1007A00001218907D0E7000010B5FF22C30D1340D7
:1007B00009D05A4007D0914205DA5C42A14202DDDD
:1007C000C905081810BDC40FE407002B06D0002A85
:1007D00006D0002902DBFF20C0050443204610BDDF
:1007E0004102FCD0004810BD0000C07FFFB50446A8
:1007F0000D4681B0243000902168880604D510226F
:10080000E0699143216000E00120A84201DD471B1F
:1008100000E000270498A1697A191018081AA0614D
:100820002078C00602D42046C046C046002608E014
:1008300003986268A168805D9047206A401C761C1E
:10084000206204988642F3DB2078C0060AD5204651
:10085000C046C04606E06268A16830209047206A22
:10086000401C206238467F1E0028F4DC07E0009818
:100870006268A168405D9047206A401C206228465B
:100880006D1E0028F3DC2046C046C04620780006D6
:1008900002D5022005B0F0BD0120FBE701694A1C2A
:1008A00002610878704700B58FB002910021059170
:1008B0000549019379440391114604906846FFF776
:1008C000B1FC0FB000BD0000E5FFFFFF0A6810702B
:1008D000521C0A6070470CC908399A4202D2531C54
:1008E0000B601070704710B54369002B02D0C046F2
:1008F000C04601E0FFF7CCFC012010BD1278014694
:1009000024310A7000224A700122ECE711680022AB
:10091000D243E8E701468008081A02091018020AC3
:100920001018020C1018C008820012185200891A00
:1009300001E0401C0A390A29FBD27047754600F0D5
:1009400025F8AE46050069465346C008C0008546F6
:1009500018B020B5FFF738FC60BC00274908B64640
:100960000026C0C5C0C5C0C5C0C5C0C5C0C5C0C5BE
:10097000C0C5403D49008D46704710B50446C0468D
:10098000C0462046FFF7F4FB10BD0000004870474A
:100990002803002001491820ABBEFEE72600020014
:1009A000704710B5846AA16D502211420DD1A06D1F
:1009B000012149020843A065206802F05BFA002883
:1009C0001BD0A07E002807D017E0A16DC90624D552
:1009D000204600F09FFC10BD2068016809070CD577
:1009E00002F044FA0146012000290AD0A16D20221C
:1009F0001143A165E16D0143E165204600F088FCEB
:100A000010BD21684A680C239A434A60A16DFF22F9
:100A1000013291430143A165EFE7216D496B88479E
:100A200010BD10B5806A816D402211438165C16D92
:100A300004221143C16500F06DFC10BD10B5806A41
:100A400000F067FC10BD0000F8B50446006881683E
:100A50008907CD0F02F002FA00282AD0002D28D1F4
:100A6000206881680522114010250126012914D132
:100A70008168114A1140891C816021680320086047
:100A800001F00EF9074610E001F00AF9C01B022838
:100A90000BD920688068C00707D0A06D2843A065E7
:100AA000E06D3043E0650120F8BD20688068C00734
:100AB000EAD10020F8BD0000E8FFFF7FF8B504464A
:100AC00000200090206802F0C9F9002845D1206874
:100AD0008168234A10261140002930D18168D5430E
:100AE0002940491C81601F4800680721890508408A
:100AF00000020AD51D481C490068FFF7ACFC401CE9
:100B000000E0401E00900028FBD1607E012824D028
:100B100001F0C6F807461BE002F0A0F9002804D156
:100B2000206881682940491C816001F0B9F8C01B28
:100B300002280DD920680068C043C00708D0A06D06
:100B40003043A065E06D01210843E0650846F8BD2B
:100B500020680168C943C907DED10020F8BD000044
:100B60001700008008270140400D03007C00002092
:100B7000F8B51648408900252C46FFF711FE1449A8
:100B800004F006F900901348A100475A081840885D
:100B9000FFF706FE01460098FFF70EFD06463846B1
:100BA000FFF7FEFD314604F0F3F80B49FFF704FDB3
:100BB000294604F0A7F8641CE4B20546102CE2D3E1
:100BC0000321C943FFF7F0FDF8BD0000A075FF1F2A
:100BD000000040409000002000F07F4570B50020EC
:100BE000144D154E28706870A87004466000315A84
:100BF000204602F085FD641CE4B2042CF6D3307C60
:100C000000280FD100210D4801F0FCFD04210B4804
:100C100001F0F8FD0821094801F0F4FD0C21074816
:100C200001F0F0FD69784800325A287800F05EF84B
:100C300070BD00002800002008000020A001002056
:100C400010B5064803F06AFD0448103003F066FD55
:100C50000248203003F062FD10BD00002C0000208F
:100C6000FFB50D461F4981B08D4200D90D461E4E7D
:100C7000042802D23018447800E076246421284603
:100C8000FFF7E9FB0A21FFF7E6FB775C0A2128461C
:100C9000FFF7E1FB00910A21FFF7DDFB755C00998E
:100CA0008020765C0399002900D00743049900292D
:100CB00000D0054329212046C901084303F0C8FD9F
:100CC00015200002381803F0C3FD0B20400228183D
:100CD00003F0BEFD17200002301803F0B9FD05B087
:100CE000F0BD0000E7030000104F0008F8B5234CEA
:100CF0000D461646217C030003F0E0FC06040404C4
:100D00000412380D022907D00023012906D0002241
:100D10003146FFF7A5FFF8BD0123F6E70122F7E70B
:100D20001527172616483F02164D3602002910D007
:100D3000012912D003F08CFD384603F089FD2D20E7
:100D4000C00103F085FD207C285C801903F080FD44
:100D5000F8BD03F07DFD384603E003F079FD2B205C
:100D6000C00103F075FD0B204002EAE7680000199E
:100D7000018901231A462846CBE70000080000201D
:100D8000F6140000104F000810B502F0A1FC02F0AC
:100D900061FC02F073FC0B4803F05AFD0520800251
:100DA00003F056FD1520000203F052FD0B20400217
:100DB00003F04EFD1720000203F04AFD024803F045
:100DC00047FD10BD210400000F48000010B5024887
:100DD00000F0CEFC10BD00003401002010B5044628
:100DE000006C094980088000401860642078142154
:100DF0000838FFF730FB04498031A164C106C90EF1
:100E000001208840E06410BD000802400179084BD1
:100E10008906890E8A00D2180265054A4432491EA5
:100E200042658A07920F0121914081657047000059
:100E3000FC080240F0B5846CC56C6560046D002C44
:100E400002D0446D856D65600B4C6568066C1C278F
:100E50003E400127B7403D43656004686360836896
:100E6000102B036803D099600068C260F0BD9A60DF
:100E70000068C160F0BD00000000024010B5102005
:100E800000F02CFE202000F029FE402000F026FE7D
:100E9000802000F023FE10BD72B6FEE703494A69C8
:100EA00001231B04184302434A617047002002409B
:100EB000044A5069044BC9001840014303480143E8
:100EC000516170470020024007E0FFFF020001006F
:100ED00030B505494C6901252C434C610260BFF3D4
:100EE0006F8F436030BD00000020024030B50B4CD6
:100EF000002362690125AD042A436261EFF3108289
:100F000072B620C95B1C20C0DBB2402BF9D320692C
:100F1000C003FCD482F3108830BD000000200240E2
:100F2000F8B5044600F0BCFE012706463F04124D0A
:100F300006E0601C04D000F0B3FE801BA04213D278
:100F400028693842F5D128690C4908400C492961C3
:100F50000CD00C4948600120F8BD601C06D000F0A0
:100F60009FFE801BA04201D30320F8BD28694003E7
:100F7000F3D40020F8BD000000200240FA830000F6
:100F8000FB8300000C030020F0B589B00027054664
:100F9000044640350297287D3E4601280ED00120A8
:100FA00028752046FFF750FD0590206801F05AFF94
:100FB0000028A06D05D0102108438AE0022009B066
:100FC000F0BDFF210131884302210843A06520685C
:100FD000C168424A11400491C168D2431140C160C6
:100FE00000212068826817239A43DB071A43826036
:100FF0003B4A20680BE0029B5B1C0293934206D3A2
:10100000A06D0221884310210843A06550E0836849
:10101000DB0FF0D18030406B491C4006400E861932
:10102000761C0829DDD348088019FFF714FA014619
:10103000206882682B4B1A40521C8260206802692B
:10104000920F920713D1284A12680F26B604324035
:101050000726B604B2420AD3960C0122F61EB2400D
:101060000192520800E0521E0192002AFBD180300A
:10107000426BD209D2010A43426320688168194059
:10108000891C816000F00CFE064614E000F008FEAA
:10109000801B02280FD9206801F0E4FE00280AD046
:1010A000A06D10210843A065E06D01210843E065B3
:1010B0002F75012083E7206801F0D4FE0028E5D1D8
:1010C0002068C168049A1143C160A06D8008800047
:1010D000401CA0652F75059871E700000380000093
:1010E00000F20200E8FFFF7F08270140F8B5002763
:1010F0000646044640360097307D0D4601280FD045
:1011000001203075206801F0B1FE00280AD0A06DE2
:1011100020210843A0650127002030753846F8BD1E
:101120000220F8BD686802287ED001222169D2071A
:10113000914202D0121D914206D120682968826A2C
:101140004903490B0A436EE0C206D20E0F20216EFE
:10115000904081432868430302D0C3074BD102E08B
:101160004000C00E48E0830701D5012044E043075A
:1011700001D5022040E0030701D503203CE0C3066F
:1011800001D5042038E0830601D5052034E043066C
:1011900001D5062030E0030601D507202CE0C30569
:1011A00001D5082028E0830501D5092024E0430566
:1011B00001D50A2020E0030501D50B201CE0C30463
:1011C00001D50C2018E0830401D50D2014E0430460
:1011D00001D50E2010E0030401D50F200CE0C3035D
:1011E00001D5102008E0830301D5112004E040035D
:1011F00001D5122000E0002090400143216669687B
:10120000E2698808401C904210D820682B68826AE6
:101210009C46C906C90E0F238B409A4363469B0028
:101220001B0F8B401A4300E03BE082622168AB68F1
:1012300028684A690002824318404001400902437D
:101240004A612868002800DB66E72B4A11680723FB
:101250009B051940294B984214D10B0212D4C002AD
:101260000143104601F00EFE264825490068FFF7AD
:10127000F2F80C21401C484300E0401E009000287A
:10128000FBD149E7204B984203D1CB0101D4800226
:1012900005E01E4B9842D7D14802D5D458020143ED
:1012A00025E001212069C907884202D0091D884232
:1012B00006D120682968826A4903490B8A43826201
:1012C00028680028C0DA0C4A116807239B051940DA
:1012D0000A4B984201D1C00208E00B4B984201D161
:1012E000800203E0094B9842AED140028143104690
:1012F00001F0C8FD10E7000008270140001000B011
:10130000400D03007C000020004000B8002000B425
:101310007047704770470000FEB5002704460197EC
:101320003E4602970097002805D02546A06D20353F
:10133000002802D007E00120FEBD204600F0FCF8A6
:10134000E6655420065520688168C900C90F12D18E
:101350008168724A1140012212071143816071486D
:101360006F490068FFF777F84000801C00E0401EDE
:1013700000900028FBD120688168C900C90F08D1FE
:10138000A16D10221143A165E16D01221143E165B8
:10139000174601F06BFDA16DC90601D4002804D0E9
:1013A000A06D10210843A065B4E0A06DFF210131BC
:1013B000884302210843A065206801F04FFD002802
:1013C0006DD1217EA06889030843617ECA03A17E96
:1013D0004B031A431043226B002A01D0012212034F
:1013E0001043E26810432269002A02DA52005208D0
:1013F00001E00122520510432A7B52001043019A5A
:1014000010432A78012A09D1002922D0A16D202277
:101410001143A165E16D01221143E165616A002973
:1014200006D0FF23C1331940A26A01431046084386
:101430002168CA683C4B1A400243CA606168029A3C
:10144000890F8907E06C0A4310432A7F012A04D0E0
:101450000CE0012109040843E0E7636C226C491C9D
:101460001A43A36C0B4311461943084321680A69C8
:101470002E4B1A4002430A610321606889078842A3
:101480000DD0590788420AD04900884207D0284A1F
:1014900091680F239B0499431840014391600021F8
:1014A000626B206801F0F5FC2249A26B206801F014
:1014B000F0FC0F202169C04300291CD001225205F5
:1014C00091420AD121688A6A227F9200121FD206B5
:1014D000D20E9040226E1043886220684069616B92
:1014E0004007400F88420BD1E665A06D8008800060
:1014F000401CA0650FE021688A6A02438A62ECE71B
:10150000A06D0221884310210843A065E06D0121F0
:101510000843E06501273846FEBD0000E8FFFF7F75
:10152000400D03007C0000200102DEFF02FCFF1FD3
:101530000027014004FFFF0770B586B0054614215F
:101540006846FEF786FF1D492868884234D11C484A
:101550000268012109050A430260006808400590FD
:1015600017484038426B01210A434263406B0091A7
:101570000840059003200190002605206946029648
:10158000000700F0D3FA104C0E482060A66005203A
:10159000E660606080202061400060618000A061A2
:1015A00020202662E061204600F03EF9002801D0AC
:1015B000FFF772FC2C65A56206B070BD00240140E7
:1015C000401002400800024034010020F7B50446F4
:1015D000006801F04BFC002845D125464035287DA8
:1015E000012840D001272F752068C1681F4EC90708
:1015F0000CD101F033FC002804D020688168314010
:10160000891C81602068C1683943C1602046FFF7AA
:1016100055FA002826D1A06D15490840FF21013157
:101620000843A0650020E065226D1249D162226D59
:1016300011491163226D1149516322681C21116007
:101640002875206841681022114341602168206D8F
:101650004031029B019A00F039F921688A683240D2
:10166000121D8A60FEBD0220FEBD0000E8FFFF7F64
:10167000FEF1FFFFA30900083D0A0008230A000845
:10168000F0B5002808D0014620314A79022A05D059
:101690000422C263002008710120F0BD02681368B3
:1016A0005B085B001360026813680E24A343136099
:1016B000426C1468FF2301339C4314600C4A556844
:1016C000066C1C24264001242746B7403D43556044
:1016D000826CC56C5560026D002A05D015689D436B
:1016E0001560826D406D42604C7100200871F0BD44
:1016F00000000240F8B50024014620314A79022A50
:1017000003D00421C16301242DE0026813685B0843
:101710005B001360026813680E25AB431360426CD4
:101720001368FF250135AB431360104A5568066CFA
:101730001C231E4001231F46B7403D435560826C69
:10174000C56C5560026D002A06D016681D02AE43B6
:101750001660426D856D55604B7100220A71816B78
:10176000002900D088472046F8BD00000000024054
:10177000F0B42C490C6802681368056C1C273D40C6
:101780000426AE40264211D05E070FD513689B0693
:1017900003D4146804239C4314604B68046C042233
:1017A0003C40A24013434B60016B1CE00227AF405A
:1017B000064627402036002F19D09F0717D51368FB
:1017C0009B0605D413680A24A34313600122727197
:1017D0004B68046C1C2214400222A24013434B604D
:1017E00000213171C16A00291AD0F0BC08470827CE
:1017F000AF40274214D01B0712D513680E24A34311
:1018000013604B68046C1C22144001221546A5404D
:101810002B434B60C263727100213171416BE2E76F
:10182000F0BC70470000024070B504003FD025486E
:10183000256814212818FEF70EFE8000206402207F
:1018400026462036707128681F4908402860E168E4
:10185000A06862690843216911430843A1690843EC
:10186000E1690843216A084321680A681043086057
:101870002046FFF7B3FA0121A068890300258842BA
:1018800000D165602079616C8006800E0860A06CD4
:10189000E16C41606068401E03280AD82046FFF7CB
:1018A000B5FA206D0560606DA16D416004E0012016
:1018B00070BD25656565A565E563012070713571AD
:1018C000002070BDF8FFFDBF0F80FFFFF8B5044694
:1018D0008C4620300179002501290BD001260671A4
:1018E00041790027012907D08021E1630771012593
:1018F0002846F8BD0220F8BD02214171E763206847
:10190000016849084900016061462046FFF792FAE4
:10191000206B00282068016801D00E2205E0042217
:1019200091430160206801680A2211430160606CE4
:101930000168CA03074902D502680A430260206DA4
:10194000002802D002680A4302602068016831431F
:101950000160CDE70001000070B5044600F0A0F979
:101960000546601C02D004480078241800F098F95D
:10197000401BA042FAD370BD70000020F8B51F4E86
:10198000044630780F4601280AD00120307000202C
:1019900070607D20C000FFF7C3FA002802D029E064
:1019A0000220F8BD042161602268042A03D0491F87
:1019B0003960A56814E00846FFF770FA7D20C00082
:1019C000FFF7AEFA16E029466068FFF771FA7D204E
:1019D000C000FFF7A5FA002801D03D6005E06D1CAE
:1019E000E268A1688918A942EDD805494A6902232D
:1019F0009A434A6100213170F8BD00000C030020B9
:101A00000020024010B57D200124C000FFF788FAB5
:101A1000054841698204114341614069002800DAA8
:101A20000024204610BD000000200240F0B51FB485
:101A3000144C06462078154601280AD00120207053
:101A400000277D20C0006760FFF76AFA002803D0F6
:101A500010E0022005B0F0BD012E0DD029460198FE
:101A6000FFF744FA7D20C000FFF75AFA06494A6999
:101A7000B2434A612770EDE72A46039B0198FFF7BE
:101A800027FAEFE70C03002000200240064900205F
:101A90004A69002A07DA054A8A60054A8A60496964
:101AA000002900DA01207047002002402301674529
:101AB000AB89EFCD10B5102809D0202809D04028D7
:101AC00009D0802802D1032002F03CF810BD00208C
:101AD000FAE70120F8E70220F6E7000070B5084DAC
:101AE0000446E868204203D0EC60204600F00AF883
:101AF0002869204203D02C612046FFF7DBFF70BD30
:101B00000018024010B5102809D0202809D040281C
:101B100009D0802802D1032002F0A4F810BD0020D3
:101B2000FAE70120F8E70220F6E70000F0B500230D
:101B300003249AE02A4601259D402A407ED00E7952
:101B4000B607B60F012E01D0022E16D186682746A1
:101B5000B4465E00B646B7406646BE43B446CF685C
:101B60007646B7406646374387604668AE430D7990
:101B7000ED06ED0F9D40354345600D79ED43AD0712
:101B800008D0C5685F002646BE40B5438E68BE409B
:101B90002E43C6600D79AD07AD0F022D0ED1DD08C5
:101BA000AD002D18AC462D6A5E07F60E0F27B74024
:101BB000BD430F69B7402F4365462F6205685F003C
:101BC0002646BE40B5430E79B607B60FBE402E433B
:101BD00006604D68AD03AD0F46D09E08264DB60099
:101BE0007519AC462D6E9E07F60E0F27B740BD4304
:101BF00005273F07B84201D100270FE01F4FB84229
:101C000001D101270AE01E4FB84201D1022705E0A9
:101C10001C4FB84201D1032700E00527B7402F43EE
:101C2000154D664637662D684E689543F60200D519
:101C30001543114F3D607D68954300E014E04E6808
:101C4000B60200D515437D600B4D80356E684F6838
:101C50009643BF0300D516436E602E684F689643C7
:101C6000FF0300D516432E605B1C0A681546DA4058
:101C700000D05FE7F0BD00000018024000040050F3
:101C800000080050000C00500069084000D00120FE
:101C90007047002A01D0816170478162704700005F
:101CA00001488068704700007000002070B5040093
:101CB0000FD021681548086021681548086003CCDA
:101CC00041602068083C21688860FFF7E9FF05460D
:101CD0000CE0012070BDFFF7E3FF401B312805D960
:101CE0002068C068400701D0032070BD2068C0682C
:101CF0004007F0D120680269E1688A4201D00161A1
:101D000001E004490160002070BD0000CCCC00005F
:101D100055550000AAAA0000006802490160002091
:101D200070470000AAAA000002488168027889185A
:101D3000816070477000002010B5084800240168D9
:101D4000821511430160032000F00AF8002801D039
:101D5000012401E000F028F8204610BD00200240D8
:101D600070B50F4E002431780546002915D07D202E
:101D7000C000FEF770FB01460A480068FEF76BFBE7
:101D800000F050FB002808D1042D06D2002229467D
:101D9000401E00F02BF8756000E00124204670BD65
:101DA000700000207C00002008B50948016801226D
:101DB0001143016000681040009005484038C26B34
:101DC00001040A43C263C06B0840009008BD0000D4
:101DD00040100240002805DBC106C90E01208840E2
:101DE000014908607047000000E100E010B502F012
:101DF00073FC10BD10B50F4C2168032252029143B1
:101E000001432160C11FFF39FA390ED10A4806216A
:101E1000006848430949FEF71EFB401C02E0002809
:101E200005D0401E61694905F9D4002010BD03208A
:101E300010BD0000007000407C00002040420F00F8
:101E4000F8B50F46060043D04D4D28684007400FB7
:101E5000B84213D22868C008C00038432860FFF792
:101E60001FFF044605E0FFF71BFF011B45488142A9
:101E700061D828684007400FB842F4D13068424C1E
:101E800081070DD5400704D5A06807210903084341
:101E9000A060A0680F2109028843B1680843A060D0
:101EA0003078C00732D0706801280AD002280BD0E1
:101EB00000280FD03449403103280ED0C969890762
:101EC00004E02168890301E021688901002906DB1B
:101ED0000120F8BD21684905F8E7096AEFE7A16824
:101EE000C908C9000143A160FFF7DAFE009006E0CF
:101EF000FFF7D6FE0099411A224881421BD8A068FC
:101F0000382108407168C9008842F1D1286840072B
:101F1000400FB84217D91A480168C908C9003943A7
:101F20000160FFF7BDFE054607E0FFF7B9FE411B64
:101F30001448814201D90320F8BD114800684007C8
:101F4000400FB842F1D13078400706D5A06807218C
:101F500009038843F1680843A06000F031F8A168E4
:101F60003C2289091140094A515CC906C90EC84082
:101F70000749086007480068FFF7F2FEF8BD000057
:101F8000002002408813000000100240644F000847
:101F90007C0000207400002006480749006889681A
:101FA000064A4904490F8900515CC906C90EC84058
:101FB000704700007C00002000100240A44F000881
:101FC00010B5204CA068204A8006400F16D0A068AB
:101FD0008006410F501001290FD0A1688906490FD2
:101FE000022912D0A0688006400F042823D0A068E0
:101FF0008006400F032821D0002010BD2068012159
:102000008004400F8140104612E0E1688B07E168D0
:102010009B0F4906490F491C032B00D01046FEF7C1
:102020001AFAE1684904490E4843E168490F491C1E
:10203000FEF711FA10BD0120C00310BD7D20000283
:1020400010BD0000001002400024F400F8B50400A8
:102050007ED020783827C007E94D002846D0A868F0
:10206000E96838408907890F102802D008280BD06A
:1020700001E0032908D001206268000482420AD1ED
:1020800029680143296015E0286880032ED560681F
:102090000028DDD02AE0052301211B0489049A428F
:1020A0002A6802D10A432A60EAE782432A60286844
:1020B00088432860606800280CD0FFF7F1FD0646D1
:1020C00004E0FFF7EDFD801B642873D828688003C7
:1020D000F7D50BE0FFF7E4FD064604E0FFF7E0FD6F
:1020E000801B6428F1D828688003F7D42078800703
:1020F00069D5A868E96838408A070721920FC902A4
:10210000102802D0002813D001E0022A10D0E06885
:10211000002846D028688843216908432860286839
:10212000FF21013108432860FFF7BAFD06462CE085
:102130002A68520502D5E268002A89D06A687F239E
:102140001B029A4363691B021A436A60002800E07D
:102150008DE00ED1286888432169084328602868EB
:1021600001218004400F8140A648FEF774F9A6497A
:102170000860A6480068FFF7F3FD002877D122E049
:10218000FFF78EFD801B02289FD828684005F7D5F1
:1021900068687F2109028843616909020843686011
:1021A00011E02968FF20013081432960FFF778FDA5
:1021B000064605E098E0FFF773FD801B022884D8EF
:1021C00028684005F7D42078914E00072ED5A868DE
:1021D0008006400F03280AD0A0690028306A16D074
:1021E000012108433062FFF75BFD07460BE0306AD0
:1021F00080071BD5A06900289FD017E0FFF750FD8E
:10220000C01B022870D8306A8007F7D50EE040085E
:1022100040003062FFF744FD074604E0FFF740FD51
:10222000C01B022860D8306A8007F7D420784007A6
:102230006CD5A86800278006400F042818D0E86BEA
:10224000C00008D4E96B012000070143E963E96B92
:102250000140012700916F480168C90519D4016840
:10226000821511430160FFF71BFD00900DE083E034
:10227000F06980074AD5A06800287DD046E0FFF7C6
:102280000FFD0099401A02282ED862480068C00548
:10229000F5D5A168012910D004200529F16911D0D4
:1022A00049084900F161F1698143F161A0680028A2
:1022B00016D0FFF7F5FC00900EE0F069012108430D
:1022C000F061F3E70143F161F7E7FFF7E9FC0099FB
:1022D000411A5148814265D8F0698007F5D50EE072
:1022E000FFF7DEFC009007E05CE0FFF7D9FC009907
:1022F000411A4948814255D8F0698007F5D4002F2A
:1023000004D0E96B012000078143E963E0690028FC
:1023100073D0A9688906490F02294DD001263606D7
:102320000228286805D0B0432860FFF7B9FC0446AE
:102330003AE0B0432860FFF7B3FC074604E0FFF73C
:10234000AFFCC01B02282DD828688001F7D4616A31
:10235000206AA26A0843E16A120211430843216B12
:102360000843E9682D4A11400843E8602868304373
:102370002860E868012100E03DE009070843E860C3
:10238000FFF78EFC044604E0FFF78AFC001B0228DE
:1023900008D828688001F7D52FE0FFF781FC001BE3
:1023A000022801D90320F8BD28688001F5D4E86827
:1023B0001B490840E86020E00128F4D0E868226A60
:1023C0008107890F914216D17021626A01409142C2
:1023D00011D17F21A26A09020140120291420AD161
:1023E0001F214904E26A0140914204D1400F216B50
:1023F0004007884201D00120F8BD0020F8BD000050
:10240000001002400024F4007C0000207400002032
:102410004010024000700040881300008C80C11FF3
:10242000FCFFFEEF094910B5401E884201D901208A
:1024300010BD074C60610321081F02F04DF9002018
:10244000A06107202061002010BD0000FFFFFF00F9
:1024500000E000E030B5034620331A7F012A49D05E
:1024600001221A770325CA682D02AA438D680068E5
:102470002A430125AD02AA434D6800242A430125C1
:10248000ED02AA430D682A4301252D03AA430D69D5
:102490002A4301256D03AA434D692A430125AD0353
:1024A000AA430D6B2A430F252D04AA430D8B2D043F
:1024B0002A4301252D07AA43CD692A430E4DA84280
:1024C00014D10F252D05AA430D8D2D052A43012575
:1024D0002D06AA430D6A2A4301256D06AA434D6ABB
:1024E000C96A2A4301256D07AA430A4342641C773F
:1024F000002030BD022030BD002C0140F0B5034665
:1025000020331A7F012A24D001221A7702225A7717
:1025100004686268A568104FBC4205D116460F22B8
:10252000120596434A6832437026B2430E6816433A
:1025300066600068B84202D0084A904204D1802206
:1025400089689543294381600120587700201877D6
:10255000F0BD0220F0BD0000002C0140000400404E
:1025600070B5040005D025462035687F002802D0CC
:1025700006E0012070BD00202877204600F016F804
:1025800002206877211D206801F038F901224034CB
:102590002272AA77EA7722706270A270E2702271CA
:1025A0006271A271E2716A77002070BD08B500689F
:1025B0000649884208D106480268012189040A4375
:1025C000026000680840009008BD0000004801401B
:1025D00040100240014620314A7F012A01D00120EB
:1025E000704702224A770068094A0121904202D0CE
:1025F000084A904207D18268074B1A40062A05D044
:10260000DB1F9A4202D002680A4302600020704732
:10261000002C0140000400400700010010B586B006
:10262000044614216846FDF714FF0E4920688842CD
:1026300015D10D48416B012211434163406B0221CA
:10264000104005900F20000200900020029003909F
:1026500001910491052069460007FFF767FA06B06B
:1026600010BD0000002C014000100240F8B50446E7
:102670000020264620360090307F0D4601280CD0E1
:102680000120082730770C2A48D008DC002A10D017
:10269000042A1ED0082A06D130E00220F8BD102AF4
:1026A00052D0142A60D0012000900020307700988A
:1026B000F8BD206801F0F2F8206881693943816132
:1026C00020688169042291438161206881692A69B7
:1026D00011E0206801F022F9206881690122D2020C
:1026E00011438161206881695210914381612068A2
:1026F00081692A69120211438161D6E7206801F0DD
:102700004DF92068C1693943C1612068C16904225B
:102710009143C1612068C1692A6912E0206801F013
:102720007DF92068C1690122D2021143C16120688C
:10273000C269012189028A43C2612068C1692A698C
:1027400012021143C161B0E7206801F09BF92068D3
:10275000416D394341652068426D04218A434265D9
:102760002068416D2A6912E0206801F0B9F92068FB
:10277000416D0122D202114341652068426D012161
:1027800089028A4342652068416D2A691202114319
:1027900041658AE770B5040005D025462035687F7D
:1027A000002802D006E0012070BD002028772046D6
:1027B00000F016F802206877211D206801F01EF84D
:1027C000012240342272AA77EA7722706270A270E6
:1027D000E27022716271A271E2716A77002070BDAD
:1027E00008B500680549884207D105480268C11448
:1027F0000A43026000680840009008BD002C0140B8
:102800004010024030B505460223203000290ED08A
:10281000042911D02C464034082912D00C2915D097
:10282000102918D0E278012A1AD0012030BD827F09
:10283000012AFAD1837714E0C27F012AF5D1C37748
:102840000FE02278012AF0D123700AE06278012A91
:10285000EBD1637005E0A278012AE6D1A37000E015
:10286000E3700122286801F00BF8114A28689042B1
:1028700005D01049884202D00F49884204D1416CEA
:102880000123DB031943416428680121904202D0EF
:102890000A4A904207D18268094B1A40062A05D09D
:1028A000DB1F9A4202D002680A430260002030BD5A
:1028B000002C014000440140004801400004004059
:1028C0000700010070B5044600258030C06820284C
:1028D00001D0022070BD00290BD0002A09D00123AD
:1028E000A0681B03984206D12069002803D1C807BD
:1028F00001D0012070BD0120E06600202067204645
:1029000001F0F6FDE06E012802D00125284670BDD9
:10291000206810210162EFF31080012282F31088F9
:10292000226813680B43136080F31088EEE7000001
:1029300010B50068094A90420FD1094C012060701F
:10294000C8B22070032803D300F0B2FC002020702E
:10295000402204490448FFF7B5FF10BD0044004081
:102960006000002038020020780200207047704785
:102970007047000010B5084A016891420AD18030C2
:102980000069000706D50820086240220349044870
:10299000FFF798FF10BD00000044004038020020FF
:1029A00078020020F8B503680446D96918689A6867
:1029B000B94D0E462E4025468035002E75D0B74EB7
:1029C000B74F1640074037436ED0CF0706D0C70534
:1029D00004D501271F622B693B432B618B0708D568
:1029E000D30706D0276802233B622B6904273B43A9
:1029F0002B614B0708D5D30706D0276804233B6219
:102A00002B6902273B432B610B0709D52023034089
:102A1000334305D02668082333622E691E432E6196
:102A20000B0509D5430107D501232668DB02336274
:102A30002B69202633432B612B69002B42D089065A
:102A40000AD520210840C9050A40104304D0616F0F
:102A5000002901D0204688472869216889684906ED
:102A600002D42821084232D0204601F0DDF9216845
:102A70008868400627D5EFF31080012282F3108882
:102A80008B68402293438B6080F31088286800286D
:102A900019D0844981632868FEF72CFE002811D0E4
:102AA0002868816B0DE000E017E08E0615D5012740
:102AB00020263F07064017403E430ED0616FBFE01F
:102AC00020468847F8BD2046FFF754FFF8BD204652
:102AD000FFF750FF00202861F8BDE66E012E7DD182
:102AE000CE067BD5C60679D510201862226890687C
:102AF000264640064036002857DA29680B68586891
:102B00000004000C45D0B78B874242D9F083086897
:102B10000068800636D4EFF31080012181F310881D
:102B20001168FF2301339943116080F31088EFF39C
:102B30001080012181F3108821688A6852085200B0
:102B40008A6080F31088EFF31080012181F31088F0
:102B500021688A6840239A438A6080F31088202085
:102B6000E8600020E066EFF31080012181F3108817
:102B700021680B68102293430B6080F3108828684B
:102B8000FEF77EFD02202067B08BF18B401A81B2E8
:102B900007E0B18B81429FD1186880069CD5022046
:102BA00020672046FFF7C4FEF8BDB08BF18B401ABA
:102BB00081B2F08B0028F7D00029F5D0EFF3108018
:102BC000012383F310881368FF262136B343136073
:102BD00080F31088EFF31080012200E01BE082F305
:102BE0001088226893682D4EF6433340936080F33B
:102BF00010882020E8600020E0666067EFF3108016
:102C0000012282F31088226813681025AB431360F9
:102C100080F31088C3E7CE0208D5560206D50120FE
:102C2000000518622046FFF7A3FEF8BD0E060BD57F
:102C300001278026FF0506403A40164304D0A16FC5
:102C4000002900D03CE7F8BD4A0614D5420612D54B
:102C50002046EFF31081012282F310881A68402485
:102C6000A2431A6081F310882021A96000218167A6
:102C700000F0F2F8F8BD0A0205D5420003D520465F
:102C8000FFF775FEF8BDC901FCD50028FADA204629
:102C9000FFF76CFEF8BD00000F08000001000010F7
:102CA000200100041D3E000870B5040005D0254633
:102CB0008035A868002802D006E0012070BD002001
:102CC0002871204600F026F82420A86020680168BA
:102CD000490849000160A06A002802D0204600F09F
:102CE000DBFF204601F050FB0128E7D02068416857
:102CF0000922D20291434160206881682A229143CF
:102D0000816020680168012211430160204601F0C2
:102D100029F870BD10B586B0044614216846FDF749
:102D200098FB15492068884224D11448C26B0121C0
:102D300049040A43C263C26B0A400592426B0121F7
:102D40000A434263406B0491084005900C200090B8
:102D500002200190002002900390052069460007A0
:102D6000FEF7E4FE002211461C20FFF73FF81C206E
:102D7000FFF730F806B010BD0044004000100240DC
:102D80007047FFB5064604468036B06883B00D46EE
:102D9000202802D0022007B0F0BD002D3BD00598BE
:102DA000002838D00120A1680003814204D12069A5
:102DB000002801D1E8072ED1002030612120B06029
:102DC000FEF76EFF0190274640370598B8820598B8
:102DD000F8820120A1680003814202D12069002805
:102DE00002D00295002522E0002002901FE0002280
:102DF0008021204601F012FC002825D102980028ED
:102E00000BD02168007888620298401C0290B1685B
:102E10002120884308D00120BDE728882168C0050B
:102E2000C00D8862AD1CF2E7F88A401EF882F88A6D
:102E3000019B002806980090D9D10022402120460D
:102E400001F0ECFB002803D02020B0600320A2E7B3
:102E50002020B06000209EE77047FEE78068C00732
:102E6000C00F70478068C007C00F70478068400778
:102E7000C00F7047C0680005800F01D00020704768
:102E800001207047026807239B059A430A430260AA
:102E9000704710B543690424214007248C40A343A4
:102EA0008A401343436110BDFEB500241E480094C0
:102EB00001941C490294016084604905C46041602A
:102EC0000426890A466101610476447601258576E7
:102ED000446202218462C161014620310D730522E2
:102EE0004263046382630C77C464FEF715FA00281A
:102EF00001D0FDF7D1FF019469460B48009502947B
:102F0000FEF7F4F8002801D0FDF7C6FF074800904F
:102F1000694601960448FEF7E9F8002801D0FDF75C
:102F2000BBFFFEBD00240140D0000020002000B403
:102F300008B50848816B012211438163806B104002
:102F40000022009011460920FEF750FF0920FEF7ED
:102F500041FF08BD00100240F0B587B0142168465B
:102F6000FDF777FA3148416B012529434163416BF5
:102F700029400591426B02210A434263426B0A4099
:102F80000592426B08210A434263406B284E084079
:102F900003210590012249033046FEF77AFE254FB2
:102FA00000220F213846FEF774FEF02000903120F9
:102FB0000004019000240520694602940007FEF7F2
:102FC000B5FD1D486A4631C269463046FEF7AEFD82
:102FD0006803009002946946019503943046FEF719
:102FE000A5FDA80300901120019002946946039466
:102FF0003046FEF79BFD0F20009002946946019534
:1030000003943846FEF792FD4020009001946946F3
:1030100002943046FEF78AFD002211460720FEF793
:10302000E5FE0720FEF7D6FE07B0F0BD0010024017
:1030300000040050000C0050381C000010B5084877
:1030400006490160002141600649C1608160FEF7C8
:103050002DFE002801D0FDF71FFF10BD00300040FD
:1030600090010020FF0F000010B50C480A490160D4
:103070000021416081600A4A0161C2604161802192
:103080008161FFF76DFA002801D0FDF705FF0348C5
:10309000FFF7A0FA10BD000000480140EC0100203D
:1030A000FFFF000010B598B00024149415941C2163
:1030B00068461694FDF7CDF9342107A8FDF7C9F944
:1030C0003249334812C004608460C46031490461ED
:1030D00041600838FFF75EFB002801D0FDF7DCFEF9
:1030E0001494159414A92A481694FFF707FA002897
:1030F00001D0FDF7D1FE6020059401940090029468
:10310000039404940022694606942148FFF7AEFA1E
:10311000002801D0FDF7C0FE6E2001900422694610
:103120001B48FFF7A3FA002801D0FDF7B5FE0822DF
:1031300069461748FFF79AFA002801D0FDF7ACFE60
:103140000C2269461248FFF791FA002801D0FDF7DA
:10315000A3FE0120079440030C90089409940B945B
:1031600000030A940D940E9410900F9411941294ED
:1031700007A913940648FFF76DF9002801D0FDF761
:103180008BFE0348FFF74AFA18B010BD002C01402F
:10319000A0010020E703000010B50D480B490160B5
:1031A000E1214902416000218160C16001618161CA
:1031B000C16101620C22416242618162FFF774FDCC
:1031C000002801D0FDF768FE10BD0000004400405B
:1031D00078020020FEE7000010B50949094A486955
:1031E000904204D118220848FCF7C8FF10BD1822ED
:1031F00006490548FCF7C2FF00F016F810BD0000B4
:1032000000F800082144454C080000201C4F00082D
:1032100003480121017003490968416070470000BB
:10322000000000205C000020F0B585B0FEF72EFC09
:103230000F4B6C460FCB0FC40020049004A96846C6
:10324000FEF79CFB00280FD10A4E0B4D03270024EC
:10325000E00031180CC941190120FEF7E7FB0028F6
:1032600002D1641CBC42F3D3FEF7CCFB05B0F0BD29
:10327000344F00080800002000F8000810B5084886
:10328000017800290AD0074909684268891A064A64
:10329000914203D300210170FFF7C6FF10BD00006B
:1032A000000000205C000020307500007047000026
:1032B000F0B5CA4891B00078002876D1C8480678A1
:1032C000002E72D0034618799A796424303860430E
:1032D000121858790A24604321242401001BD9784C
:1032E0009F7810180D903039C8B24200BD4C5B7801
:1032F00012191546403DAC460025401E532E0AD0FB
:10330000522E54D0532E09D0522E52D0532E08D0C4
:10331000522E51D02DE1B24E4C2B06D0B04E4D2B3B
:103320007DD0AF4E502B79D023E1562FF2D13746C6
:10333000CEB2032811D80D99AB4A89B2914222D856
:103340006246D187C0B200F0DBF93346A7A218214C
:1033500002A8FCF74BFF02A822E0002E13D1700058
:103360003018C019017982796423303959435118D2
:1033700040790A22504321221201801A081881B292
:103380009948814203D99BA000F0F0FF0CE0700047
:103390002152F0B200F0B4F9761C042EDFDB97A0C6
:1033A00000F0E4FFFFF734FF3D7011B0F0BD4C2B8F
:1033B00005D08B4E4D2B7DD0502B7CD0D9E0562F95
:1033C000A8D1CEB2032809D86046C18F0AA801F05F
:1033D00015FB0AA833468BA20090D8E0002E6BD1D3
:1033E0000BAE04228AA13046FCF7D4FF0027361D1D
:1033F0007800215A0AA801F001FB03220AA93046ED
:10340000FCF7C8FFF61C7F1C042FF1DB2320307073
:1034100075700BA800F0AAFFABE000E06EE0303F53
:10342000FBB2022B7CD823747BA2182102A8FCF7E4
:10343000DDFE02A800F09AFFFFF7EAFE207C0028DC
:103440000ED0012819D00021084600F075F900219E
:10345000012000F071F90021022000F06DF936E042
:103460000121002000F068F90121084600F064F90C
:103470000121022000F060F934E005242407102126
:103480002046FEF701FC002826D00021002000F095
:1034900053F920212046FEF7F7FB00281ED000211B
:1034A000012000F049F940212046FEF7EDFB0028FD
:1034B00016D002E018E05AE071E00021022000F08E
:1034C0003BF980212046FEF7DFFB00280AD00021CF
:1034D000032000F031F948E00121D7E70121DFE7BF
:1034E0000121EBE70121F3E7237C4DA2182102A87B
:1034F000FCF77CFE02A800F039FF36E0572F38D1E8
:10350000CBB203280DD80D98374980B288421FD816
:10351000D08045A2182102A8FCF768FE02A820E08E
:1035200016E0002B14D100204100411889190A79B6
:103530008B796427303A7A439A1849790A23594398
:1035400021231B01C91A5118274A89B2914201D976
:1035500028A0D0E742001219401C11810428E3DBA7
:1035600033A000F003FFFFF753FE35701DE7572F20
:1035700002D01B48057018E7CEB203280DD8D188B9
:1035800001A801F03BFA01A833462BA200901821B4
:1035900002A8FCF72BFE02A83CE7002E01D029A0D0
:1035A00038E708AE042229A13046FCF7F3FE0027D5
:1035B000361D78000019018901A801F01FFA0322C5
:1035C00001A93046FCF7E6FEF61C7F1C042FF0DB59
:1035D00023203070757008A81CE700006C000020E4
:1035E0003802002008000020E7030000534C562555
:1035F00064230000455252534C562300534C56301E
:1036000023000000524C562564257323000000005F
:10361000524C563000000000534D2564230000003A
:10362000524D2564230000005350572564230000A9
:103630005350573023000000525057256425732300
:1036400000000000455252524C5623005250573051
:103650000000000010B5012251030248FEF719FBDB
:1036600010BD00000004005010B5012100224903E4
:103670000148FEF70EFB10BD0004005010B50122FA
:1036800091030248FEF705FB10BD00000004005046
:1036900000B585B014216846FCF7DBFE01208003ED
:1036A0000090002001900120029069460248FEF738
:1036B0003DFA05B000BD00000004005010B5012126
:1036C000002289030148FEF7E4FA10BD000400500F
:1036D00000B585B014216846FCF7BBFE01208003CD
:1036E0000090112001900220039069460248FEF7E5
:1036F0001DFA05B000BD0000000400507047000036
:1037000003280DD80A4A91420AD80A4A00281268AA
:1037100007D0012807D0022807D0032800D1116460
:1037200070475163704791637047D16370470000E1
:10373000E7030000A001002010B5032812D8820082
:103740000120034693400A4A00290CD0116A19430C
:103750001162074940314B68C40323434B60116831
:103760000143116010BD106A9843106210BD000043
:10377000002C014010B5FEF7D7FA02480168491C39
:10378000016010BD5C00002030B591B03421684666
:10379000FCF75FFE002401200D940E940F9440026C
:1037A0001094FEF727FB0A200090FF2001300390C1
:1037B000402005900120069008200A9002258003F1
:1037C0000B900795000304940C90089509946846A3
:1037D000FEF73CFC002801D072B6FEE707200D90F2
:1037E0000F9402210E9510940DA8FEF729FB0028D6
:1037F00001D072B6FEE711B030BD704770B50268F7
:103800001A4B1B4E984201D0B04203D17024A24300
:103810004C682243174C184D984208D0B04206D04D
:10382000164EB04203D0A04201D0A84204D10326D4
:103830003602B243CE6832438026B2434E693243E9
:103840008E68C6620E688662984203D0A04201D09C
:10385000A84201D109690163016804231943016089
:1038600001214161BFF34F8F026070BD002C014008
:103870000004004000440140004801400020004096
:1038800010B5CB06DB0E0121046A99408C4304621B
:10389000016A9A401143016210BD0000F0B5056A4B
:1038A000026A52085200026243688269174C224041
:1038B00092080C6892001443022295438A682A43B6
:1038C000134DA84205D0134EB04202D0124EB04262
:1038D00007D1066A0427BE4306620826B243CE68B3
:1038E0003243A84205D00B4DA84202D00A4DA8424F
:1038F00006D103252D02AB434D691D438B692B4334
:1039000043608461496841630262F0BD8FFFFEFF3E
:10391000002C0140004401400048014070B5046A99
:10392000026A10239A43026242688369174D2B4052
:1039300003252D02AB430D682D021D4320239C431C
:103940008B681B012343124CA04209D1046A402614
:10395000B44304628024A343CC682401234305E0DC
:103960000C4CA04202D00C4CA04208D10324A4026B
:10397000A2434C69A40014438A6992002243426026
:10398000856149688163036270BD0000FF8FFFFE9F
:10399000002C0140004401400048014070B5056A18
:1039A000026AFF2301339A4302624268C369174CDB
:1039B00023409B080C689B001C4301235B029D4332
:1039C0008B681B022B43124DA84209D1056A0615CC
:1039D000B5430562C514AB43CD682D022B4305E00A
:1039E0000C4DA84202D00C4DA84208D103252D034E
:1039F000AA434D692D0115438A6912012A43426089
:103A0000C4614968C163036270BD00008FFFFEFF9F
:103A1000002C0140004401400048014030B5046AD8
:103A2000026A01231B039A4302624368C269114D73
:103A30002A4003252D02AA430D682D0215430122B9
:103A4000520394438A68120322430B4CA04205D0D0
:103A50000A4CA04202D00A4CA04205D10124A40382
:103A6000A3434C69A40123434360C56149680164D1
:103A7000026230BDFF8FFFFE002C01400044014078
:103A80000048014070B5036A026A01263604B24359
:103A900002624268456D0E4C25400C682C4375004F
:103AA000AB430D892D041D430A4B984205D00A4BA8
:103AB000984202D0094B984203D14B69B2431B0292
:103AC0001A434260446549688165056270BD000023
:103AD0008FFFFEFF002C01400044014000480140E0
:103AE00070B5046A026A01231B059A4302624268A8
:103AF000436D104D2B400D682D021D4301235B05C6
:103B00009C430B891E050C4B2643984205D00B4B5A
:103B1000984202D00A4B984206D101241346A404CD
:103B20004A69A34392021A43426045654968C165E8
:103B3000066270BDFF8FFFFE002C01400044014073
:103B40000048014070B504461548042C007C14D28E
:103B5000002812D0012811D002280ED1114D285D65
:103B600000280AD101212046FFF7E6FD0E48006833
:103B70000E4AA10050500120285570BD204601F08A
:103B8000AFF8014605200007FEF77EF8002804D0B4
:103B900000212046FFF7D0FD70BD0121F9E70000AC
:103BA00008000020200000205C0000208000002091
:103BB00010B50C480C49007C002401230A1D012883
:103BC00008D0022805D100200B541454401C0428AE
:103BD000FADB10BD00200C541354401C0428FADBFF
:103BE00010BD00000800002020000020F8B5194F8B
:103BF0000026387C184D002821D002281ED1002430
:103C00006000C0190689285D002813D001212046D4
:103C1000FFF792FD002E07D01048A1004158104830
:103C20000068401AB04205D300212046FFF784FD0A
:103C300000202855641CE4B2042CE1D3F8BD002414
:103C400001212046FFF778FD2E55641CE4B2042CB8
:103C5000F6D3F8BD080000202000002080000020DE
:103C60005C00002010B504460A48007C01280DD1F4
:103C7000204601F035F8014605200007FEF704F85C
:103C8000012804D000212046FFF756FD10BD012178
:103C9000F9E700000800002010B5018D090707D5DD
:103CA00001684A680123DB039A43836B1A434A6025
:103CB000018DC90707D001684A6801235B049A4354
:103CC000C36A1A434A60018D890707D501684A68AB
:103CD00001231B049A43036B1A434A60018D490771
:103CE00007D501684A6801239B049A43436B1A4332
:103CF0004A60018DC90607D50268916801231B033C
:103D00009943C36B19439160018D890607D50168FA
:103D10008A6801235B039A43036C1A438A60018D0E
:103D2000490612D503685A6801210905446C8A4383
:103D300022435A60426C8A4207D1026851680323C9
:103D40005B059943836C19435160018D090607D5C2
:103D500001684A680123DB04C06C9A4302434A604D
:103D600010BD0000FEB505460026803504462E61D4
:103D7000FDF796FF019020680068202700070028C3
:103D800017DA25480090002239042046019B00F0F4
:103D900045FC00280DD0EFF31080012181F310883D
:103DA00021680A6880239A430A6080F31088AF6014
:103DB00028E020680068400727D5174800900121B7
:103DC000002289052046019B00F028FC00281CD019
:103DD000EFF31080012181F3108821680A68FF2326
:103DE00021339A430A6080F31088EFF31080012199
:103DF00081F3108821688A68520852008A6080F333
:103E00001088EF602E710320FEBDAF60EF60E666A4
:103E100026672E710020FEBDFFFFFF0110B5806AEE
:103E2000FEF7A8FD10BD000010B5EFF310810122D0
:103E300082F3108802681368FF242134A3431360BF
:103E400081F31088EFF31081012282F31088026859
:103E500093680D4C2340936081F31088C16E012953
:103E60000BD1EFF31081012282F3108802681368EE
:103E70001024A343136081F3108820228C210A5060
:103E80000021C166416710BDFEFFFFEF70B501461E
:103E90004031034680330C8CDD680268222D04D04B
:103EA000906908210843906170BD526A856D224077
:103EB0002A80826D921C8265CA8B521ECA83CA8B6D
:103EC000002AF1D1EFF31082012484F310880468F2
:103ED0002568FF262136B543256082F31088EFF36D
:103EE0001082012484F310880468A5686D086D00B1
:103EF000A56082F310882022DA60002343670367FD
:103F00000468626812020BD5EFF31082012585F375
:103F1000108825680126B606B543256082F310880F
:103F2000C26E012A02D0FEF72BFF70BDC366EFF30D
:103F30001082012383F310880468256810239D43B1
:103F4000256082F310880268D469E443E40600D453
:103F50001362898BFEF7ECFC70BD0000F0B50646DD
:103F60000446403689B0308C01902068C7690168EA
:103F700006918168254680350491E968222905D09B
:103F8000816908221143816109B0F0BD308D05902F
:103F90003DE02068406A019AA16D10400880A06D44
:103FA000801CA065F08B401EF0832068C7697907EC
:103FB00029D0F90707D00699C90504D50121016266
:103FC000286908432861B80709D50498C00706D0B6
:103FD00021680220086228690421084328617807C3
:103FE00009D50498C00706D0216804200862286912
:103FF0000221084328612869002804D02046FEF7E2
:10400000B9FC00202861F08B002826D005980028F4
:1040100001D0B806BDD4F08B0028B5D0318D8142D7
:10402000B2D9EFF31080012181F3108821688A68EA
:1040300001231B079A438A6080F310882D4860672C
:10404000EFF31080012181F3108821680A68202392
:104050001A430A6080F3108896E7EFF3108001217D
:1040600081F3108821680A68FF2301339A430A60AC
:1040700080F31088EFF31080012181F3108821680C
:104080008A681D4B1A408A6080F310882020E860FF
:104090000021616721672268506800020BD5EFF3A9
:1040A0001080012383F3108813680125AD06AB430C
:1040B000136080F31088E06E012803D02046FEF7DD
:1040C0005FFEA8E7E166EFF31080012181F310881D
:1040D0002268136810218B43136080F310882068D6
:1040E000C269D243D20600D40162B18B2046FEF7EA
:1040F0001FFC90E78D3E0008FEFFFFEF70B5014604
:104100004031034680330C8CDD680268222D04D0D8
:10411000906908210843906170BD526A2240846D05
:104120002270826D521C8265CA8B521ECA83CA8B52
:10413000002AF1D1EFF31082012484F3108804687F
:104140002568FF262136B543256082F31088EFF3FA
:104150001082012484F310880468A5686D086D003E
:10416000A56082F310882022DA600023436703678A
:104170000468626812020BD5EFF31082012585F303
:10418000108825680126B606B543256082F310889D
:10419000C26E012A02D0FEF7F3FD70BDC366EFF3D5
:1041A0001082012383F310880468256810239D433F
:1041B000256082F310880268D469E443E40600D4E1
:1041C0001362898BFEF7B4FB70BD0000F0B50646A4
:1041D0000446403689B0308C01902068C769016878
:1041E00006918168254680350491E968222905D029
:1041F000816908221143816109B0F0BD308D0590BD
:104200003DE02068406A01990840A16D0870A06DEA
:10421000401CA065F08B401EF0832068C7697907B9
:1042200029D0F90707D00699C90504D501210162F3
:10423000286908432861B80709D50498C00706D043
:104240002168022008622869042108432861780750
:1042500009D50498C00706D021680420086228699F
:104260000221084328612869002804D02046FEF76F
:1042700081FB00202861F08B002826D005980028BB
:1042800001D0B806BDD4F08B0028B5D0318D814265
:10429000B2D9EFF31080012181F3108821688A6878
:1042A00001231B079A438A6080F310882D486067BA
:1042B000EFF31080012181F3108821680A68202320
:1042C0001A430A6080F3108896E7EFF3108001210B
:1042D00081F3108821680A68FF2301339A430A603A
:1042E00080F31088EFF31080012181F3108821689A
:1042F0008A681D4B1A408A6080F310882020E8608D
:104300000021616721672268506800020BD5EFF336
:104310001080012383F3108813680125AD06AB4399
:10432000136080F31088E06E012803D02046FEF76A
:1043300027FDA8E7E166EFF31080012181F31088E3
:104340002268136810218B43136080F31088206863
:10435000C269D243D20600D40162B18B2046FEF777
:10436000E7FA90E7FD400008FEFFFFEF10B50446B6
:10437000FBF7EEFF82B2642321460248FEF701FDFF
:1043800010BD000078020020F8B50446806821695D
:10439000E2690843616900251143226808431168F6
:1043A0004B4B1940014311602068416803221203FE
:1043B0009143E26811434160A169206A0843216882
:1043C0008A68444B1A4002438A602068C16A626A64
:1043D000090909011143C1623F492068884211D18E
:1043E0003E4840698007800F0FD0012806D0022880
:1043F00002D003280BD103E0022109E0042107E0E9
:10440000082105E03649884201D1002100E0102151
:104410000120E369C003334A334E344F834227D12E
:10442000002906D0022907D0042907D008293FD146
:1044300008E0FDF7B1FD03E0104603E0FDF7C0FD25
:1044400000283AD0616A4900715AFCF704F86168A3
:1044500040004A088018FBF7FEFF01461039B942B8
:1044600026D82249491C01400007400F084322E09A
:10447000002906D0022907D0042907D0082917D11E
:1044800008E0FDF789FD03E0104603E0FDF798FD25
:10449000002812D0616A4900715AFBF7DCFF61689D
:1044A0004A088018FBF7D7FF01461039B94201D9F5
:1044B000012502E080B22168C86020460121403019
:1044C0004185018500206067A0672846F8BD00008F
:1044D000F369FFCFFFF4FF110038014040100240A4
:1044E000004400400024F4004C4F0008EFFF00009F
:1044F000F0B58165014640318A83CA83002545674E
:10450000012483682403FF26A34204D10369002BFE
:1045100013D13D4B0AE07F27002B09D00126360737
:10452000B3420CD10369002B05D03F230B8407E075
:104530000369002B01D00F8402E00E8400E00D849B
:10454000034680331D612225DD60EFF310830125D2
:1045500085F310880568AE6801273E43AE6083F39B
:104560001088436E7D07AB4229D1098D914226D830
:104570008168A14202D1016900291DD02349416708
:10458000016900290CD0EFF31081012282F3108819
:1045900002681368FF2401342343136081F31088F9
:1045A000EFF31081012282F31088006882680123F2
:1045B0001B071A43826023E015494167F0E78168D1
:1045C000A14202D1016900290ED012494167016957
:1045D00000290BD0EFF31081012282F310880068CC
:1045E0000268FF23213309E00B494167EFF3108193
:1045F000012282F310880068026820231A430260B7
:1046000081F310880020F0BDFF010000CD410008BB
:104610005D3F0008FD4000088D3E0008FFB581B0F9
:1046200005460E46044680350A9F32E0781C30D09D
:10463000FDF736FB0499401AB84218D8002F16D05F
:1046400020680168490724D5802E22D0402E20D032
:10465000C169C94309070CD4082606622046FFF742
:10466000E3FB2E6100202871012005B0F0BD03207E
:10467000FBE7C069C04300050BD401202168C002DC
:1046800008622046FFF7D0FB202028610020287117
:10469000EDE72068C1693046884305D000210398C2
:1046A0008142C3D00020E0E70121F8E710B50248BD
:1046B000FEF778F910BD00007802002030B474468F
:1046C000641E2578641CAB4200D21D46635D5B000E
:1046D000E31830BC184700008307FF22DB0E9A4026
:1046E0008907090E9940002808DB830809489B00C8
:1046F0001B18186890430843186070470007000FA4
:104700000838830804489B001B18D8699043084365
:10471000D861704700E400E000ED00E0F8B5044621
:1047200081880068FDF7B0FA00281DD00021A37928
:1047300001254448002B19D00022012B1CD0424EE9
:10474000022B27D0032B16D1002921D0B44203D04D
:10475000314610398C420ED1E1680268511A142991
:1047600009D30068E0605CE00121E0E7002902D0A5
:10477000A5710068A060F8BDA3680568EB1A142B4A
:10478000F9D3002904D00221A1710068E060F8BDCE
:10479000A271F8BD2C4F2D4B203F002918D0A168E5
:1047A0000068401A192149018842F2D30320A07100
:1047B000BC42EED13A1FD57090786840907039D0E5
:1047C0000520107051784800C0180289052036E095
:1047D000A271BC4225D11C4924398C784878002C20
:1047E00006D0401CC0B2487003280CD94A700AE0B9
:1047F000401CC0B24870042801D94A7001E0042866
:1048000009D0487808700878042806D04978002C28
:10481000D9D14A0012E00420087000221146042079
:104820000DE0B44201D1012100E00021204600F05A
:1048300035F8F8BD50781070014642009A5AFCF7DE
:1048400055FAF8BD5C0000204C0000200800002054
:1048500070B5C104C90E4C00C5B2403400F0F0F888
:10486000204600F014F9284600F011F900F0FAF89B
:10487000322000F001F870BD10B504460648054925
:104880000068FBF7E8FD6043800800E000BF401EC1
:10489000FCD210BD40420F007C00002070B5544D8A
:1048A000544C287804280ED0534A052876D06878CE
:1048B00004286DD200296CD04300E15A914201D204
:1048C000491CE1528BE04B480029007C07D0401C7A
:1048D000C0B22074022806D90020207418E00028F5
:1048E00007D0401E20740006000E11D001281CD0F5
:1048F00001E00220207400210846FEF71DFF002180
:104900000120FEF719FF00210220FEF715FF32E01B
:1049100001210020FEF710FF01210846FEF70CFFE1
:1049200001210220FEF708FF36E0052424071021AC
:104930002046FDF7A9F9002825D000210020FEF728
:10494000FBFE20212046FDF79FF900281DD0002105
:104950000120FEF7F1FE40212046FDF795F90028E1
:1049600018D000210220FEF7E7FE80212046FDF747
:104970008BF9002810D000210320FEF7DDFE002275
:104980001146042020E00121D8E70121E0E705E0FD
:104990001EE01EE00121E5E70121EDE7687800292E
:1049A00006D0400001190889904208D2401C05E059
:1049B000400001190889002801D0401E088169784B
:1049C0004800001902890520FCF790F9FEF720FC49
:1049D00070BD4200A15A002901D0491EA1524100D8
:1049E000615AFEF78DFE69784800225A2878EBE775
:1049F0002800002008000020E703000070B50446EE
:104A00000E480D46814200D9054664212846FBF731
:104A100022FD0A21FBF71FFD303121700A212846B3
:104A2000FBF719FD0D460A21FBF715FD30316170CA
:104A300029463031A1700020E07070BDE70300000E
:104A400010B5FEF745FEFEF719FEFEF703FE022045
:104A5000FFF712FFFEF732FE0220FFF70DFFFEF711
:104A600003FE10BD10B5FEF733FEFEF727FE022051
:104A7000FFF702FFFEF7EEFD0220FFF7FDFEFEF757
:104A8000FDFD0220FFF7F8FEFEF702FE10BD70B537
:104A90000446FEF71DFE0025200602D5FEF7EEFDBA
:104AA00001E0FEF70BFE0120FFF7E6FEFEF7D2FD68
:104AB0006006040E0120FFF7DFFEFEF7D5FD6D1C3A
:104AC000EDB2082DE8D3FEF7E3FDFEF7D7FD012098
:104AD000FFF7D2FEFEF7BEFD0220FFF7CDFEFEF788
:104AE000C3FD70BDFDF728F9FEF74EFEFEF734FA60
:104AF000FEF71EFAFEF7D8F9FEF74EFBFEF7D2FAE4
:104B0000FEF7B2FAFEF79AFAFEF766FB664E674DBD
:104B100000246000295AB14202D92E52FEF778FBD8
:104B2000641CE4B2042CF4D3C820FCF715FF6048E1
:104B3000FCF72AFA20225F495D48FCF747FDFCF7A5
:104B400023F9FCF74BF8FFF733F840225A495B484A
:104B5000FDF7B8FE5A4F5B4C00266078012808D15B
:104B60005948017848002A5A58480078FCF7BEF89E
:104B700066705748FDF7D0F8FBF7FAFF554900F08B
:104B800007F9FBF7C9FD80B27D21C900608088422A
:104B900034D96068401C6060884230D3002172B60E
:104BA0000846FEF7C9FD00210120FEF7C5FD0021E2
:104BB0000220FEF7C1FD00210320FEF7BDFD287C89
:104BC0005C265824012802D0022802D002E0DC260C
:104BD00000E0D8243846FFF73BFE152000023018CD
:104BE000FFF736FE0B2040022018FFF731FE3A484F
:104BF000FFF72EFE3648FDF78FF8FBE766600821C9
:104C00003648FDF741F8002819D010213348FDF748
:104C10003BF8002813D020213048FDF735F8002854
:104C20000DD040212D48FDF72FF8002807D0A660B1
:104C3000FCF706F8FEF7DAFFFEF720FB8DE7A06829
:104C4000401CA0600A28F3D9002172B60846FEF77E
:104C500073FD00210120FEF76FFD00210220FEF709
:104C60006BFD00210320FEF767FD287C6D2658248C
:104C7000012802D0022802D002E0ED2600E0D8246C
:104C80003846FFF7E5FD152000023018FFF7E0FD7C
:104C90000B2040022018FFF7DBFD0F48FFF7D8FD7F
:104CA0000B48FDF739F8FBE7E70300000800002098
:104CB000D000002090000020380200207802002060
:104CC000F9140000600000202900002028000020C6
:104CD0009001002000007A44731700000004005087
:104CE0001CB5074A400006CA009101926946095A5C
:104CF00005200007FCF7C8FF012800D000201CBDDC
:104D0000444F000870B501250400ED074C4020D445
:104D1000441A01D2001B0919C60D4B00F2B2FF2A3A
:104D200029D01B0E2CD000020C02D31A2C43DC40DD
:104D30002843051910D2280A02D3401C6D0611D051
:104D4000761EF6058019FF2A00DA70BDC00DC00579
:104D500070BD694000F07AF801200543C541521C3E
:104D6000761CE8E764089C40C90161408900E7D1EE
:104D70000124A043E4E71B0E440200D0034870BDA9
:104D8000002AFCD1C00FC00770BD00BF0000C07F6B
:104D900070B5420064414B005C41120E39D01B0ECD
:104DA00038D0FF2A3CD0FF2B3AD040024902400ABB
:104DB000490A060045184E43000A090AD21848431A
:104DC000ED017F3A0104731A4019190C4318990F29
:104DD00004D001215B0849075B1A521CD80904D38F
:104DE000401CF50301D19D0607D0FF2A08D2D50546
:104DF00006D0E4072043401970BD0125A843F4E71D
:104E0000002A01DCE00770BD2402FF202043C0051A
:104E100070BD1B0EFF2A03D0FF2B01D0E00770BD31
:104E2000FF2645003606B54206D84D00B54203D8E8
:104E3000D218FF2A00D0E7E7004870BD0000C07F0D
:104E400070B501250400ED074C4022D4441A02D26B
:104E50006C40001B0919C60D4B00F2B2FF2A4BD063
:104E60001B0E50D000020C02D31A2C43DC40A84386
:104E7000051B05D5AD0019D36D08761E521E37D01F
:104E8000F605280A01D2801970BD70416D0603D065
:104E900070BD6940FFF73CFF9C400902614049003A
:104EA00001D0401E70BD0124A04370BD6D081DD00F
:104EB00001202B0C01D12D0410302B0E01D12D021D
:104EC00008302B0F01D12D01001DAB0F01D1AD001A
:104ED000801CEB0F01D16D00401C6D00361A121AB8
:104EE000680AF5054019012A02DB70BD002070BD7B
:104EF000C036300AC00770BD1B0E440201D1FF2B23
:104F000000D1024870BD002AF0D070BD0000C07F03
:104F10003F065B4F666D7D077F6F00001E001E0021
:104F20001E001E007F007F007F007F000000000049
:104F30002144454C02000000000000001F0000005A
:104F4000010000001000200040008000010002006D
:104F50000400060008000A000C00100020004000B9
:104F600080000001000000000000000000000000C0
:104F70000000000000000000000000000000000031
:104F8000000000000100000002000000030000001B
:104F900004000000060000000700000008000000F8
:104FA00009000000000000000000000000000000F8
:104FB00000000000010000000200000003000000EB
:104FC000040000008182838485868788898B8C8D8C
:104FD0008E8F919293959697999A9C9D9FA0A2A34C
:104FE000A5A7A8AAACAEB0B2B3B5B7B9BCBEC0C293
:104FF000C5C7C9CCCED1D4D7D9DCDFE2E6E9ECF025
:10500000F3F7FAFE245000080000002080000000A2
:1050100004010008A45000088000002008090000D6
:105020002001000800000000000000007F007F0059
:105030007F007F0000000000000000000000000072
:105040002144454C0000000000000000000000006A
:1050500000040050000400000000000000000000F8
:1050600000040050000800000000000000000000E4
:1050700000040050001000000000000000000000CC
:105080000000000000000000000000000000000020
:10509000000000000100000004000000000000000B
:0450A0000024F400F4
:04000005080000C12E
:00000001FF
