:020000040800F2
:10000000A8090020B5010008593F0008D73A0008A8
:1000100000000000000000000000000000000000E0
:10002000000000000000000000000000ED47000894
:100030000000000000000000C94000088D480008D2
:10004000C701000800000000C7010008C701000840
:10005000C7010008C7010008C7010008990F000880
:1000600000000000E10E0008C7010008C7010008F9
:10007000C7010008C7010008C70100080000000010
:10008000C70100080000000000000000C7010008D0
:1000900000000000C7010008C7010008C7010008F0
:1000A000C7010008C7010008C7010008C701000810
:1000B000B95C000800000000000000000000000023
:1000C00000F002F800F04BF80CA030C808382418F3
:1000D0002D18A246671EAB4654465D46AC4201D180
:1000E00000F03DF87E460F3E0FCCB6460126334267
:1000F00000D0FB1AA246AB4633431847DC6700002A
:10010000FC670000103A02D378C878C1FAD85207C9
:1001100001D330C830C101D504680C6070470000BD
:100120000023002400250026103A01D378C1FBD813
:10013000520700D330C100D50B60704710B5642959
:1001400002D100F0DFF810BD732902D100F0CCFB22
:1001500010BD002010BD1FB51FBD10B510BD00F0B3
:10016000F3FB1146FFF7F7FF06F0D8F800F00BFCA1
:1001700003B4FFF7F2FF03BC05F0FCFD70B50546C4
:100180000C46164602E00FCC0FC5103E102EFAD2D8
:10019000082E02D303CC03C5083E042E07D301CC9E
:1001A00001C5361F03E021782970641C6D1C761E82
:1001B000F9D270BD0748804707480047FEE7FEE7D1
:1001C000FEE7FEE7FEE7FEE704480549054A064B61
:1001D0007047000021490008C1000008A803002062
:1001E000A8090020A8050020A805002070470000ED
:1001F0000FB4054910B503AA029800F079FB10BCB2
:1002000008BC04B0184700007C0000200FB41CB5E7
:100210000C0007AA009001D00019401E084B7B4437
:1002200069460190069800F02CFB002C03D069462B
:10023000002000F039FB1CBC08BC04B018470000CB
:1002400091060000F8B50E460446002020622046C4
:10025000E1688847002829D0252802D06268A16873
:1002600020E0E16820460027884705001ED0284688
:100270004138192802D80127FF022035324620468E
:1002800027602946FFF75AFF002808D0012804D02C
:10029000F61DF608F6000836D9E7361DD7E762687E
:1002A0002846A1689047206A401CCFE7206AF8BD25
:1002B00070B50C460546012A05D02878800600D581
:1002C000EA69002302E0012305E05B1C934202D2AD
:1002D000E05C0028F9D1A869E618C01AA861286A6C
:1002E000C01828622846C046C04604E06A682078E4
:1002F000A968641C9047B442F8D32846C046C0465B
:1003000070BD0000F7B5002575291068009914A686
:1003100011D0C046C046002802DA404211A608E0CB
:10032000009909688A0701D50FA602E0490704D59C
:100330000EA6012501E0C046C046009F00242437D8
:1003400004E000F0E9FA30313955641C0028F8D196
:100350002B4632462146009800F036FAFEBD0000DA
:10036000000000002D0000002B0000002000000015
:1003700030B5441C03E00178401C00290DD08107F2
:10038000F9D10B4BDD0104C8D11A91432940FAD0B1
:10039000001B0A0603D0C01E30BD001B30BD0A047E
:1003A00001D0801E30BD0902FCD0401E30BD0000CF
:1003B00001010101F8B5042A2CD3830712D00B7870
:1003C000491C0370401C521E83070BD00B78491C3C
:1003D0000370401C521E830704D00B78491C037025
:1003E000401C521E8B079B0F05D0C91ADF0020232B
:1003F000DE1B08C90AE0FFF7C1FEF8BD1D4608C9AB
:10040000FD401C46B4402C4310C0121F042AF5D2F4
:10041000F308C91A521EF0D40B78491C0370401C13
:10042000521EEAD40B78491C0370401C012AE4D404
:1004300009780170F8BD01E004C0091F0429FBD24E
:100440008B0701D50280801CC90700D0027070475D
:1004500000290BD0C30702D00270401C491E02299C
:1004600004D3830702D50280801C891EE3E70022A3
:10047000EEE70022DFE7002203098B422CD3030AB8
:100480008B4211D300239C464EE003460B433CD4E1
:10049000002243088B4231D303098B421CD3030A49
:1004A0008B4201D394463FE0C3098B4201D3CB0179
:1004B000C01A524183098B4201D38B01C01A5241A9
:1004C00043098B4201D34B01C01A524103098B42AD
:1004D00001D30B01C01A5241C3088B4201D3CB0098
:1004E000C01A524183088B4201D38B00C01A52417B
:1004F00043088B4201D34B00C01A5241411A00D22B
:1005000001465241104670475DE0CA0F00D0494293
:10051000031000D34042534000229C4603098B4203
:100520002DD3030A8B4212D3FC22890112BA030A8B
:100530008B420CD3890192118B4208D3890192110D
:100540008B4204D389013AD0921100E08909C30992
:100550008B4201D3CB01C01A524183098B4201D394
:100560008B01C01A524143098B4201D34B01C01A7F
:10057000524103098B4201D30B01C01A5241C308F7
:100580008B4201D3CB00C01A524183088B4201D366
:100590008B00C01A5241D9D243088B4201D34B0081
:1005A000C01A5241411A00D20146634652415B10C3
:1005B000104601D34042002B00D5494270476346A4
:1005C0005B1000D3404201B50020C046C04602BDCA
:1005D0007047704770470000F0B5FF252D04C6092D
:1005E000C209FF2704462E400137CB093E4348404D
:1005F0002A402B400746002A6BD0002B69D0AA4224
:1006000067D0AB4265D0002800DA32460125ED05FF
:1006100029432C4309022002090AD21A4B0C7F24D9
:10062000E31A434C000A7C44E35C7D242404121941
:1006300014145B00A218884201D3521C00E0400051
:1006400049420C465C4324115C43DB016415E3180A
:10065000040A5C43C502200D0C4644436419250A74
:100660005D432303EC0C0D46654300030019EB18B2
:100670004C42A34201D35B18401CD4052018002B28
:1006800007D05B00C91804D3401C002901D14008E1
:1006900040003F2189048A4209D3002A08DC110660
:1006A000090F04D0032149074018C00FC007F0BD4F
:1006B00001224100120689187F2252069142F6D289
:1006C00005214907C84201D59010F0BDFF20C005A3
:1006D000F0BD002F00DA32461648AA4207D2AB42DC
:1006E00005D21902090E17D0F80FC007F0BDFF257B
:1006F00063002D06AB42F9D84900A942F6D8AB42B7
:1007000001D1A942F2D0A94201D1002101E061004A
:100710004908D0050843F0BD1102090EFBD0FF20A7
:100720000243D005F0BD0A460146104654E70000DA
:100730006E6200000000C07F0102C21504D00123D8
:10074000DB071943002A0ADB9E239A1A02D40846C3
:10075000D0407047FF2241001206914201D900208B
:100760007047C017C04370471F22030C02D10F22ED
:1007700000041CD0030E01D10002083A030F01D17E
:100780000001121F830F01D18000921E002801DB9F
:100790004000521ED20551180212511819229040E1
:1007A00004D3491C002801D1490849000846704774
:1007B000C10FC90700D04042012292071143D3E77D
:1007C00001218907D0E77047FFB504460D4681B087
:1007D000243000902168880604D51022E0699143F6
:1007E000216000E00120A84201DD471B00E0002756
:1007F0000498A1697A191018081AA0612078C00617
:1008000002D42046C046C046002608E0039862682D
:10081000A168805D9047206A401C761C2062049885
:100820008642F3DB2078C0060AD52046C046C04683
:1008300006E06268A16830209047206A401C206270
:1008400038467F1E0028F4DC07E000986268A16843
:10085000405D9047206A401C206228466D1E00289B
:10086000F3DC2046C046C0462078000602D50220B0
:1008700005B0F0BD0120FBE701694A1C0261087860
:10088000704700B58FB00291002105910549019391
:1008900079440391114604906846FFF7D3FC0FB0EA
:1008A00000BD0000E5FFFFFF0A681070521C0A60DF
:1008B00070470CC908399A4202D2531C0B60107061
:1008C000704710B54369002B02D0C046C04601E016
:1008D000FFF7EEFC012010BD1278014624310A70AA
:1008E00000224A700122ECE711680022D243E8E7B7
:1008F000084B70B50D467B44FFF7C3FF04462846FE
:1009000000F01EF8002802D00020C04370BD204631
:1009100070BD00005B59000001468008081A0209FA
:100920001018020A1018020C1018C00882001218C1
:100930005200891A01E0401C0A390A29FBD270478B
:10094000C068802108407047754600F025F8AE4623
:10095000050069465346C008C000854618B020B55A
:10096000FFF732FC60BC00274908B6460026C0C528
:10097000C0C5C0C5C0C5C0C5C0C5C0C5C0C5403D57
:1009800049008D46704710B50446C046C046204613
:10099000FFF7EEFB10BD0000004870474803002041
:1009A00070B50546AC6AA06D50210840002831D1D1
:1009B000A06D012149020843A065206803F0C7F833
:1009C000002823D0A07E002820D1206800680821BC
:1009D000084008281AD1206803F0B3F800280DD188
:1009E000206840680C21884321684860A06DFF2181
:1009F0000131884301210843A06507E0A06D202153
:100A00000843A065E06D01210843E065204600F041
:100A100009FE0CE0A06D10210840002803D02046FC
:100A200000F002FE03E0206D416B2846884770BD50
:100A300070B50546AC6AA06D40210843A065E06D25
:100A400004210843E065204600F0EEFD70BD70B55E
:100A50000446A56A284600F0E6FD70BD70B5044660
:100A6000206803F051F80646206803F053F8002888
:100A700037D0002E35D12068806805210840012834
:100A800006D1206803F02AF803202168086009E0F5
:100A9000A06D10210843A065E06D01210843E065C9
:100AA000012070BD01F0E4FB054614E001F0E0FB1D
:100AB000401B02280FD920688068C007C00F00289B
:100AC00009D0A06D10210843A065E06D0121084305
:100AD000E0650120E5E720688068C007C00F0028B6
:100AE000E4D10020DDE7000038B504460020009086
:100AF000206803F00FF8002858D1206880682C493E
:100B00000840002809D0A06D10210843A065E06DC1
:100B100001210843E065012038BD206802F0E6FFAE
:100B2000244802F0EBFF0121C905084000280DD040
:100B3000214922480068FFF79EFC401C009002E01B
:100B40000098401E009000980028F9D1607E01288E
:100B50002CD001F08DFB05461FE0206802F0DAFF83
:100B6000002802D1206802F0C1FF01F081FB401B88
:100B7000022812D920680068C007C00F0121484030
:100B80004840002809D1A06D10210843A065E06D00
:100B900001210843E0650120BEE720680068C00726
:100BA000C00F0121484048400028D6D00020B3E7BC
:100BB0001700008008270140400D03008C00002032
:100BC000F0B585B01D48408904900025002429E037
:100BD000A0001B49085A0390A000401840880290CA
:100BE0000298FFF7EDFD01900498FFF7E9FD154924
:100BF000009005F025FD07460199FFF7EDFC06463C
:100C00000398FFF7DDFD3146009005F019FD0E4910
:100C10000190FFF7E1FC0746294605F0CBFC0546AD
:100C2000601CC4B2102CD3DB8321C9052846FFF712
:100C3000D3FC0546284605B0F0BD0000A075FF1F97
:100C4000B00000200000404000F07F4510B50020BB
:100C5000184908701849087018490870002407E0FE
:100C60006000174A115A204603F0C2FD601CC4B24E
:100C7000042CF5DB1248007C00280FD1002111481C
:100C800002F0DEFA04210F4802F0DAFA08210D48DA
:100C900002F0D6FA0C210B4802F0D2FA064800788E
:100CA000400007490A5A044801780248007800F0D9
:100CB00075F810BD6400002065000020660000206B
:100CC00008000020C001002010B5054805F054F8C8
:100CD000044805F051F8044805F04EF810BD000036
:100CE000340000204400002054000020FFB583B0F1
:100CF00004460D462748854200DD0546042C03DAEC
:100D00002549601C0E5C00E0762664212846FFF72A
:100D1000BCFB0A210090FFF7B8FB1F48475C0A2183
:100D20002846FFF7B2FB0A210090FFF7AEFB1A48F6
:100D3000405C02900A212846FFF7A7FB1648405C5A
:100D400001900598002801D08020074306980028CC
:100D500003D0802102980843029031462922D20113
:100D60001143084605F008F91521090239430846E0
:100D700005F002F90B22520202991143084605F0D0
:100D8000FBF81722120201991143084605F0F4F806
:100D900007B0F0BDE7030000C567000870B5044662
:100DA0000D461646230004F08FFF06040506071BB8
:100DB000656F00BF00BF00BF3548007C022801D12D
:100DC000012000E0002003463148007C012800D1CA
:100DD00000E00020024631462046FFF787FF54E03E
:100DE0002B48007C002815D12A4805F0C5F81520AD
:100DF000000205F0C1F80B20400205F0BDF82449BF
:100E0000097C254A515C172212021143084605F05D
:100E1000B3F82EE01E48007C012815D11D4805F0CE
:100E2000ABF82B20C00105F0A7F80B20400205F01D
:100E3000A3F81749097C184A515C17221202114382
:100E4000084605F099F814E0124805F095F81520C9
:100E5000000205F091F82D20C00105F08DF80C4935
:100E6000097C0D4A515C172212021143084605F015
:100E700083F80AE06A0006480830815A01231A46BE
:100E80002846FFF733FF00E000BF00BF70BD000041
:100E900008000020F6140000C567000810B503F034
:100EA0008FFC03F04FFC03F061FC0B4805F064F885
:100EB0000520800205F060F81520000205F05CF8BE
:100EC0000B20400205F058F81720000205F054F8F6
:100ED000024805F051F810BD210400000F48000041
:100EE00010B5024800F048FE10BD0000540100207B
:100EF00070B50446206C8008800009494018606481
:100F00002178084608381421FFF7B5FA0546044849
:100F10008030A064E906C90E01208840E06470BDFD
:100F20000008024002799106890E4A1E9200064B83
:100F3000D2180265044A403242654A1E93079B0F4D
:100F400001229A40826570470009024070B5856CA5
:100F5000C46C6C60046D002C02D0456D846D6C60B7
:100F60000C4C64681C26056C35400126AE403443A9
:100F7000084D6C60046863608468102C04D10468B8
:100F8000A2600468E16003E00468A1600468E260B4
:100F900070BD00000000024010B5102001F034F8D0
:100FA000202001F031F8402001F02EF8802001F0DF
:100FB0002BF810BD72B600BFFEE700000449496976
:100FC0000122120402431143014A5161704700009B
:100FD0000020024010B50346064A5269064C2240E2
:100FE0001046CA00012424042243921C0243014CEF
:100FF000626110BD0020024007E0FFFF10B5084904
:10100000496901242143064C6161026000BF00BFB1
:1010100000BFBFF36F8F00BF00BF00BF436010BDB4
:1010200000200240F0B50246002314460D46114E42
:1010300076690127BF043E430E4F7E6100BFEFF388
:101040001086304672B605E02E6826602D1D241DE0
:101050005E1CF3B2402BF7D300BF064E3669012762
:101060003F043E40002EF8D100BF80F3108800BF3F
:10107000F0BD00000020024070B5044601F0F8F811
:10108000064601252D0409E0601C002806D001F069
:10109000EFF8801BA04201D3032070BD1348006904
:1010A00028400028F0D11148006911490840054640
:1010B000481C0E490861002D03D00E4845600120F0
:1010C000EBE709E0601C002806D001F0D1F8801B96
:1010D000A04201D30320E0E704480069012189040C
:1010E00008400028EED100BFD7E7000000200240F2
:1010F000FA8300002C03002001460120C006081AD4
:10110000C00A7047F0B585B0044600200390002562
:1011100000BF5420005D012802D1022005B0F0BDBF
:1011200001215420015500BF2046FFF797FC049091
:10113000206802F0F7FC00287ED1A06DFF2101316C
:10114000884302210843A0652068C06858490840C8
:1011500002902068C068C94308402168C860002622
:1011600029E020688168534A11401207891881607C
:1011700000BF13E00398401C03904F490398884236
:101180000CD3A06D0221884310210843A06500BF45
:1011900000215420015500BF0120BFE7206881686D
:1011A000C90F0029E6D12068B42109584906490E23
:1011B000491C4D19761C082ED3D3700845193146A9
:1011C0002846FFF758F9054620688168394A1140DA
:1011D000491C816000BF20680169890F89070029C7
:1011E00019D100BF354807680F2189040F4000BF9F
:1011F0000720800487420ED3B80CC01E0121814015
:10120000009100984008009002E00098401E009075
:1012100000980028F9D12068B4210958C909C901EA
:101220002943B422115000BF20688168214A11402F
:10123000891C816000BF00E02FE001F019F80190E7
:1012400019E001F015F80199401A022813D9206815
:1012500002F068FC00280ED0A06D10210843A065A4
:10126000E06D01210843E06500BF002154200155D5
:1012700000BF012052E7206802F054FC0028E0D1B2
:101280002068C068029908432168C860A06D0221E7
:10129000884301210843A06503E0A06D10210843A5
:1012A000A06500BF00215420015500BF049835E718
:1012B00003800000E8FFFF7F00F2020008270140E2
:1012C000F0B585B005460C46002003900290012140
:1012D000C9072869884203D0091D2869884200D1BE
:1012E00000E000BF00BF5420405D012802D1022071
:1012F00005B0F0BD01215420415500BF286802F01F
:1013000020FC002876D16068022874D00121C9072A
:101310002869884203D0091D2869884208D12868B5
:101320002168826A4B035B0B1A43826200BFC6E0EE
:101330002179CA06D20E0F219140286E8843216878
:101340004903490B002905D11F229206216811404B
:10135000890E92E02178C907C90F002901D0002128
:101360008BE0022221681140022901D1012184E091
:10137000042221681140042901D102217DE00822C4
:1013800021681140082901D1032176E0102221684B
:101390001140102901D104216FE020222168114061
:1013A000202901D1052168E040222168114040290F
:1013B00001D1062161E0802221681140802901D1FC
:1013C00007215AE0FF22013221681140914201D1E8
:1013D000082152E00122520221681140914201D1BC
:1013E00009214AE00122920221681140914203D171
:1013F0000A2142E0FAE0BAE00122D202216811405B
:10140000914201D10B2138E00122120321681140E1
:10141000914201D10C2130E0012252032168114098
:10142000914201D10D2128E001229203216811404F
:10143000914201D10E2120E00122D2032168114006
:10144000914201D10F2118E00122120421681140BC
:10145000914201D1102110E0012252042168114073
:10146000914201D1112108E001229204216811402A
:10147000914201D1122100E000212279D206D20E40
:1014800091400843286660688008401CE9698842EA
:1014900015D82868226861680192836ACF06FF0E1A
:1014A0000F22BA4093430F27BF06019A3A40920E8B
:1014B000CF06FF0EBA401343836200BF00BF286807
:1014C00021680091A16801914269009909028A434B
:1014D00000990B024C4F019939400B401A4342616D
:1014E00000BF2068C00FC007002821D0474802F085
:1014F00005FB06464649206888421AD1C0023040A2
:10150000002816D1C80230430146404802F032FBA1
:10151000404941480068FEF7AEFF401C0C2148439B
:10152000029002E00298401E029002980028F9D131
:1015300062E03A49206888420AD18002304000289F
:1015400006D1880230430146304802F013FB53E0D5
:101550003349206888424FD14002304000284BD1A7
:10156000480230430146294802F004FB44E00121CF
:10157000C9072869884203D0091D2869884208D113
:1015800028682168826A4B035B0B9A43826200BF22
:1015900000BF2068C00FC00700282DD01B4802F0F4
:1015A000ADFA06461A492068884207D1C202304681
:1015B00090430146154802F0DDFA1DE01749206806
:1015C000884207D182023046904301460F4802F01C
:1015D000D1FA11E01249206888420DD1420230460A
:1015E00090430146094802F0C5FA05E0A86D2021A4
:1015F0000843A8650120039000BF002154204155F5
:1016000000BF039874E6000000FFFF0708270140B1
:10161000001000B0400D03008C000020004000B816
:10162000002000B47047704770470000FEB50446C4
:1016300000200290002500260190002C01D10120FD
:10164000FEBD3C20005D012800D100BF20690028BC
:1016500005D0012149052069884200D100BFA06D55
:10166000002807D1204600F02DF90020E065002178
:1016700054200155206802F05DFA002817D1206837
:101680008168894A1140012212071143816000BF1D
:10169000864987480068FEF7EEFE401C4000019036
:1016A00002E00198401E019001980028F9D12068BD
:1016B00002F040FA002809D1A06D10210843A0656E
:1016C000E06D01210843E06501200290206802F0EE
:1016D00038FA0746A06D1021084000287ED1002F5F
:1016E000FCD1A06D0901884302210843A065206850
:1016F00002F010FA002872D1217E8903A068084305
:10170000617EC9030843A17E49030843216B002978
:1017100002D00121090300E000210843E1680843E9
:101720002169C90FC907002903D021694900490867
:1017300001E00121490508432C21095D49000843C6
:1017400005432020005D01280ED1A07E002803D192
:1017500001200004054307E0A06D20210843A06597
:10176000E06D01210843E065606A002806D0FF2192
:10177000C131606A0840A16A084305432068C06817
:101780004C49084028432168C8606068800F800782
:10179000E16C084306433C20005D01280BD16068E2
:1017A000800F800701210843216C0843616C0843C6
:1017B000A16C08430643206800693F490840304354
:1017C00021680861032189076068884216D0494270
:1017D0006068884212D04900606801E05BE00DE07B
:1017E00088420BD0354880680F21890488430F2236
:1017F0009204616811400843304988600021626B9F
:10180000206802F0BEF92E49A26B206802F0B9F9F7
:101810002069002807D12068806A0F21C943084346
:101820002168886211E001214905206988420CD1B4
:10183000207F401E4007C10E0F20C0438840216E0C
:1018400008432168896A2168886221680020009124
:101850000099496904220240072393401940042259
:101860000240D140606B814208D10020E065A06D4C
:101870000221884301210843A06512E0A06D0221E6
:10188000884310210843A065E06D01210843E0650D
:101890000120029005E0A06D10210843A065012001
:1018A00002900298CCE60000E8FFFF7F400D0300A5
:1018B0008C0000200102DEFF02FCFF1F0027014018
:1018C00004FFFF0710B586B00446142101A8FEF7F7
:1018D000D0FD27492068884248D100BF25480068CC
:1018E00001210905084323490860084600680121D1
:1018F00009050840009000BF00BF00BF1D484038E8
:10190000406B012108431B49403948630846406B3E
:10191000C007C00F009000BF00BF0120019003204E
:1019200002900020039001A90520000700F0A4FB0D
:101930001148124908600520486000210F48816065
:10194000C1608021016149004161890081612021DC
:10195000C1610021016200F09FF9002801D0FFF76A
:1019600029FB00BF05482065846200BF06B010BD9A
:1019700000240140401002400800024054010020B1
:10198000F8B504460E461746206802F0DAF800283B
:1019900050D100BF5420005D012801D10220F8BDC4
:1019A00001215420015500BF2068C068084000286C
:1019B0000DD1206802F0AEF8002802D0206802F0B5
:1019C0008DF82068C068012108432168C86020465E
:1019D000FFF78AF80546002D2DD1A06D1749084064
:1019E000FF2101310843A0650020E0651448216D06
:1019F000C8621448216D08631348216D48631C2098
:101A00002168086000BF00215420015500BF2068F4
:101A1000406810210843216848602268114640311F
:101A20003B463246206D00F097F90546206802F0EB
:101A300099F800E002252846B1E70000FEF1FFFF1B
:101A4000A10900084F0A0008310A000801460029D0
:101A500001D1012070472520405C022808D00420D5
:101A6000C86300BF00222420425400BF0120F1E7D8
:101A700008680068400840000A681060086800684C
:101A80000E2290430A681060486C0068FF22013201
:101A900090434A6C1060124840681C230A6C1A403C
:101AA0000123934018430E4A50608A6CC86C506002
:101AB000086D002809D0086D0068FF2201329043AC
:101AC0000A6D10604A6D886D5060012225204254D5
:101AD00000BF00222420425400BF0020BAE70000CB
:101AE0000000024070B5044600252520005D022854
:101AF00003D00420E06301253AE020680068400834
:101B0000400021680860206800680E218843216831
:101B10000860606C0068FF2101318843616C0860D7
:101B2000144840681C22216C114001228A40104355
:101B300010494860A16CE06C4860206D002809D015
:101B4000206D0068FF2101318843216D0860616DBF
:101B5000A06D486001212520015500BF00212420EF
:101B6000015500BFA06B002802D02046A16B88471A
:101B7000284670BD0000024070B50446454805681F
:101B8000206806681C20216C014004208840284001
:101B9000002820D00420304000281CD02068006895
:101BA00020210840002805D12068006804218843CE
:101BB00021680860374840681C22216C11400422CB
:101BC0008A40104333494860206B002860D020468B
:101BD000216B88475CE01C20216C0140022088407A
:101BE0002840002828D002203040002824D0206837
:101BF000006820210840002808D1206800680A21D8
:101C00008843216808600121252001552148416849
:101C10001C22206C10400222824011431D4841606A
:101C200000BF00212420015500BFE06A00282FD00A
:101C30002046E16A88472BE01C20216C01400820E7
:101C400088402840002823D00820304000281FD09A
:101C5000206800680E218843216808600D484168AB
:101C60001C22206C1040012282401143094841602F
:101C70000120E06301212520015500BF002124201F
:101C8000015500BF606B002802D02046616B884779
:101C900070BD00000000024010B50446002C01D1C8
:101CA000012010BD2A4A2168881A1421FEF7E3FB9F
:101CB0008000206402212520015520680068254904
:101CC000084021680860E168A0680843216908436A
:101CD00061690843A1690843E1690843216A08432F
:101CE000216809680843216808602046FFF700F969
:101CF00001218903A068884201D100206060207919
:101D00008006800E616C0860A16CE06C48606068C1
:101D100000280CD06068042809D82046FFF702F993
:101D20000020216D0860616DA06D486003E0002017
:101D300020656065A0650020E06301212520015534
:101D400000BF00212420015500BF0020A9E70000AA
:101D5000080002400F80FFFFF8B504460D46164606
:101D60001F460020009000BF2420005D012801D103
:101D70000220F8BD01212420015500BF2520005D6F
:101D8000012844D10221252001550020E06320686C
:101D9000006840084000216808603B4632462946FA
:101DA0002046FFF7D3F8206B002806D02068006893
:101DB0000E210843216808600BE0206800680421B8
:101DC000884321680860206800680A210843216868
:101DD0000860606C0068012109040840002805D0F3
:101DE000606C006809120843616C0860206D00286F
:101DF00006D0206D0068FF2101310843216D086085
:101E000020680068012108432168086008E08020FC
:101E1000E06300BF00212420015500BF0120009095
:101E20000098A6E770B5044600F022FA064625465B
:101E3000681C002802D0054800782D1800BF00F06B
:101E400017FA801BA842FAD370BD0000880000205A
:101E5000F8B504460F4600BF23480078012801D199
:101E60000220F8BD01202049087000BF0020486012
:101E70007D20C000FFF700F90646002E2CD104207B
:101E800060602068042808D16068FFF797F87D201B
:101E9000C000FFF7F1F806461EE00020C04338609E
:101EA000A5680DE029466068FFF794F87D20C00022
:101EB000FFF7E2F80646002E01D03D6005E06D1CFC
:101EC000E168A0684018A842ECD800BF0748406904
:101ED000022188430549486100BF0020024908707B
:101EE00000BF3046BDE700002C0300200020024068
:101EF00010B501247D20C000FFF7BEF807484069F7
:101F0000E10708430549486108464069C00FC0071A
:101F1000002800D00024204610BD00000020024010
:101F2000F0B51FB4064614461D4600BF1848007899
:101F3000012802D1022005B0F0BD0120144908702B
:101F400000BF002048607D20C000FFF795F80746DD
:101F5000002F15D1012E05D122462B460198FFF7FF
:101F60004DF803E021460198FFF75CF87D20C000A2
:101F7000FFF782F8074607484069B04305494861C2
:101F800000BF00200249087000BF3846D3E70000B8
:101F90002C03002000200240002009494969C90F94
:101FA000C90700290BD00749054A9160064991608D
:101FB00011464969C90FC907002900D0012070479F
:101FC0000020024023016745AB89EFCD10B50446E0
:101FD000102C06D0202C08D0402C0AD0802C10D1F8
:101FE0000BE0002002F09EFE0CE0012002F09AFEC1
:101FF00008E0022002F096FE04E0032002F092FEC8
:1020000000E000BF00BF10BD10B504460A48C0681C
:102010002040002804D00848C460204600F00EF894
:10202000054800692040002804D003480461204688
:10203000FFF7CCFF10BD00000018024010B50446A9
:10204000102C06D0202C08D0402C0AD0802C10D187
:102050000BE0002002F026FF0CE0012002F022FF3E
:1020600008E0022002F01EFF04E0032002F01AFF45
:1020700000E000BF00BF10BD70B503460A46002156
:10208000D7E001268E4014683440002C73D01579B7
:10209000AD07AD0F012D04D01579AD07AD0F022DA1
:1020A00018D198684E000325B5400646AE43304629
:1020B0004E00D568B54028439860586801258D408A
:1020C0000646AE4330461026556835402D098D40F2
:1020D000284358601579AD07AD0F032D0BD0D86894
:1020E0004E000325B5400646AE4330464E00956887
:1020F000B5402843D8601579AD07AD0F022D15D135
:10210000CD08AE001D462035A8594D07EE0E0F250F
:10211000B5400646AE4330464E07F60E1569B5404B
:102120002843CD08AD001E462036705118684E0079
:102130000325B5400646AE4330461579AD07AD0FD1
:102140004E00B540284318600326360455683540D4
:10215000002D6DD03A4D8E08B600A8598D07EE0EB1
:102160000F25B5400646AE43304605252D07AB4248
:1021700002D1002510E05BE0324DAB4201D10125D8
:102180000AE0314DAB4201D1022505E02F4DAB42B3
:1021900001D1032500E005258E07F60EB540284342
:1021A000274D8E08B600A851254D603D286805468C
:1021B000A54328460126360555683540002D02D036
:1021C0000546254328461E4D603D28606868054643
:1021D000A54328460126760555683540002D02D0D6
:1021E000054625432846164D603D6860144D203550
:1021F00068680546A543284601267604556835409B
:10220000002D02D00546254328460D4D2035686037
:1022100028680546A54328460126360455683540FA
:10222000002D02D0054625432846054D203528605F
:10223000491C1568CD40002D00D022E770BD00007C
:10224000601802400004005000080050000C0050CC
:10225000024613690B40002B01D0012000E0002052
:102260007047002A01D0816100E081627047000060
:1022700001480068704700008000002070B50446E7
:10228000002C01D1012070BD184821680860184851
:10229000216808602168606848602168A0688860DB
:1022A000FFF7E6FF05460CE0FFF7E2FF401B312891
:1022B00007D92068C0684007400F002801D00320DC
:1022C000E1E72068C0684007400F0028ECD1206893
:1022D0000169E068814203D02168E068086102E09A
:1022E0000448216808600020CDE70000CCCC000045
:1022F00055550000AAAA0000014602480A6810606D
:1023000000207047AAAA0000034800680349097822
:1023100040180149086070478000002088000020B4
:1023200010B5002408480068FF2101310843064920
:102330000860032000F00AF8002801D0012401E021
:1023400000F034F8204610BD00200240F8B50446E5
:1023500000251348007800281ED0114801787D2000
:10236000C000FEF788F8074639460E480068FEF7B9
:1023700082F8064600F0D0FC00280BD1042C07D2CE
:1023800000222146401E00F045F80748046004E0A2
:10239000012502E0012500E001252846F8BD0000E6
:1023A000880000208C0000208400002008B500BFB9
:1023B0000E480068012108430C490860084600687F
:1023C000C007C00F009000BF00BF00BF07484038E3
:1023D000C06B8905084305494039C8630846C06B8E
:1023E00009040840009000BF00BF08BD4010024033
:1023F0000146002909DB00BF00BFCB06DB0E01222E
:102400009A40034B1A6000BF00BF00BF7047000036
:1024100000E100E070B504460D4616462946204608
:1024200003F060FC70BD000070B504461148006800
:1024300003214902884320430E490860481584421D
:1024400016D10D4909680622514308460B49FEF78B
:1024500012F8451C05E0002D01D06D1E01E003209F
:1024600070BD044840690121890208408842F2D0C9
:102470000020F5E7007000408C00002040420F0073
:1024800070B504460D46002C01D1012070BD6B488B
:1024900000684007400FA84218D268480068C0088A
:1024A000C000284365490860FFF7E2FE064607E0E2
:1024B000FFF7DEFE801B6249884201D90320E5E771
:1024C0005E4800684007400FA842F1D10221206811
:1024D0000840022815D1042120680840042807D1AB
:1024E0005848806807210903884340185549886087
:1024F000544880680F2109028843A1680843514964
:1025000088602078C007C00F002854D06068012878
:1025100008D14C48006801214904084000282ED108
:102520000120B3E76068022808D14648006801210D
:1025300049060840002822D10120A7E7606800284A
:1025400008D140480068012189020840002816D1BE
:1025500001209BE76068032808D13A484030006AB0
:102560000221084000280AD101208FE73548403079
:10257000C06902210840002801D1012086E73148C6
:102580008068C008C000616808432E498860FFF772
:102590006FFE064607E0FFF76BFE801B2849884266
:1025A00001D9032072E72748806838210840616814
:1025B000C9008842EFD1214800684007400FA84277
:1025C00018D91E480068C008C00028431B4908608D
:1025D000FFF74EFE064607E0FFF74AFE801B18494C
:1025E000884201D9032051E7144800684007400F92
:1025F000A842F1D1042120680840042808D11148DC
:102600008068072109038843E16808430D49886011
:1026100000F03AF80B4989680F2212021140090AAA
:102620008900094A515CC906C90EC84007490860BB
:1026300007480068FFF78AFE28E7000000200240F4
:102640008813000000100240386800088C00002049
:102650008400002001480068704700008C000020C2
:1026600000B5FFF7F7FF06498968072212031140FA
:10267000090B8900034A515CC906C90EC84000BD58
:102680000010024078680008FEB53548806838219F
:10269000084000280DD13248006809020840C10AEC
:1026A0000120884000902F480099FDF7E4FE044681
:1026B00054E02B48806838210840082801D12A4C72
:1026C0004CE02748806838210840102834D124483D
:1026D000C0688607B60F2248C0687021084000090C
:1026E000401C0190022E0FD0032E0CD11E480199E0
:1026F000FDF7C1FE1A49C9687F2212021140090A7A
:10270000484305460DE000BF16480199FDF7B3FEAA
:102710001349C9687F2212021140090A484305463D
:1027200000BF00BF0E48C068400F471C394628460E
:10273000FDF7A1FE044611E00948806838210840F1
:10274000202801D1840209E005488068382108402A
:10275000182802D17D24240200E000242046FEBD7A
:10276000001002400024F40000127A00FEB5044676
:10277000002C01D10120FEBD2078C007C00F002829
:102780006FD0F748876838210F40C0688607B60FBA
:10279000102F01D1032E01D0082F0BD1F048006873
:1027A00001214904084000285BD06068002858D106
:1027B0000120E0E700BF012109046068884205D1DB
:1027C000E74800680843E649086021E0052109045C
:1027D000606888420ED1E2480068012189040843FC
:1027E000DF49086008460068012109040843DC4904
:1027F00008600DE0DA480068012109048843D849DF
:10280000086008460068012189048843D4490860AB
:1028100000BF6068002812D0FFF72AFD054606E0D9
:10282000FFF726FD401B642801D90320A3E7CC480D
:1028300000680121490408400028F1D011E0FFF7A9
:1028400017FD054606E0FFF713FD401B642801D97C
:10285000032090E7C248006801214904084000288D
:10286000F1D1022120680840022873D1BC48806859
:10287000382108400746BA48C0688607B60F102FAF
:1028800001D1022E01D0002F36D1B54800680121B8
:1028900089020840002804D0E068002801D1012006
:1028A00069E7AF4840687F210902884361690902EE
:1028B0000843AB494860002F16D10846006807213D
:1028C000C902884321690843A54908600846006891
:1028D0000722D2021040C20A012090400146A148BE
:1028E000FDF7C9FDA0490860A0480068FFF72EFD6C
:1028F000002849D001203EE7E06800282BD0984806
:1029000000680721C9028843216908439449086087
:10291000084600688915084391490860FFF7A8FC3C
:10292000054606E0FFF7A4FC401B022801D903205E
:1029300021E78B4800680121890208400028F1D076
:10294000874840687F21090288436169090208437A
:102950008349486018E082480068FF2101318843BC
:102960007F490860FFF784FC054606E0FFF780FC1E
:10297000401B022801D90320FDE6794800680121A7
:10298000890208400028F1D1082120680840082861
:1029900049D1734880683821084018280BD1704805
:1029A0004030006A0221084000283CD0A06900287D
:1029B00039D10120DFE6A06900281AD068484030EC
:1029C000006A01210843664940310862FFF750FC64
:1029D000054606E0FFF74CFC401B022801D9032006
:1029E000C9E65F484030006A022108400028F1D063
:1029F00019E05B484030006A4008400058494031C7
:102A00000862FFF735FC054606E0FFF731FC401B86
:102A1000022801D90320AEE651484030006A022165
:102A200008400028F1D104212068084004287CD106
:102A3000002001904A4880683821084020280BD1A6
:102A400047484030C0690221084000286ED0A06885
:102A500000286BD101208EE64148C06B010F012098
:102A60008843002810D000BF3D48C06B01210907F2
:102A700008433B49C8630846C06B090408400090FE
:102A800000BF00BF0120019039480068FF210131DB
:102A90000840002816D136480068084334490860C9
:102AA000FFF7E6FB054606E0FFF7E2FB401B0228C6
:102AB00001D903205FE62E480068FF21013108405C
:102AC0000028F1D000BFA068012808D12448403078
:102AD000C0690121084322494031C86120E0A06853
:102AE00005280FD11E484030C069042108431C4905
:102AF0004031C8610846C069012108431849403186
:102B0000C8610DE016484030C069410849001448CA
:102B10004030C161C0690421884311494031C86116
:102B200000BFA068002816D001E040E03EE0FFF7BB
:102B30009FFB054607E0FFF79BFB401B0D498842C2
:102B400001D9032017E606484030C0690221084039
:102B50000028F0D01EE0FFF78BFB054614E00000D4
:102B6000001002400024F4008C00002084000020AB
:102B70000070004088130000FFF77AFB401B624999
:102B8000884201D90320F6E56048C0690221084067
:102B90000028F1D10198012808D15C484038C06B69
:102BA00001210907884359494039C86300BFE069DA
:102BB00000285AD0554840388068382108401028ED
:102BC0007AD0E069022851D150484038006801218C
:102BD000090688434D4940390860FFF749FB05461F
:102BE00006E0FFF745FB401B022801D90320C2E5A0
:102BF0004648403800680121490608400028F0D1C5
:102C0000616A206A0843A16A09020843E16A08432D
:102C1000216B08433D494039C9683D4A114008438A
:102C20003A494039C860084600680121090608434E
:102C30003649403908600846C068090408433349EA
:102C40004039C860FFF714FB054606E0FFF710FBAC
:102C5000401B022801D903208DE52C48403800682C
:102C60000121490608400028F0D04AE027484038B2
:102C70000068012109068843244940390860FFF7AC
:102C8000F7FA054606E0FFF7F3FA401B022801D9E0
:102C9000032070E51D4840380068012149060840BE
:102CA0000028F0D119484038C0681A49084017492F
:102CB0004039C86025E0FFE7E069012800D15AE506
:102CC00012484038C668B107890F206A814216D180
:102CD00070203040616A884211D17F20000230406C
:102CE000A16A090288420AD11F2040043040E16AEB
:102CF000884204D1710F4907206B814201D0012025
:102D000039E5002037E5000088130000401002403C
:102D10008C80C11FFCFFFEEF70B504462546681E7F
:102D20000949884201D901200CE0681E0749486121
:102D30000321081F02F0D6FF002004498861072004
:102D40000861002070BD0000FFFFFF0000E000E010
:102D500010B50346002200BF3C20C05C012801D111
:102D6000022010BD01243C20C45400BF100A000200
:102D7000CC6820430246104603242402A0438C68FA
:102D80002043024610460124A402A0434C6820437D
:102D9000024610460124E402A0430C682043024688
:102DA000104601242403A0430C6920430246104628
:102DB00001246403A0434C692043024610460124C9
:102DC000A403A0430C6B2043024610460F242404A6
:102DD000A0430C8B24042043024610460124240700
:102DE000A043CC6920430246144C1868A0421CD171
:102DF00010460F242405A0430C8D240520430246D1
:102E0000104601242406A0430C6A204302461046C3
:102E100001246406A0434C6A204302461046012464
:102E20006407A043CC6A204302461868426400BF8E
:102E300000243C20C45400BF002092E7002C014035
:102E400030B502460B4600BF3C20805C012801D112
:102E5000022030BD01253C20855400BF02253D20C5
:102E600085541068416810688468164D1068A8423F
:102E700006D10F252D050846A84301465868014391
:102E800070250846A8430146186801431068416050
:102E90000C4D1068A84203D00B4D1068A84207D112
:102EA00080252046A843044698680443106884603F
:102EB00001253D20855400BF00253C20855400BFDE
:102EC0000020C6E7002C01400004004010B5044675
:102ED000002C01D1012010BD3D20005D002805D14E
:102EE00000213C200155204600F026F802213D201B
:102EF0000155211D206801F015FD012148200155D3
:102F000000BF3E2001553F20015540200155412082
:102F10000155422001554320015500BF00BF442008
:102F2000015545200155462001554720015500BF58
:102F30003D2001550020CEE708B50A4A01689142BC
:102F40000FD100BF08490968012292041143064AC3
:102F5000116011460968012292041140009100BFDE
:102F600000BF08BD004801404010024001463D201E
:102F7000405C012801D00120704702233D204354CA
:102F80000F4B0868984203D00E4B086898420FD147
:102F9000086882680C4B1A40062A0FD0D81F82425C
:102FA0000CD008680068012318430B68186005E01E
:102FB00008680068012318430B6818600020DBE7ED
:102FC000002C0140000400400700010010B586B04D
:102FD0000446142101A8FDF74CFA114920688842E3
:102FE0001CD100BF0F48406B012108430D494863C5
:102FF0000846406BC007C00F009000BF00BF0F2005
:103000000002019002200290002003900490022010
:10301000059001A905200007FFF72EF806B010BDA6
:10302000002C014000100240F8B504460D4616463B
:10303000002700BF3C20005D012801D10220F8BD1F
:1030400001213C20015500BF0C2E54D006DC002E7F
:1030500009D0042E1ED0082E7ED135E0102E64D06B
:10306000142EF9D179E02946206801F0C1FC2068CE
:1030700080690821084321688861206880690421EB
:10308000884321688861206880692969084321682C
:1030900088617EE02946206801F0F8FC206880699C
:1030A0000121C902084321688861206880690121E3
:1030B000890288432168886120688069296909023A
:1030C00008432168886164E02946206801F034FDE6
:1030D0002068C069082108432168C8612068C06968
:1030E000042188432168C8612068C06929690843B0
:1030F0002168C8614DE02946206801F071FD206813
:10310000C0690121C90208432168C8612068C069FB
:103110000121890288432168C8612068C069296942
:10312000090208432168C86133E02946206801F09C
:1031300091FD2068406D082108432168486520689A
:10314000406D04218843216848652068406D2969E5
:103150000843216848651CE019E02946206801F011
:10316000ADFD2068406D0121C90208432168486512
:103170002068406D012189028843216848652068E4
:10318000406D2969090208432168486501E001276B
:1031900000BF00BF00BF00213C20015500BF3846E2
:1031A0004DE710B50446002C01D1012010BD3D2093
:1031B000005D002805D100213C200155204600F08B
:1031C00027F802213D200155211D206801F0AAFBAE
:1031D00001214820015500BF3E2001553F200155E7
:1031E0004020015541200155422001554320015501
:1031F00000BF00BF44200155452001554620015520
:103200004720015500BF3D2001550020CEE70000BA
:1032100008B5094A016891420DD100BF0749096804
:10322000D2141143054A116011460968D2141140A5
:10323000009100BF00BF08BD002C014040100240BB
:1032400070B504460D46002D02D13E20005D15E00C
:10325000042D02D13F20005D10E0082D02D1402056
:10326000005D0BE00C2D02D14120005D06E0102D29
:1032700002D14220005D01E04320005D012801D021
:10328000012070BD002D03D102213E2001551AE01E
:10329000042D03D102213F20015514E0082D03D154
:1032A0000221402001550EE00C2D03D102214120C6
:1032B000015508E0102D03D102214220015502E002
:1032C00002214320015501222946206801F07EFB9E
:1032D0001B492068884207D01A492068884203D0D9
:1032E00019492068884201D1012000E0002000280F
:1032F00006D02068406C0121C90308432168486456
:103300000F492068884203D01049206888420FD1B5
:10331000206886680E490E40062E0FD0C81F8642D0
:103320000CD020680068012108432168086005E08E
:103330002068006801210843216808600020A0E798
:10334000002C0140004401400048014000040040BE
:1033500007000100F8B504460D46164600278C20EC
:103360000059202836D1002D01D0002E01D1012096
:10337000F8BD01210903A068884208D1206900280E
:1033800005D1E807C00F002801D00120F0E7012097
:10339000E0660020206732462946204602F062FBA4
:1033A000E06E012813D110202168086200BF02F0EE
:1033B000D8FC0090012002F0DAFC2068006810219F
:1033C000084321680860009802F0D1FC00E0012762
:1033D0003846CDE70220CBE770B505460C460749D5
:1033E0002868884209D101200549087005490C70F8
:1033F000402205490548FFF7ADFF70BD004400407D
:103400006D0000206C00002058020020980200206F
:10341000704770477047000010B50446094920689E
:1034200088420DD19020005908210840002807D07B
:10343000082021680862402203490448FFF78AFFF8
:1034400010BD0000004400405802002098020020F7
:10345000F0B585B004462068C56920680668206814
:103460008768FE48284003900398002814D1202044
:103470002840002810D020203040002804D101200E
:1034800000073840002807D0606F002802D020468F
:10349000616F884705B0F0BD039800287ED0F048E2
:1034A0003840002803D1EF4830400028F6D0E80724
:1034B000C00F00280DD0FF2001303040002808D078
:1034C00001202168086290200059012108439021C1
:1034D00008510220284000280CD0F807C00F00280F
:1034E00008D0022021680862902000590421084376
:1034F000902108510420284000280CD0F807C00F64
:10350000002808D004202168086290200059022178
:1035100008439021085108202840002810D020207E
:103520003040002803D1CE483840002808D0082079
:103530002168086290200059082108439021085111
:103540000120C002284000280ED001208006304013
:10355000002809D00120C00221680862902000598B
:1035600020210843902108519020005900285ED066
:103570002020284000280ED020203040002804D1F0
:10358000012000073840002805D0606F002802D0D5
:103590002046616F88479020005900E048E0029083
:1035A0002068806840210840402804D028210298E3
:1035B0000840002835D0204601F094FD206880683E
:1035C00040210840402828D100BF02F0C7FB0190ED
:1035D000012002F0C9FB20688068402188432168EF
:1035E0008860019802F0C0FB00BF802000590028CD
:1035F0000FD09D4980200059816380210859FEF732
:1036000071FA002813D0802210591259916B884703
:103610000DE02046FFF700FF09E02046FFF7FCFE23
:1036200005E02046FFF7F8FE00219020015131E728
:10363000E06E01287ED11020284000287AD010208A
:1036400030400028FAD01020216808622068806885
:103650004021084040286ED1802000590068406811
:1036600080B20190019800286DD05C20015B019828
:10367000814268DD5E21019808538020005900686E
:1036800000682021084000284DD100BF02F066FBF1
:103690000090012002F068FB20680068FF210131E2
:1036A000884321680860009802F05EFB00BF00BFFD
:1036B00002F054FB0090012002F056FB2068806865
:1036C0004008400021688860009802F04DFB00BF70
:1036D00000BF02F043FB0090012002F045FB206890
:1036E00080684021884321688860009802F03CFB94
:1036F00000BF20218C2001510020E06600BF02F0B5
:103700002DFB0090012002F02FFB206800681021A3
:10371000884321680860009802F026FB00BF8021E2
:103720000859FEF793F9022020675C20025B5E20B7
:10373000005B02E06CE01BE005E0101A81B220465D
:10374000FFF74AFE13E05C20015B019881420ED135
:10375000802000590068006820210840202806D1F8
:10376000022020675C20015B2046FFF735FE91E6D2
:103770005C20015B5E20005B081A80B201905E2035
:10378000005B002843D00198002840D000BF02F021
:10379000E5FA0090012002F0E7FA20680068FF21B6
:1037A0002131884321680860009802F0DDFA00BFEB
:1037B00000BF02F0D3FA0090012002F0D5FA206891
:1037C00080682749C943084021688860009802F052
:1037D000CBFA00BF20218C2001510020E0666067F9
:1037E00000BF02F0BBFA0090012002F0BDFA206891
:1037F00000681021884321680860009802F0B4FA3C
:1038000000BF0220206720460199FFF7E5FD41E651
:1038100001200005284000280CD0012080053840F8
:10382000002807D001200005216808622046FFF724
:10383000F1FD2FE680202840002817D0802030405E
:10384000002804D10120C005384000280ED0A06F08
:10385000002802D02046A16F88471BE60F08000011
:103860000100001020010004D5500008402028402D
:10387000002807D040203040002803D0204601F027
:1038800073FC07E60120C0052840002808D001206D
:1038900080073040002803D02046FFF7BAFDF9E545
:1038A000012000062840002807D0F00FC00700289C
:1038B00003D02046FFF7ACFDECE500BFEAE510B50C
:1038C0000446002C01D1012010BDA069002800D0C1
:1038D00000E000BF88200059002805D10021842085
:1038E0000155204600F02CF8242188200151206841
:1038F00000684008400021680860A06A002802D0E3
:10390000204601F0EDFA204601F0BAFF012800D16F
:10391000DAE7206840680921C902884321684860C5
:10392000206880682A2188432168886020680068B0
:103930000121084321680860204601F049FBC3E7E4
:1039400010B586B00446142101A8FCF792FD1D496C
:103950002068884233D100BF1B48C06B0121490455
:1039600008431949C8630846C06B0121490408404F
:10397000009000BF00BF00BF1348406B0121084307
:10398000114948630846406BC007C00F009000BF54
:1039900000BF0C20019002200290002003900490B0
:1039A0000120059001A905200007FEF765FB002214
:1039B00011461C20FEF72EFD1C20FEF719FD06B057
:1039C00010BD000000440040001002407047FFB5E9
:1039D00083B004460D46174688200059202877D129
:1039E000002D01D0002F02D1012007B0F0BD012130
:1039F0000903A068884208D12069002805D1E8079A
:103A0000C00F002801D00120EFE7002190200151D4
:103A1000212188200151FEF72BFC019054200753EF
:103A20005620075301210903A068884205D1206967
:103A3000002802D10026029502E02E4600200290C6
:103A40002DE006980090002280212046019B02F084
:103A5000D9F8002804D02021882001510320C4E790
:103A6000002E09D102980088C005C00D2168886227
:103A70000298801C029003E0307821688862761CEE
:103A80008820005921210840212806D15620005BBA
:103A9000401E81B25620015301E00120A5E75620C7
:103AA000005B0028CDD106980090002240212046DE
:103AB000019B02F0A7F8002805D0202188200151A1
:103AC000032092E704E020218820015100208CE7A8
:103AD00002208AE7704700BFFEE700008168024AC3
:103AE0001140891C81607047E8FFFF7F8168024AAE
:103AF0001140491C81607047E8FFFF7F014608685C
:103B00000722920510407047014688680222104043
:103B10004008704701468868C007C00F0122504026
:103B20005040704701468868C007C00F01225040CE
:103B30005040704701468868012212071040000F6C
:103B4000704701468868042210408008704701468B
:103B5000C868032292021040002801D1012070475A
:103B60000020FCE78168024A1140091D816070470E
:103B7000E8FFFF7F026807239B059A430A43026020
:103B8000704730B5436904240D4625400724AC40F6
:103B9000A34304240C401546A5402B43436130BD8C
:103BA0000EB5002000900190029023482349086040
:103BB00040054860002121488160C160012149051C
:103BC0000161042141610021017641760121817664
:103BD0000221C16100214162816201212430017210
:103BE00000212438016305214163816300212430D1
:103BF00001762438C164FDF719FD002801D0FDF7D6
:103C0000D9F90120009000200190029069460B48EC
:103C1000FDF756FB002801D0FDF7CCF908480090CD
:103C20000420019069460548FDF74AFB002801D0B1
:103C3000FDF7C0F90EBD000000240140F000002097
:103C4000002000B408B500BF0A48806B012108437A
:103C5000084988630846806BC007C00F009000BF0A
:103C600000BF002211460920FEF7D4FB0920FEF711
:103C7000BFFB08BD0010024000B587B0142102A8A8
:103C8000FCF7F7FB00BF4248406B01210843404965
:103C900048630846406BC007C00F019000BF00BFDB
:103CA00000BF0846406B0221084339494863084673
:103CB000406B02210840019000BF00BF00BF3448A4
:103CC000406B08210843324948630846406B08218D
:103CD0000840019000BF00BF0122032149032D4885
:103CE000FEF7BFFA00220F212B48FEF7BAFAF020A8
:103CF00002903120000403900020049002A90520C6
:103D00000007FEF7B9F92548029000200390012032
:103D100004900320059002A91E48FEF7ADF901208A
:103D2000400302900120039000200490059002A916
:103D30001848FEF7A1F9012080030290112003909A
:103D400000200490059002A91248FEF795F90F2073
:103D500002900120039000200490059002A90E48D3
:103D6000FEF78AF940200290002003900120049081
:103D70000320059002A90748FEF77EF900221146AC
:103D80000720FEF747FB0720FEF732FB07B000BD18
:103D90000010024000040050000C0050381C0000CD
:103DA00010B50848084908600020486007490648DF
:103DB000C1608160FEF762FA002801D0FDF7FAF8D1
:103DC00010BD000000300040B0010020FF0F0000D7
:103DD00010B50C480C4908600020486000210A48D2
:103DE00081600A49C16000210161416180218161D6
:103DF000FFF76CF8002801D0FDF7DCF80248FFF768
:103E0000B5F810BD004801400C020020FFFF000083
:103E100000B597B000201490159016901C210DA8A5
:103E2000FCF727FB34216846FCF723FB3748384969
:103E30000860002048600021354881607F21C16012
:103E40000021016141618161FFF7ABF9002801D0D8
:103E5000FDF7B0F8002014901590169014A92C4886
:103E6000FEF7EEFF002801D0FDF7A4F860200D90CA
:103E700000200E900F90109011901290139000223D
:103E80000DA92348FFF7D0F8002801D0FDF792F8DC
:103E90006E200E9004220DA91D48FFF7C5F80028DA
:103EA00001D0FDF787F808220DA91948FFF7BCF8E3
:103EB000002801D0FDF77EF80C220DA91448FFF769
:103EC000B3F8002801D0FDF775F8002000900190AC
:103ED000029003900490012040030590002006907A
:103EE0000790089001204006099000200A900B904E
:103EF0000C9069460648FEF72BFF002801D0FDF71D
:103F000059F80348FFF762F817B000BD002C0140D4
:103F1000C001002010B50E480E490860E1204002A3
:103F2000486000210B488160C16001610C21416142
:103F300000218161C16101624162002005498862FE
:103F40000846FFF7BCFC002801D0FDF733F810BD90
:103F5000004400409802002000BFFEE710B5094C65
:103F600009496069884205D1182221460748FCF7B3
:103F700005F906E0182206490448FCF7FFF800F0AE
:103F800017F810BD00F800082144454C0800002037
:103F9000E0670008012003490870034800680349EE
:103FA00008607047200000206800002024000020E6
:103FB000F0B587B072B6FDF7EFFF02202349086025
:103FC0002348FDF799F8214988600120C860042042
:103FD00048600020059000BF00BF05A91B48FDF701
:103FE00037FF0446002C0CD01A4800691A490860B3
:103FF0000846016819A0FCF7FBF8FDF779FF07B048
:10400000F0BD1CA0FCF7F4F81F4E114F03200490E4
:10401000002512E0E800301803C803910290E80080
:10402000C01901900B4601460120029AFDF778FF66
:104030000446002C00D003E06D1C04988542E9D3AF
:1040400000BFFDF755FF62B600BFD8E79000002023
:1040500000F80008002002400400002048414C5FA6
:10406000464C4153485F4765744572726F723A20FF
:1040700025640A00E693A6E999A4E68890E58A9F5C
:10408000303030300D0A00000800002010B50A481A
:104090000078002800D110BD084800680849096868
:1040A000401A0849884204D3002003490870FFF7EA
:1040B0007FFF00BFEFE70000200000206800002025
:1040C000240000208813000070470000F0B58DB078
:1040D00000200690F8480078002803D1F7480078BF
:1040E000002801D10DB0F0BDF4480078532878D1F4
:1040F000F24840784C28FAD1F048807856287CD194
:10410000EE48C0783038C4B2012C35DB042C33DCE7
:10411000EA480079303864214143E8484079303832
:104120000A2250430918E54880793038081885B2CA
:104130007F2D1DD8601E4000E1490D52611EC8B29E
:10414000294600F055FB2346DEA2182107A8FCF7FC
:104150005DF807A801F084FBFFF71CFF631E5B00FE
:10416000D74EF25A631ED9B2D8B2FCF717FE02E05E
:10417000D6A001F075FB3CE0002C37D101270025CB
:1041800024E068002818001DCC49085C3038642100
:10419000414368002818401DC84A105C30380A2284
:1041A0005043091868002818801DC44A105C303834
:1041B000081886B27F2E01D9002709E06800C0499F
:1041C0000E52E8B2314600F013FB6D1C042DD8DB13
:1041D00000BF002F06D0BFA001F042FBFFF7DAFEC0
:1041E00003E00AE0B9A001F03BFB02E0B7A001F058
:1041F00037FB0020B149087074E7B04800785228B6
:104200004CD1AE4840784C2848D1AC4880785628EC
:1042100044D1AA48C0783038C5B2012D14DB042D32
:1042200012DC681E4000A64A115A05A801F0ECFFF6
:1042300005A82B46A9A21821009007A8FBF7E6FFC6
:1042400007A801F00DFB25E0002D20D16C460422CB
:10425000A5A12046FCF7AEF8241D00260CE0700056
:10426000974A115A05A801F0CFFF032205A920465D
:10427000FCF7A0F8E41C761C042EF0DB2320207051
:10428000641C00202070684601F0EAFA02E098A061
:1042900001F0E6FA00208949087023E78748007892
:1042A00053286ED1854840784D28FAD183488078CC
:1042B0003038C4B2022C77DC8148047423468EA2C5
:1042C000182107A8FBF7A2FF07A801F0C9FAFFF71A
:1042D00061FE7B48007C00280FD1012100F0AEFA7E
:1042E0000121084600F0AAFA0121022000F0A6FAF6
:1042F0000121032000F0A2FA59E07148007C012856
:1043000040D1102105200007FDF7A2FF002803D1AE
:10431000012100F093FA03E00021084600F08EFA34
:10432000202105200007FDF793FF002804D101217B
:10433000084600F083FA03E00021012000F07EFA35
:10434000402105200007FDF783FF002804D101214B
:10435000022000F073FA03E00021022000F06EFA60
:10436000802105200007FDF773FF002804D10121FB
:10437000032000F063FA1AE00021032000F05EFA47
:1043800015E018E00021084600F058FA002101204D
:1043900000F054FA0021022000F050FA002103201E
:1043A00000F04CFA03E0FFE748A001F059FA0020C2
:1043B0004249087096E641480078522811D13F489A
:1043C00040784D280DD13E48037C4DA2182107A806
:1043D000FBF71CFF07A801F043FA002037490870DB
:1043E00080E636480078542865D134484078522811
:1043F000FAD1324880784928F6D13048C078303830
:10440000C4B2012C35DB042C33DC2C480079303865
:10441000642141432948407930380A225043091821
:10442000264880793038081885B2012D0DD1601EDC
:10443000012100F003FA234633A2182107A8FBF755
:10444000E5FE07A801F00CFA12E0002D0DD1601E68
:10445000002100F0F3F923462BA2182107A8FBF74F
:10446000D5FE07A801F0FCF902E029A001F0F8F957
:104470006EE0002C68D101271048007930386421A3
:1044800041430E48407930380A22504309180B48FE
:1044900080793038081886B2012E41D1002504E019
:1044A0000121284600F0CAF96D1C042DF8DB1AA082
:1044B00001F0D6F947E04FE07800002058020020D4
:1044C00008000020534C56256423000045525253E7
:1044D0004C562300534C563023000000524C5625B6
:1044E0006425732300000000524C56300000000089
:1044F000455252524C562300534D25642300000070
:10450000524D2564230000005452492564230000C5
:10451000455252545249230054524930230000005E
:10452000002E0CD1002504E00021284600F086F979
:104530006D1C042DF8DB764801F092F903E0744815
:10454000083801F08DF903E07148083801F088F966
:10455000002070490870C5E56E480078532872D174
:104560006C48407850287CD16A488078572878D1A8
:104570006848C0783038C4B2012C32DB042C30DCFF
:1045800064480079303864214143624840793038CA
:104590000A22504309185F4880793038081885B2DC
:1045A0005D48854218DC601E41005C484552234648
:1045B0005BA2182107A8FBF729FE07A801F050F914
:1045C000FFF7E8FC601E43005448C25A601EC1B2A7
:1045D0000520FCF7E3FB03E04D484C3801F040F9BF
:1045E0003BE0002C35D10125002021E0420082185B
:1045F000121D484B9A5C303A6423534342008218A0
:10460000521D444EB25C303A0A2672439B18420057
:104610008218921D3F4EB25C303A9A1891B23E4ACF
:10462000914201DD002505E043003C4AD152401C87
:104630000428DBDB00BF002D06D03BA001F010F901
:10464000FFF7A8FC04E00CE031484C3801F008F911
:1046500003E02F484C3801F003F900202D49087081
:1046600040E52C48007852284DD12A4840785028FF
:1046700049D128488078572845D12648C078303815
:10468000C5B2012D14DB042D12DC681E4200234844
:10469000815A05A801F0B8FD05A82B4624A21821CF
:1046A000009007A8FBF7B2FD07A801F0D9F826E0B3
:1046B000002D20D16C46042220A12046FBF77AFE73
:1046C000241D00260CE072001448815A05A801F050
:1046D0009BFD032205A92046FBF76CFEE41C761C1B
:1046E000042EF0DB23202070641C0020207068461C
:1046F00001F0B6F803E00648283801F0B1F80020D0
:1047000004490870EEE400200249087000BFE9E4A3
:104710001845000858020020E703000010000020A0
:104720005350572564230000535057302300000096
:104730005250572564257323000000005250573013
:104740000000000010B5012251030248FDF789FD69
:1047500010BD00000004005010B5002201214903E3
:104760000148FDF77EFD10BD0004005010B5012288
:1047700091030248FDF775FD10BD000000040050D4
:1047800000B585B014216846FBF773FE0120800355
:104790000090002001900120029069460248FDF738
:1047A0006BFC05B000BD00000004005010B50022F5
:1047B000012189030148FDF754FD10BD000400509C
:1047C00000B585B014216846FBF753FE0120800335
:1047D0000090112001900220039069460248FDF7E5
:1047E0004BFC05B000BD0000000400507047000005
:1047F0000246032A01DC7F2900D970470846002AB7
:1048000006D0012A08D0022A0AD0032A10D10BE0D0
:10481000094B1B6858630BE0074B1B68986307E064
:10482000054B1B68D86303E0034B1B68186400BF8B
:1048300000BF00BFE1E70000C001002030B50A461C
:10484000032800D930BD830001219940002A14D0EB
:104850000D4C246A0C430C4D2C620B4C40346468A4
:104860000125ED032C43084D40356C60064C24684F
:1048700001252C43044D2C6004E0034C246A8C4336
:10488000014D2C6200BFDDE7002C014010B5FDF7A3
:104890003BFD03480068401C0149086010BD000052
:1048A0006800002000B591B0342104A8FBF7E1FDB9
:1048B0000020009001900290039001204002FDF73B
:1048C000B3FD0A200490FF200130079000200890DB
:1048D0004020099001200A9002200B9002210C91A7
:1048E00000210D9108210E9101040F9101071091F3
:1048F00004A8FDF73BFF002801D0FCF75BFB072075
:10490000009002200190002002900390022168464E
:10491000FDF7B6FD002801D0FCF74CFB11B000BD3F
:104920007047000010B50268234B984202D0234B19
:10493000984205D170241346A3431A464B681A4384
:104940001D4B98420BD01D4B984208D01C4B9842EF
:1049500005D01C4B984202D01B4B984206D1032431
:1049600024021346A3431A46CB681A4380241346F5
:10497000A3434C6923431A468B68C3620B68836266
:104980000D4B984205D00F4B984202D00E4B9842E7
:1049900001D10B69036303680424234303600123EB
:1049A000436100BF00BF00BFBFF34F8F00BF00BF18
:1049B00000BF026010BD0000002C01400004004058
:1049C00000200040004401400048014070B5CD0681
:1049D000ED0E0124AC402346046A9C430462046A41
:1049E000CE06F60E1546B5402C43046270BD00009D
:1049F00070B5036A056A6D086D00056242688469D6
:104A00001E4D2C40A408A4000D682C4302261D4610
:104A1000B5432B468D682B43194DA84200D107E0C2
:104A2000184DA84200D103E0174DA8420AD100BF9B
:104A3000056A0426B543056208261D46B5432B4684
:104A4000CD682B430E4DA84205D00E4DA84202D092
:104A50000D4DA8420CD1FF2601361546B5432A4616
:104A600076001546B5432A464D692A438D692A4387
:104A7000426084614D684563036270BD8FFFFEFF35
:104A8000002C0140004401400048014070B5026A1A
:104A9000056A1026B543056243688469224D2C409F
:104AA000032636022546B5432C460D682D022C43BD
:104AB00020261546B5432A468D682D012A431B4DF5
:104AC000A84200D107E01A4DA84200D100BF194DFD
:104AD000A8420BD10AE0056A4026B543056280264C
:104AE0001546B5432A46CD682D012A430F4DA842ED
:104AF00005D00F4DA84202D00E4DA8420ED101267E
:104B0000B6021D46B5432B4676001D46B5432B46DF
:104B10004D69AD002B438D69AD002B43436084612B
:104B20004D688563026270BDFF8FFFFE002C01405F
:104B3000004401400048014070B5036A056AFF2641
:104B40000136B54305624268C469214D2C40A40872
:104B5000A4000D682C4376001D46B5432B468D6896
:104B60002D022B431B4DA84200D107E01A4DA8424D
:104B700000D100BF194DA8420CD10BE0056A0126F7
:104B8000B602B543056276001D46B5432B46CD6897
:104B90002D022B430F4DA84205D00F4DA84202D045
:104BA0000E4DA8420ED1012636031546B5432A46BE
:104BB00076001546B5432A464D692D012A438D6975
:104BC0002D012A434260C4614D68C563036270BD14
:104BD0008FFFFEFF002C01400044014000480140CF
:104BE00070B5036A056A01263603B5430562446859
:104BF000C269144D2A40032636021546B5432A469B
:104C00000D682D022A43012676031D46B5432B4627
:104C10008D682D032B430C4DA84205D00B4DA842A7
:104C200002D00B4DA84207D10126B6032546B54355
:104C30002C464D69AD012C434460C2614D6805644A
:104C4000036270BDFF8FFFFE002C01400044014055
:104C50000048014070B5026A056A01263604B54372
:104C600005624368446D114D2C400D682C4376005D
:104C70001546B5432A460D892D042A430C4DA842FA
:104C800005D00C4DA84202D00B4DA84207D10126F9
:104C900036041D46B5432B464D692D022B43436018
:104CA00044654D688565026270BD00008FFFFEFFA0
:104CB000002C0140004401400048014070B5026AE8
:104CC000056A01263605B54305624368446D114DFA
:104CD0002C400D682D022C4376001546B5432A461C
:104CE0000D892D052A430C4DA84205D00B4DA84235
:104CF00002D00B4DA84207D10126B6041D46B5438C
:104D00002B464D69AD022B43436044654D68C56534
:104D1000026270BDFF8FFFFE002C01400044014085
:104D20000048014070B504461948057C042C00DB9E
:104D300070BD002D00D1FBE7012D13D1204601F0FD
:104D400025FC0646314605200007FDF781FA0028BC
:104D500004D101212046FFF771FD03E00021204628
:104D6000FFF76CFD022D10D10A48005D002800D02D
:104D7000DEE701212046FFF761FD07480068A1003A
:104D8000064A505001200349085500BFD0E70000F3
:104D9000080000202900002068000020A00000205A
:104DA0000F48007C01280BD1002006E000210D4AAD
:104DB000115401210C4A1154401C0428F6DB0EE06A
:104DC0000748007C02280AD1002006E00121054A9C
:104DD00011540021044A1154401C0428F6DB70478A
:104DE00008000020290000202D00002070B5284870
:104DF000057C002D14D127480078002845D10024D7
:104E000008E001212046FFF719FD0020224908553E
:104E1000601CC4B2042CF4DB01201E49087070BD74
:104E2000022D2DD1002425E0610019480830465A92
:104E30001948005D00281BD0002E06D10021204615
:104E4000FFF7FCFC00201449085501212046FFF71C
:104E5000F5FCA0001149085811490968081AB04228
:104E600006D300212046FFF7E9FC00200A49085537
:104E7000601CC4B2042CD7DB00200649087004E093
:104E8000012D02D100200349087000BFC7E70000D0
:104E9000080000202800002029000020A000002099
:104EA0006800002070B504460C48007C012813D12E
:104EB000204601F06BFB0546294605200007FDF75B
:104EC000C7F9012804D101212046FFF7B7FC03E010
:104ED00000212046FFF7B2FC70BD00000800002052
:104EE0000822816A1140082907D101684968120324
:104EF0009143826B114302685160018DC907C90F4C
:104F0000002908D001684968012252049143C26A0D
:104F10001143026851600222816A1140022907D1BF
:104F200001684968D2039143026B114302685160E2
:104F30000422816A1140042907D1016849681204DA
:104F40009143426B1143026851601022816A114003
:104F5000102907D10168896812029143C26B11437D
:104F6000026891602022816A1140202907D10168DE
:104F7000896812029143026C1143026891604022D9
:104F8000816A1140402915D1016849689203914313
:104F9000426C11430268516001221205416C91423A
:104FA00008D101684968032252059143826C11437C
:104FB000026851608022816A1140802907D101680E
:104FC000496812039143C26C1143026851607047F3
:104FD000F8B50446002190200151FDF749F9054636
:104FE0002068006808210840082824D138482B464A
:104FF000002289040090204600F004FE00281AD008
:1050000000BF00F0ABFE0646012000F0ADFE2068B8
:1050100000688021884321680860304600F0A4FEC3
:1050200000BF20218820015100BF002184200155AC
:1050300000BF0320F8BD2068006804210840042850
:1050400036D123482B46002209050090204600F067
:10505000D9FD00282CD000BF00F080FE06460120BC
:1050600000F082FE20680068FF212131884321681A
:105070000860304600F078FE00BF00BF00F06EFE12
:105080000646012000F070FE20688068400840005D
:1050900021688860304600F067FE00BF20218C2028
:1050A000015100BF00218420015500BF0320C1E74A
:1050B0002021882001518C2001510020E0662067CA
:1050C00000BF00218420015500BF0020B2E700008E
:1050D000FFFFFF0170B50446A56A2846FEF79CF95C
:1050E00070BD000070B5044600BF00F037FE0546F5
:1050F000012000F039FE20680068FF21213188433B
:1051000021680860284600F02FFE00BF00BF00F0B5
:1051100025FE0546012000F027FE20688068114921
:10512000084021688860284600F01EFE00BFE06E3F
:10513000012810D100BF00F011FE0546012000F04B
:1051400013FE206800681021884321680860284603
:1051500000F00AFE00BF20218C2001510020E066F3
:10516000606770BDFEFFFFEF70B5044600BF00F042
:10517000F5FD0546012000F0F7FD2068006840219C
:10518000884321680860284600F0EEFD00BF20211A
:10519000882001510020A0672046FEF79BFC70BDCF
:1051A000F8B504466020075B8C20005922287ED188
:1051B0002068406A86B2A56D304638402880A06DD0
:1051C000801CA0655E20005B401E81B25E20015302
:1051D000005B002871D100BF00F0C0FD00900120ED
:1051E00000F0C2FD20680068FF212131884321685A
:1051F0000860009800F0B8FD00BF00BF00F0AEFDF1
:105200000090012000F0B0FD206880684008400058
:1052100021688860009800F0A7FD00BF20218C2045
:1052200001510020606720672068406889040840B9
:10523000002811D000BF00F091FD0090012000F087
:1052400093FD206800680121890688432168086071
:10525000009800F089FD00BFE06E012823D10020F6
:10526000E06600BF00F07AFD0090012000F07CFDB8
:10527000206800681021884321680860009800F0C9
:1052800073FD00BF2068C069102108400009002894
:1052900002D01020216808625C20015B2046FEF7E6
:1052A0009BF80AE003E02046FEF790FB05E020684B
:1052B00080690821084321688861F8BDF0B587B08E
:1052C00004466020005B06902068C569206800687D
:1052D00003902068806802908C20005922287DD19C
:1052E0006820005B0490C9E02068406A80B20590A5
:1052F000A76D0699059808403880A06D801CA065B0
:105300005E20005B401E81B25E2001532068C569AB
:105310006807400F002840D0E807C00F00280ED0D3
:10532000FF21013103980840002808D0012021689E
:105330000862902000590121084390210851022061
:10534000284000280DD00298C007C00F002808D0C0
:10535000022021680862902000590421084390210E
:1053600008510420284000280DD00298C007C00F23
:10537000002808D0042021680862902000590221EA
:1053800008439021085190200059002805D020465C
:10539000FEF742F80021902001515E20005B0028BA
:1053A0006CD100BF00F0DAFC0190012000F0DCFCC1
:1053B00020680068FF210131884321680860019856
:1053C00000F0D2FC00BF00BF00F0C8FC019001203B
:1053D00000F0CAFC20688068474900E084E008408B
:1053E00021688860019800F0BFFC00BF20218C205C
:1053F00001510020606720672068406889040840E8
:10540000002811D000BF00F0A9FC0190012000F09D
:10541000ABFC206800680121890688432168086088
:10542000019800F0A1FC00BFE06E012822D100200D
:10543000E06600BF00F092FC0190012000F094FCB7
:10544000206800681021884321680860019800F0F6
:105450008BFC00BF2068C0691021084000090028AB
:1054600002D01020216808625C20015B2046FDF715
:10547000B3FF02E02046FEF7A9FA07E004980028EF
:1054800004D020202840002800D02DE700BF5E2057
:10549000065B002E2ED06820005BB0422ADD00BFE4
:1054A00000F05CFC0190012000F05EFC2068806848
:1054B00001210907884321688860019800F054FCA5
:1054C00000BF0E48606700BF00F048FC019001205B
:1054D00000F04AFC20680068202108432168086029
:1054E000019800F041FC05E020688069082108432C
:1054F0002168886107B0F0BDFEFFFFEFA1510008F1
:10550000F8B504466020065B8C20005922287ED125
:105510002068406A85B2F0B22840A16D0870A06D85
:10552000401CA0655E20005B401E81B25E200153DE
:10553000005B002871D100BF00F010FC074601207D
:1055400000F012FC20680068FF21213188432168A7
:105550000860384600F008FC00BF00BF00F0FEFB0A
:105560000746012000F000FC2068806840084000E9
:1055700021688860384600F0F7FB00BF20218C20AE
:105580000151002060672067206840688904084056
:10559000002811D000BF00F0E1FB0746012000F019
:1055A000E3FB2068006801218906884321680860C0
:1055B000384600F0D9FB00BFE06E012823D100205F
:1055C000E06600BF00F0CAFB0746012000F0CCFBFC
:1055D000206800681021884321680860384600F080
:1055E000C3FB00BF2068C0691021084000090028E3
:1055F00002D01020216808625C20015B2046FDF784
:10560000EBFE0AE003E02046FEF7E0F905E0206843
:1056100080690821084321688861F8BDF0B585B02C
:1056200004466020005B04902068C569206800681B
:1056300002902068806801908C20005922287DD13A
:105640006820005B0390C8E02068406A87B2049835
:10565000C0B23840A16D0870A06D401CA0655E20EE
:10566000005B401E81B25E2001532068C569680757
:10567000400F002840D0E807C00F00280ED0FF21BF
:10568000013102980840002808D0012021680862F2
:105690009020005901210843902108510220284000
:1056A00000280DD00198C007C00F002808D00220A4
:1056B0002168086290200059042108439021085174
:1056C0000420284000280DD00198C007C00F0028F2
:1056D00008D0042021680862902000590221084364
:1056E0009021085190200059002805D02046FDF750
:1056F00093FE0021902001515E20005B00286CD1B8
:1057000000BF00F02BFB0090012000F02DFB206873
:105710000068FF210131884321680860009800F08B
:1057200023FB00BF00BF00F019FB0090012000F038
:105730001BFB206880684849084000E083E021683E
:105740008860009800F010FB00BF20218C200151E0
:1057500000206067206720684068890408400028AE
:1057600011D000BF00F0FAFA0090012000F0FCFA1E
:105770002068006801218906884321680860009834
:1057800000F0F2FA00BFE06E012822D10020E066AE
:1057900000BF00F0E3FA0090012000F0E5FA206875
:1057A00000681021884321680860009800F0DCFA46
:1057B00000BF2068C069102108400009002802D0FD
:1057C0001020216808625C20015B2046FDF704FE82
:1057D00002E02046FEF7FAF807E00398002804D01C
:1057E00020202840002800D02EE700BF5E20065B66
:1057F000002E2ED06820005BB0422ADD00BF00F0F2
:10580000ADFA0090012000F0AFFA20688068012115
:105810000907884321688860009800F0A5FA00BF56
:105820000E48606700BF00F099FA0090012000F078
:105830009BFA2068006820210843216808600098CE
:1058400000F092FA05E02068806908210843216889
:10585000886105B0F0BD0000FEFFFFEF01550008B4
:1058600070B504462046FAF783FD85B264232A46C4
:1058700021460248FEF7ABF870BD000098020020F8
:10588000F0B585B00446002001902169A068084366
:1058900061690843E1690843039020680068694929
:1058A0000840039908432168086020684068032184
:1058B00009038843E168084321684860A0690390B0
:1058C000206A039908430390206880685E49084075
:1058D00003990843216888602068C06A00090001B4
:1058E000616A08432168C86200BF5849206888423D
:1058F00017D1574840698007800F002806D001283B
:1059000008D0022804D0032808D105E0002707E0CA
:10591000022705E0042703E0082701E0102700BF65
:1059200006E04C492068884201D1002700E010279A
:1059300000BF0121C903E069884241D1002F06D090
:10594000022F08D0042F08D0082F0DD109E0FCF752
:1059500087FE05460CE0404D0AE0FCF795FE054643
:1059600006E00125ED0303E000250120019000BFC2
:1059700000BF002D5BD0606A4000384A115A2846AB
:10598000FAF779FD400061684908401800906168A5
:10599000FAF771FD0646102E0FD3314886420CD817
:1059A0002F480F38304002903007400F02990843CB
:1059B000029002982168C86039E00120019036E029
:1059C000002F06D0022F08D0042F08D0082F0DD1A9
:1059D00009E0FCF745FE05460CE01F4D0AE0FCF728
:1059E00053FE054606E00125ED0303E000250120F6
:1059F000019000BF00BF002D19D0606A4000174A17
:105A0000115A2846FAF737FD616849084018009096
:105A10006168FAF730FD0646102E06D3104886421C
:105A200003D8B0B22168C86001E0012001900121D3
:105A30006A2001536820015300206067A067019825
:105A400005B0F0BDF369FFCFFFF4FF11003801404E
:105A500040100240004400400024F4001668000892
:105A6000FFFF0000F8B504460E461546A6655C200B
:105A700005535E2005530020606700BF0121090324
:105A8000A06888420AD12069002803D158496020C3
:105A9000015324E0FF216020015320E0A06800288A
:105AA0000AD12069002803D1FF216020015316E0AC
:105AB0007F216020015312E001210907A06888427C
:105AC0000AD12069002803D17F216020015306E01C
:105AD0003F216020015302E000216020015300BFFC
