:020000040800F2
:10000000B0090020B501000805410008833C000844
:1000100000000000000000000000000000000000E0
:10002000000000000000000000000000654900081A
:10003000000000000000000039420008094A0008E2
:10004000C701000800000000C7010008C701000840
:10005000C7010008C7010008C70100084D0F0008CC
:1000600000000000950E0008C7010008C701000845
:10007000C7010008C7010008C70100080000000010
:10008000C70100080000000000000000C7010008D0
:1000900000000000C7010008A14A0008C7010008CD
:1000A000C7010008C7010008C7010008C701000810
:1000B000415E000800000000000000000000000099
:1000C00000F002F800F04BF80CA030C808382418F3
:1000D0002D18A246671EAB4654465D46AC4201D180
:1000E00000F03DF87E460F3E0FCCB6460126334267
:1000F00000D0FB1AA246AB4633431847886900007C
:10010000A8690000103A02D378C878C1FAD852071B
:1001100001D330C830C101D504680C6070470000BD
:100120000023002400250026103A01D378C1FBD813
:10013000520700D330C100D50B60704710B5642959
:1001400002D100F0D1F810BD732902D100F0BEFB3E
:1001500010BD002010BD1FB51FBD10B510BD00F0B3
:10016000CDFB1146FFF7F7FF06F090F900F0E5FB35
:1001700003B4FFF7F2FF03BC05F0C0FE70B50546FF
:100180000C46164602E00FCC0FC5103E102EFAD2D8
:10019000082E02D303CC03C5083E042E07D301CC9E
:1001A00001C5361F03E021782970641C6D1C761E82
:1001B000F9D270BD0748804707480047FEE7FEE7D1
:1001C000FEE7FEE7FEE7FEE704480549054A064B61
:1001D000704700009D4A0008C1000008B0030020DD
:1001E000B0090020B0050020B005002070470000D5
:1001F0000FB41CB50C0007AA009001D00019401ED6
:10020000084B7B4469460190069800F02CFB002CBB
:1002100003D06946002000F039FB1CBC08BC04B0C8
:100220001847000091060000F8B50E46044600206D
:1002300020622046E1688847002829D0252802D07E
:100240006268A16820E0E168204600278847050031
:100250001ED028464138192802D80127FF02203530
:100260003246204627602946FFF768FF002808D05D
:10027000012804D0F61DF608F6000836D9E7361D29
:10028000D7E762682846A1689047206A401CCFE7FC
:10029000206AF8BD70B50C460546012A05D02878BD
:1002A000800600D5EA69002302E0012305E05B1C1B
:1002B000934202D2E05C0028F9D1A869E618C01A7E
:1002C000A861286AC01828622846C046C04604E0D3
:1002D0006A682078A968641C9047B442F8D328461D
:1002E000C046C04670BD0000F7B5002575291068EE
:1002F000009914A611D0C046C046002802DA404238
:1003000011A608E0009909688A0701D50FA602E046
:10031000490704D50EA6012501E0C046C046009F4E
:100320000024243704E000F0D5FA30313955641C3C
:100330000028F8D12B4632462146009800F036FAC4
:10034000FEBD0000000000002D0000002B0000009A
:100350002000000030B5441C03E00178401C002957
:100360000DD08107F9D10B4BDD0104C8D11A91439F
:100370002940FAD0001B0A0603D0C01E30BD001B66
:1003800030BD0A0401D0801E30BD0902FCD0401EE1
:1003900030BD000001010101F8B5042A2CD3830708
:1003A00012D00B78491C0370401C521E83070BD0DF
:1003B0000B78491C0370401C521E830704D00B7835
:1003C000491C0370401C521E8B079B0F05D0C91A95
:1003D000DF002023DE1B08C90AE0FFF7CFFEF8BDCF
:1003E0001D4608C9FD401C46B4402C4310C0121FD6
:1003F000042AF5D2F308C91A521EF0D40B78491C0E
:100400000370401C521EEAD40B78491C0370401C38
:10041000012AE4D409780170F8BD01E004C0091F85
:100420000429FBD28B0701D50280801CC90700D0AC
:100430000270704700290BD0C30702D00270401C25
:10044000491E022904D3830702D50280801C891E1D
:10045000E3E70022EEE70022DFE7002203098B42F8
:100460002CD3030A8B4211D300239C464EE0034653
:100470000B433CD4002243088B4231D303098B4207
:100480001CD3030A8B4201D394463FE0C3098B423D
:1004900001D3CB01C01A524183098B4201D38B0196
:1004A000C01A524143098B4201D34B01C01A524139
:1004B00003098B4201D30B01C01A5241C3088B427E
:1004C00001D3CB00C01A524183088B4201D38B0069
:1004D000C01A524143088B4201D34B00C01A52410B
:1004E000411A00D201465241104670475DE0CA0FE2
:1004F00000D04942031000D34042534000229C46A2
:1005000003098B422DD3030A8B4212D3FC228901AB
:1005100012BA030A8B420CD3890192118B4208D381
:10052000890192118B4204D389013AD0921100E0E3
:100530008909C3098B4201D3CB01C01A52418309F7
:100540008B4201D38B01C01A524143098B4201D324
:100550004B01C01A524103098B4201D30B01C01A4F
:100560005241C3088B4201D3CB00C01A52418308C9
:100570008B4201D38B00C01A5241D9D243088B421F
:1005800001D34B00C01A5241411A00D201466346C2
:1005900052415B10104601D34042002B00D5494226
:1005A000704763465B1000D3404201B50020C0464F
:1005B000C04602BD7047704770470000F0B5FF2588
:1005C0002D04C609C209FF2704462E400137CB0976
:1005D0003E4348402A402B400746002A6BD0002B60
:1005E00069D0AA4267D0AB4265D0002800DA324613
:1005F0000125ED0529432C4309022002090AD21ADC
:100600004B0C7F24E31A434C000A7C44E35C7D24BA
:100610002404121914145B00A218884201D3521C3E
:1006200000E0400049420C465C4324115C43DB017E
:100630006415E318040A5C43C502200D0C464443CC
:100640006419250A5D432303EC0C0D466543000342
:100650000019EB184C42A34201D35B18401CD4058F
:100660002018002B07D05B00C91804D3401C0029B8
:1006700001D1400840003F2189048A4209D3002A61
:1006800008DC1106090F04D0032149074018C00FE8
:10069000C007F0BD01224100120689187F225206D0
:1006A0009142F6D205214907C84201D59010F0BD0C
:1006B000FF20C005F0BD002F00DA32461648AA42DE
:1006C00007D2AB4205D21902090E17D0F80FC007A6
:1006D000F0BDFF2563002D06AB42F9D84900A942C1
:1006E000F6D8AB4201D1A942F2D0A94201D10021F2
:1006F00001E061004908D0050843F0BD1102090E70
:10070000FBD0FF200243D005F0BD0A46014610464B
:1007100054E70000366400000000C07F0102C215EB
:1007200004D00123DB071943002A0ADB9E239A1A0F
:1007300002D40846D0407047FF2241001206914281
:1007400001D900207047C017C04370471F22030C17
:1007500002D10F2200041CD0030E01D10002083A7E
:10076000030F01D10001121F830F01D18000921EDF
:10077000002801DB4000521ED20551180212511808
:100780001922904004D3491C002801D1490849008E
:1007900008467047C10FC90700D0404201229207A6
:1007A0001143D3E701218907D0E77047FFB504461D
:1007B0000D4681B0243000902168880604D51022AF
:1007C000E0699143216000E00120A84201DD471B60
:1007D00000E000270498A1697A191018081AA0618E
:1007E0002078C00602D42046C046C046002608E055
:1007F00003986268A168805D9047206A401C761C5F
:10080000206204988642F3DB2078C0060AD5204691
:10081000C046C04606E06268A16830209047206A62
:10082000401C206238467F1E0028F4DC07E0009858
:100830006268A168405D9047206A401C206228469B
:100840006D1E0028F3DC2046C046C0462078000616
:1008500002D5022005B0F0BD0120FBE701694A1C6A
:1008600002610878704700B58FB0029100210591B0
:100870000549019379440391114604906846FFF7B6
:10088000D3FC0FB000BD0000E5FFFFFF0A68107049
:10089000521C0A6070470CC908399A4202D2531C94
:1008A0000B601070704710B54369002B02D0C04632
:1008B000C04601E0FFF7EEFC012010BD12780146B2
:1008C00024310A7000224A700122ECE711680022EC
:1008D000D243E8E701468008081A02091018020A04
:1008E0001018020C1018C008820012185200891A41
:1008F00001E0401C0A390A29FBD27047754600F016
:1009000025F8AE46050069465346C008C000854636
:1009100018B020B5FFF758FC60BC00274908B64660
:100920000026C0C5C0C5C0C5C0C5C0C5C0C5C0C5FE
:10093000C0C5403D49008D46704710B50446C046CD
:10094000C0462046FFF714FC10BD00000048704769
:100950004C03002070B50546AC6AA06D50210840DC
:10096000002831D1A06D012149020843A06520680B
:1009700003F0C3F9002823D0A07E002820D12068EE
:1009800000680821084008281AD1206803F0AFF950
:1009900000280DD1206840680C21884321684860F8
:1009A000A06DFF210131884301210843A06507E0C4
:1009B000A06D20210843A065E06D01210843E0659A
:1009C000204600F009FE0CE0A06D10210840002830
:1009D00003D0204600F002FE03E0206D416B284664
:1009E000884770BD70B50546AC6AA06D40210843CC
:1009F000A065E06D04210843E065204600F0EEFDAF
:100A000070BD70B50446A56A284600F0E6FD70BDCD
:100A100070B50446206803F04DF90646206803F0DF
:100A20004FF9002837D0002E35D120688068052185
:100A30000840012806D1206803F026F90320216828
:100A4000086009E0A06D10210843A065E06D012158
:100A50000843E065012070BD01F0E4FB054614E0A9
:100A600001F0E0FB401B02280FD920688068C00716
:100A7000C00F002809D0A06D10210843A065E06DCB
:100A800001210843E0650120E5E720688068C00790
:100A9000C00F0028E4D10020DDE7000038B504468F
:100AA00000200090206803F00BF9002858D120683E
:100AB00080682C490840002809D0A06D1021084307
:100AC000A065E06D01210843E065012038BD206884
:100AD00003F0E2F8244803F0E7F80121C9050840D3
:100AE00000280DD0214922480068FFF7B6FC401CC1
:100AF000009002E00098401E009000980028F9D174
:100B0000607E01282CD001F08DFB05461FE0206897
:100B100003F0D6F8002802D1206803F0BDF801F0F8
:100B200081FB401B022812D920680068C007C00F53
:100B3000012148404840002809D1A06D10210843F8
:100B4000A065E06D01210843E0650120BEE7206853
:100B50000068C007C00F0121484048400028D6D097
:100B60000020B3E71700008008270140400D030074
:100B700090000020F0B585B01D4840890490002504
:100B8000002429E0A0001B49085A0390A000401847
:100B9000408802900298FFF705FE01900498FFF745
:100BA00001FE1549009005F021FE07460199FFF767
:100BB00005FD06460398FFF7F5FD3146009005F068
:100BC00015FE0E490190FFF7F9FC0746294605F08E
:100BD000C7FD0546601CC4B2102CD3DB8321C905B8
:100BE0002846FFF7EBFC0546284605B0F0BD00009F
:100BF000A075FF1FB40000200000404000F07F45BA
:100C000010B5002018490870184908701849087074
:100C1000002407E06000174A115A204603F0A4FEA2
:100C2000601CC4B2042CF5DB1248007C00280FD1F4
:100C30000021114802F0C8FB04210F4802F0C4FB58
:100C400008210D4802F0C0FB0C210B4802F0BCFB50
:100C500006480078400007490A5A044801780248CB
:100C6000007800F075F810BD6400002065000020D9
:100C70006600002008000020C401002010B50548CF
:100C800005F03EF9044805F03BF9044805F038F951
:100C900010BD00003400002044000020540000205B
:100CA000FFB583B004460D462748854200DD054662
:100CB000042C03DA2549601C0E5C00E076266421D2
:100CC0002846FFF7D4FB0A210090FFF7D0FB1F480E
:100CD000475C0A212846FFF7CAFB0A210090FFF76C
:100CE000C6FB1A48405C02900A212846FFF7BFFB6A
:100CF0001648405C01900598002801D080200743E9
:100D00000698002803D080210298084302903146BB
:100D10002922D2011143084605F0F2F915210902F2
:100D20003943084605F0ECF90B22520202991143AF
:100D3000084605F0E5F91722120201991143084609
:100D400005F0DEF907B0F0BDE703000071690008A7
:100D500070B504460D461646230005F079F80604E2
:100D60000506071B656F00BF00BF00BF3548007C4C
:100D7000022801D1012000E0002003463148007C18
:100D8000012800D100E00020024631462046FFF74E
:100D900087FF54E02B48007C002815D12A4805F035
:100DA000AFF91520000205F0ABF90B20400205F069
:100DB000A7F92449097C254A515C172212021143E4
:100DC000084605F09DF92EE01E48007C012815D14B
:100DD0001D4805F095F92B20C00105F091F90B2075
:100DE000400205F08DF91749097C184A515C172219
:100DF00012021143084605F083F914E0124805F089
:100E00007FF91520000205F07BF92D20C00105F0C7
:100E100077F90C49097C0D4A515C172212021143E3
:100E2000084605F06DF90AE06A0006480830815A64
:100E300001231A462846FFF733FF00E000BF00BF3A
:100E400070BD000008000020F61400007169000861
:100E500010B503F071FD03F031FD03F043FD0B48C5
:100E600005F04EF90520800205F04AF91520000230
:100E700005F046F90B20400205F042F91720000268
:100E800005F03EF9024805F03BF910BD21040000D1
:100E90000F48000010B5024800F048FE10BD0000E9
:100EA0005801002070B50446206C80088000094974
:100EB000401860642178084608381421FFF7CDFAFD
:100EC000054604488030A064E906C90E0120884028
:100ED000E06470BD0008024002799106890E4A1E46
:100EE0009200064BD2180265044A403242654A1EFF
:100EF00093079B0F01229A408265704700090240C8
:100F000070B5856CC46C6C60046D002C02D0456DAE
:100F1000846D6C600C4C64681C26056C35400126A1
:100F2000AE403443084D6C60046863608468102CE4
:100F300004D10468A2600468E16003E00468A16071
:100F40000468E26070BD00000000024010B510208F
:100F500001F034F8202001F031F8402001F02EF8A3
:100F6000802001F02BF810BD72B600BFFEE7000034
:100F7000044949690122120402431143014A5161A3
:100F8000704700000020024010B50346064A52692F
:100F9000064C22401046CA00012424042243921C1D
:100FA0000243014C626110BD0020024007E0FFFFD8
:100FB00010B50849496901242143064C616102606A
:100FC00000BF00BF00BFBFF36F8F00BF00BF00BFF7
:100FD000436010BD00200240F0B5024600231446D5
:100FE0000D46114E76690127BF043E430E4F7E61C8
:100FF00000BFEFF31086304672B605E02E6826601B
:101000002D1D241D5E1CF3B2402BF7D300BF064EEE
:10101000366901273F043E40002EF8D100BF80F31F
:10102000108800BFF0BD00000020024070B50446EB
:1010300001F0F8F8064601252D0409E0601C00289F
:1010400006D001F0EFF8801BA04201D3032070BD51
:101050001348006928400028F0D11148006911495F
:1010600008400546481C0E490861002D03D00E4873
:1010700045600120EBE709E0601C002806D001F084
:10108000D1F8801BA04201D30320E0E704480069A7
:101090000121890408400028EED100BFD7E70000F5
:1010A00000200240FA8300003003002001460120A6
:1010B000C006081AC00A7047F0B585B00446002083
:1010C0000390002500BF5420005D012802D10220BA
:1010D00005B0F0BD01215420015500BF2046FFF7A7
:1010E00097FC0490206802F0F3FD00287ED1A06DEB
:1010F000FF210131884302210843A0652068C068B0
:101100005849084002902068C068C94308402168D7
:10111000C860002629E020688168534A1140120700
:101120008918816000BF13E00398401C03904F4969
:10113000039888420CD3A06D0221884310210843F4
:10114000A06500BF00215420015500BF0120BFE76A
:1011500020688168C90F0029E6D12068B4210958A8
:101160004906490E491C4D19761C082ED3D3700828
:10117000451931462846FFF770F905462068816811
:10118000394A1140491C816000BF20680169890FFC
:101190008907002919D100BF354807680F21890444
:1011A0000F4000BF0720800487420ED3B80CC01E3A
:1011B00001218140009100984008009002E00098D1
:1011C000401E009000980028F9D12068B4210958E9
:1011D000C909C9012943B422115000BF20688168A0
:1011E000214A1140891C816000BF00E02FE001F01E
:1011F00019F8019019E001F015F80199401A022838
:1012000013D9206802F064FD00280ED0A06D1021D3
:101210000843A065E06D01210843E06500BF00219F
:101220005420015500BF012052E7206802F050FD14
:101230000028E0D12068C068029908432168C8608E
:10124000A06D0221884301210843A06503E0A06D41
:1012500010210843A06500BF00215420015500BFA4
:10126000049835E703800000E8FFFF7F00F20200EA
:1012700008270140F0B585B005460C4600200390D4
:1012800002900121C9072869884203D0091D2869F5
:10129000884200D100E000BF00BF5420405D01281B
:1012A00002D1022005B0F0BD01215420415500BFFC
:1012B000286802F01CFD002876D16068022874D0EE
:1012C0000121C9072869884203D0091D286988427D
:1012D00008D128682168826A4B035B0B1A4382623B
:1012E00000BFC6E02179CA06D20E0F219140286EB8
:1012F000884321684903490B002905D11F22920622
:1013000021681140890E92E02178C907C90F002990
:1013100001D000218BE0022221681140022901D175
:10132000012184E0042221681140042901D1022115
:101330007DE0082221681140082901D1032176E0CF
:10134000102221681140102901D104216FE02022D0
:1013500021681140202901D1052168E0402221683F
:101360001140402901D1062161E08022216811400D
:10137000802901D107215AE0FF2201322168114062
:10138000914201D1082152E001225202216811400C
:10139000914201D109214AE00122920221681140C3
:1013A000914203D10A2142E0FAE0BAE00122D202DE
:1013B00021681140914201D10B2138E00122120332
:1013C00021681140914201D10C2130E001225203E9
:1013D00021681140914201D10D2128E001229203A0
:1013E00021681140914201D10E2120E00122D20357
:1013F00021681140914201D10F2118E0012212040D
:1014000021681140914201D1102110E001225204C3
:1014100021681140914201D1112108E0012292047A
:1014200021681140914201D1122100E0002122796E
:10143000D206D20E91400843286660688008401C9E
:10144000E969884215D82868226861680192836A30
:10145000CF06FF0E0F22BA4093430F27BF06019A13
:101460003A40920ECF06FF0EBA401343836200BF8C
:1014700000BF286821680091A16801914269009924
:1014800009028A4300990B024C4F019939400B40E5
:101490001A43426100BF2068C00FC007002821D056
:1014A000474802F001FC06464649206888421AD1A6
:1014B000C0023040002816D1C802304301464048DF
:1014C00002F02EFC404941480068FEF7C6FF401C70
:1014D0000C214843029002E00298401E02900298BC
:1014E0000028F9D162E03A49206888420AD1800296
:1014F0003040002806D1880230430146304802F0CF
:101500000FFC53E03349206888424FD140023040FD
:1015100000284BD1480230430146294802F000FC24
:1015200044E00121C9072869884203D0091D2869C0
:10153000884208D128682168826A4B035B0B9A4372
:10154000826200BF00BF2068C00FC00700282DD0F6
:101550001B4802F0A9FB06461A492068884207D1B9
:10156000C202304690430146154802F0D9FB1DE007
:1015700017492068884207D18202304690430146CD
:101580000F4802F0CDFB11E01249206888420DD1CE
:101590004202304690430146094802F0C1FB05E093
:1015A000A86D20210843A8650120039000BF0021F9
:1015B0005420415500BF039874E6000000FFFF0768
:1015C00008270140001000B0400D030090000020EB
:1015D000004000B8002000B470477047704700001A
:1015E000FEB5044600200290002500260190002C44
:1015F00001D10120FEBD3C20005D012800D100BFCB
:101600002069002805D0012149052069884200D1C0
:1016100000BFA06D002807D1204600F02DF9002062
:10162000E065002154200155206802F059FB002894
:1016300017D120688168894A11400122120711439D
:10164000816000BF864987480068FEF706FF401C9E
:101650004000019002E00198401E0190019800288E
:10166000F9D1206802F03CFB002809D1A06D1021BF
:101670000843A065E06D01210843E0650120029068
:10168000206802F034FB0746A06D102108400028B6
:101690007ED1002FFCD1A06D0901884302210843AF
:1016A000A065206802F00CFB002872D1217E89031E
:1016B000A0680843617EC9030843A17E490308432B
:1016C000216B002902D00121090300E00021084319
:1016D000E16808432169C90FC907002903D02169BE
:1016E0004900490801E00121490508432C21095D11
:1016F0004900084305432020005D01280ED1A07E4B
:10170000002803D101200004054307E0A06D20213B
:101710000843A065E06D01210843E065606A002888
:1017200006D0FF21C131606A0840A16A0843054321
:101730002068C0684C49084028432168C860606838
:10174000800F8007E16C084306433C20005D0128C0
:101750000BD16068800F800701210843216C08438A
:10176000616C0843A16C08430643206800693F4947
:101770000840304321680861032189076068884276
:1017800016D049426068884212D04900606801E082
:101790005BE00DE088420BD0354880680F2189045A
:1017A00088430F22920461681140084330498860E1
:1017B0000021626B206802F0BAFA2E49A26B206801
:1017C00002F0B5FA2069002807D12068806A0F214D
:1017D000C94308432168886211E001214905206955
:1017E00088420CD1207F401E4007C10E0F20C0430D
:1017F0008840216E08432168896A216888622168CF
:101800000020009100994969042202400723934077
:10181000194004220240D140606B814208D100206F
:10182000E065A06D0221884301210843A06512E014
:10183000A06D0221884310210843A065E06D0121BD
:101840000843E0650120029005E0A06D10210843E7
:10185000A065012002900298CCE60000E8FFFF7F1F
:10186000400D0300900000200102DEFF02FCFF1F7C
:101870000027014004FFFF0710B586B0044614217D
:1018800001A8FEF7E8FD27492068884248D100BF3B
:1018900025480068012109050843234908600846D6
:1018A0000068012109050840009000BF00BF00BF8B
:1018B0001D484038406B012108431B4940394863AB
:1018C0000846406BC007C00F009000BF00BF01205A
:1018D0000190032002900020039001A90520000739
:1018E00000F0A4FB1148124908600520486000215F
:1018F0000F488160C1608021016149004161890018
:1019000081612021C1610021016200F09FF900285E
:1019100001D0FFF729FB00BF05482065846200BFA6
:1019200006B010BD002401404010024008000240F3
:1019300058010020F8B504460E461746206802F00C
:10194000D6F9002850D100BF5420005D012801D1F4
:101950000220F8BD01215420015500BF2068C06855
:10196000084000280DD1206802F0AAF9002802D012
:10197000206802F089F92068C068012108432168C5
:10198000C8602046FFF78AF80546002D2DD1A06DCE
:1019900017490840FF2101310843A0650020E06598
:1019A0001448216DC8621448216D08631348216DE5
:1019B00048631C202168086000BF002154200155A5
:1019C00000BF2068406810210843216848602268F1
:1019D000114640313B463246206D00F097F90546EE
:1019E000206802F095F900E002252846B1E70000E2
:1019F000FEF1FFFF55090008030A0008E509000889
:101A00000146002901D1012070472520405C0228B1
:101A100008D00420C86300BF00222420425400BF25
:101A20000120F1E708680068400840000A6810607B
:101A3000086800680E2290430A681060486C0068CD
:101A4000FF22013290434A6C1060124840681C2308
:101A50000A6C1A400123934018430E4A50608A6C66
:101A6000C86C5060086D002809D0086D0068FF221E
:101A7000013290430A6D10604A6D886D50600122FA
:101A80002520425400BF00222420425400BF0020E1
:101A9000BAE700000000024070B50446002525208A
:101AA000005D022803D00420E06301253AE02068AD
:101AB00000684008400021680860206800680E2126
:101AC000884321680860606C0068FF210131884309
:101AD000616C0860144840681C22216C114001228E
:101AE0008A40104310494860A16CE06C4860206D4A
:101AF000002809D0206D0068FF2101318843216D45
:101B00000860616DA06D486001212520015500BF6E
:101B100000212420015500BFA06B002802D02046E0
:101B2000A16B8847284670BD0000024070B504468E
:101B300045480568206806681C20216C0140042087
:101B400088402840002820D00420304000281CD0A5
:101B50002068006820210840002805D1206800681E
:101B60000421884321680860374840681C22216CA2
:101B7000114004228A40104333494860206B0028FA
:101B800060D02046216B88475CE01C20216C01401E
:101B9000022088402840002828D002203040002819
:101BA00024D02068006820210840002808D120683F
:101BB00000680A2188432168086001212520015519
:101BC000214841681C22206C1040022282401143AF
:101BD0001D48416000BF00212420015500BFE06A7C
:101BE00000282FD02046E16A88472BE01C20216C7A
:101BF0000140082088402840002823D00820304099
:101C000000281FD0206800680E21884321680860E2
:101C10000D4841681C22206C104001228240114373
:101C2000094841600120E06301212520015500BFE2
:101C300000212420015500BF606B002802D02046FF
:101C4000616B884770BD00000000024010B504467B
:101C5000002C01D1012010BD2A4A2168881A1421C4
:101C6000FEF7FBFB8000206402212520015520683F
:101C700000682549084021680860E168A0680843B9
:101C80002169084361690843A1690843E169084380
:101C9000216A0843216809680843216808602046D2
:101CA000FFF700F901218903A068884201D10020D3
:101CB000606020798006800E616C0860A16CE06C29
:101CC0004860606800280CD06068042809D8204665
:101CD000FFF702F90020216D0860616DA06D48607A
:101CE00003E0002020656065A0650020E06301211D
:101CF0002520015500BF00212420015500BF0020F0
:101D0000A9E70000080002400F80FFFFF8B5044675
:101D10000D4616461F460020009000BF2420005D9F
:101D2000012801D10220F8BD01212420015500BF66
:101D30002520005D012844D10221252001550020E5
:101D4000E0632068006840084000216808603B4666
:101D5000324629462046FFF7D3F8206B002806D0EC
:101D6000206800680E210843216808600BE02068A5
:101D700000680421884321680860206800680A21FF
:101D8000084321680860606C00680121090408406C
:101D9000002805D0606C006809120843616C086077
:101DA000206D002806D0206D0068FF210131084316
:101DB000216D0860206800680121084321680860DF
:101DC00008E08020E06300BF00212420015500BF0F
:101DD000012000900098A6E770B5044600F022FAB2
:101DE00006462546681C002802D0054800782D18B4
:101DF00000BF00F017FA801BA842FAD370BD0000A4
:101E00008C000020F8B504460F4600BF2348007838
:101E1000012801D10220F8BD01202049087000BF2F
:101E2000002048607D20C000FFF700F90646002E24
:101E30002CD1042060602068042808D16068FFF776
:101E400097F87D20C000FFF7F1F806461EE000205D
:101E5000C0433860A5680DE029466068FFF794F834
:101E60007D20C000FFF7E2F80646002E01D03D605D
:101E700005E06D1CE168A0684018A842ECD800BFDE
:101E800007484069022188430549486100BF002096
:101E90000249087000BF3046BDE700003003002053
:101EA0000020024010B501247D20C000FFF7BEF8DD
:101EB00007484069E1070843054948610846406909
:101EC000C00FC007002800D00024204610BD00002D
:101ED00000200240F0B51FB4064614461D4600BF60
:101EE00018480078012802D1022005B0F0BD012079
:101EF0001449087000BF002048607D20C000FFF733
:101F000095F80746002F15D1012E05D122462B4604
:101F10000198FFF74DF803E021460198FFF75CF8C0
:101F20007D20C000FFF782F8074607484069B043AC
:101F30000549486100BF00200249087000BF3846CB
:101F4000D3E70000300300200020024000200949B0
:101F50004969C90FC90700290BD00749054A916093
:101F60000649916011464969C90FC907002900D087
:101F7000012070470020024023016745AB89EFCD67
:101F800010B50446102C06D0202C08D0402C0AD0C6
:101F9000802C10D10BE0002002F08AFF0CE0012021
:101FA00002F086FF08E0022002F082FF04E0032036
:101FB00002F07EFF00E000BF00BF10BD10B5044678
:101FC0000A48C0682040002804D00848C460204661
:101FD00000F00EF8054800692040002804D00348AE
:101FE00004612046FFF7CCFF10BD0000001802403E
:101FF00010B50446102C06D0202C08D0402C0AD056
:10200000802C10D10BE0002003F010F80CE0012030
:1020100003F00CF808E0022003F008F804E00320C5
:1020200003F004F800E000BF00BF10BD70B5034628
:102030000A460021D7E001268E4014683440002C67
:1020400073D01579AD07AD0F012D04D01579AD070B
:10205000AD0F022D18D198684E000325B5400646F5
:10206000AE4330464E00D568B54028439860586866
:1020700001258D400646AE43304610265568354052
:102080002D098D40284358601579AD07AD0F032DFC
:102090000BD0D8684E000325B5400646AE43304607
:1020A0004E009568B5402843D8601579AD07AD0F4F
:1020B000022D15D1CD08AE001D462035A8594D077B
:1020C000EE0E0F25B5400646AE4330464E07F60EDF
:1020D0001569B5402843CD08AD001E462036705125
:1020E00018684E000325B5400646AE4330461579C4
:1020F000AD07AD0F4E00B5402843186003263604E7
:1021000055683540002D6DD03A4D8E08B600A8595F
:102110008D07EE0E0F25B5400646AE433046052529
:102120002D07AB4202D1002510E05BE0324DAB42FF
:1021300001D101250AE0314DAB4201D1022505E074
:102140002F4DAB4201D1032500E005258E07F60E89
:10215000B5402843274D8E08B600A851254D603D57
:1021600028680546A54328460126360555683540AA
:10217000002D02D00546254328461E4D603D2860AF
:1021800068680546A543284601267605556835400A
:10219000002D02D0054625432846164D603D686057
:1021A000144D203568680546A54328460126760467
:1021B00055683540002D02D00546254328460D4D73
:1021C0002035686028680546A54328460126360460
:1021D00055683540002D02D0054625432846054D5B
:1021E00020352860491C1568CD40002D00D022E71D
:1021F00070BD00006018024000040050000800504C
:10220000000C0050024613690B40002B01D0012046
:1022100000E000207047002A01D0816100E0816267
:1022200070470000014800687047000084000020EB
:1022300070B50446002C01D1012070BD18482168FA
:102240000860184821680860216860684860216853
:10225000A0688860FFF7E6FF05460CE0FFF7E2FFA5
:10226000401B312807D92068C0684007400F00286C
:1022700001D00320E1E72068C0684007400F002834
:10228000ECD120680169E068814203D02168E068F0
:10229000086102E00448216808600020CDE70000E2
:1022A000CCCC000055550000AAAA00000146024807
:1022B0000A68106000207047AAAA0000034800685E
:1022C00003490978401801490860704784000020DC
:1022D0008C00002010B5002408480068FF2101315F
:1022E000084306490860032000F00AF8002801D0DE
:1022F000012401E000F034F8204610BD0020024027
:10230000F8B5044600251348007800281ED011486F
:1023100001787D20C000FEF7A0F8074639460E4838
:102320000068FEF79AF8064600F0D0FC00280BD1B2
:10233000042C07D200222146401E00F045F8074831
:10234000046004E0012502E0012500E001252846A3
:10235000F8BD00008C0000209000002088000020C4
:1023600008B500BF0E480068012108430C49086009
:1023700008460068C007C00F009000BF00BF00BF44
:1023800007484038C06B8905084305494039C86390
:102390000846C06B09040840009000BF00BF08BD9C
:1023A000401002400146002909DB00BF00BFCB06F8
:1023B000DB0E01229A40034B1A6000BF00BF00BF32
:1023C0007047000000E100E070B504460D46164677
:1023D0002946204603F04AFD70BD000070B5044652
:1023E0001148006803214902884320430E490860D0
:1023F0004815844216D10D49096806225143084602
:102400000B49FEF72AF8451C05E0002D01D06D1E92
:1024100001E0032070BD04484069012189020840A1
:102420008842F2D00020F5E70070004090000020C4
:1024300040420F0070B504460D46002C01D101202A
:1024400070BD6B4800684007400FA84218D268482A
:102450000068C008C000284365490860FFF7E2FE35
:10246000064607E0FFF7DEFE801B6249884201D97D
:102470000320E5E75E4800684007400FA842F1D11D
:10248000022120680840022815D104212068084054
:10249000042807D158488068072109038843401859
:1024A00055498860544880680F2109028843A16813
:1024B0000843514988602078C007C00F002854D0D5
:1024C0006068012808D14C4800680121490408408F
:1024D00000282ED10120B3E76068022808D14648C1
:1024E0000068012149060840002822D10120A7E701
:1024F0006068002808D1404800680121890208402E
:10250000002816D101209BE76068032808D13A48CB
:102510004030006A0221084000280AD101208FE7DC
:1025200035484030C06902210840002801D101200F
:1025300086E731488068C008C000616808432E49BA
:102540008860FFF76FFE064607E0FFF76BFE801B13
:102550002849884201D9032072E72748806838213A
:1025600008406168C9008842EFD1214800684007EF
:10257000400FA84218D91E480068C008C000284370
:102580001B490860FFF74EFE064607E0FFF74AFECC
:10259000801B1849884201D9032051E7144800687C
:1025A0004007400FA842F1D10421206808400428C8
:1025B00008D111488068072109038843E16808436E
:1025C0000D49886000F03AF80B4989680F22120221
:1025D0001140090A8900094A515CC906C90EC84060
:1025E0000749086007480068FFF78AFE28E70000EF
:1025F000002002408813000000100240E469000837
:10260000900000208800002001480068704700000A
:102610009000002000B5FFF7F7FF06498968072200
:1026200012031140090B8900034A515CC906C90E07
:10263000C84000BD00100240246A0008FEB53548BD
:1026400080683821084000280DD13248006809020E
:102650000840C10A0120884000902F480099FDF7EA
:10266000FCFE044654E02B488068382108400828C6
:1026700001D12A4C4CE027488068382108401028B6
:1026800034D12448C0688607B60F2248C06870213C
:1026900008400009401C0190022E0FD0032E0CD1DF
:1026A0001E480199FDF7D9FE1A49C9687F22120216
:1026B0001140090A484305460DE000BF164801993C
:1026C000FDF7CBFE1349C9687F2212021140090AA7
:1026D0004843054600BF00BF0E48C068400F471C76
:1026E00039462846FDF7B9FE044611E009488068DE
:1026F00038210840202801D1840209E0054880687B
:1027000038210840182802D17D24240200E000244A
:102710002046FEBD001002400024F40000127A00A2
:10272000FEB50446002C01D10120FEBD2078C00773
:10273000C00F00286FD0F748876838210F40C06865
:102740008607B60F102F01D1032E01D0082F0BD111
:10275000F048006801214904084000285BD0606807
:10276000002858D10120E0E700BF0121090460687A
:10277000884205D1E74800680843E649086021E03F
:1027800005210904606888420ED1E24800680121F1
:1027900089040843DF4908600846006801210904EC
:1027A0000843DC4908600DE0DA48006801210904AB
:1027B0008843D84908600846006801218904884395
:1027C000D449086000BF6068002812D0FFF72AFDD6
:1027D000054606E0FFF726FD401B642801D90320CB
:1027E000A3E7CC4800680121490408400028F1D043
:1027F00011E0FFF717FD054606E0FFF713FD401B4C
:10280000642801D9032090E7C248006801214904E7
:1028100008400028F1D1022120680840022873D125
:10282000BC488068382108400746BA48C068860717
:10283000B60F102F01D1022E01D0002F36D1B5488E
:102840000068012189020840002804D0E0680028BF
:1028500001D1012069E7AF4840687F210902884320
:10286000616909020843AB494860002F16D1084648
:1028700000680721C902884321690843A549086007
:10288000084600680722D2021040C20A0120904088
:102890000146A148FDF7E1FDA0490860A048006895
:1028A000FFF72EFD002849D001203EE7E068002810
:1028B0002BD0984800680721C90288432169084342
:1028C00094490860084600688915084391490860E2
:1028D000FFF7A8FC054606E0FFF7A4FC401B022812
:1028E00001D9032021E78B480068012189020840B3
:1028F0000028F1D0874840687F2109028843616938
:10290000090208438349486018E082480068FF21B3
:10291000013188437F490860FFF784FC054606E0E3
:10292000FFF780FC401B022801D90320FDE679480F
:1029300000680121890208400028F1D1082120689F
:102940000840082849D17348806838210840182871
:102950000BD170484030006A0221084000283CD06A
:10296000A069002839D10120DFE6A06900281AD02B
:1029700068484030006A01210843664940310862D6
:10298000FFF750FC054606E0FFF74CFC401B022811
:1029900001D90320C9E65F484030006A022108409F
:1029A0000028F1D019E05B484030006A4008400040
:1029B000584940310862FFF735FC054606E0FFF74D
:1029C00031FC401B022801D90320AEE651484030BB
:1029D000006A022108400028F1D104212068084043
:1029E00004287CD1002001904A48806838210840A2
:1029F00020280BD147484030C069022108400028F8
:102A00006ED0A06800286BD101208EE64148C06BD3
:102A1000010F01208843002810D000BF3D48C06B43
:102A20000121090708433B49C8630846C06B0904F4
:102A30000840009000BF00BF0120019039480068A5
:102A4000FF2101310840002816D1364800680843AC
:102A500034490860FFF7E6FB054606E0FFF7E2FBB6
:102A6000401B022801D903205FE62E480068FF21A1
:102A7000013108400028F1D000BFA068012808D12A
:102A800024484030C0690121084322494031C861CF
:102A900020E0A06805280FD11E484030C0690421FD
:102AA00008431C494031C8610846C06901210843F8
:102AB00018494031C8610DE016484030C0694108EE
:102AC000490014484030C161C0690421884311495C
:102AD0004031C86100BFA068002816D001E040E086
:102AE0003EE0FFF79FFB054607E0FFF79BFB401B1F
:102AF0000D49884201D9032017E606484030C069D5
:102B0000022108400028F0D01EE0FFF78BFB0546AD
:102B100014E00000001002400024F40090000020A7
:102B2000880000200070004088130000FFF77AFB47
:102B3000401B6249884201D90320F6E56048C0691C
:102B4000022108400028F1D10198012808D15C48F1
:102B50004038C06B01210907884359494039C8638F
:102B600000BFE06900285AD05548403880683821B5
:102B7000084010287AD0E069022851D150484038E6
:102B800000680121090688434D4940390860FFF774
:102B900049FB054606E0FFF745FB401B022801D92B
:102BA0000320C2E546484038006801214906084034
:102BB0000028F0D1616A206A0843A16A090208432B
:102BC000E16A0843216B08433D494039C9683D4AE1
:102BD000114008433A494039C8600846006801215D
:102BE000090608433649403908600846C0680904A8
:102BF000084333494039C860FFF714FB054606E037
:102C0000FFF710FB401B022801D903208DE52C485B
:102C1000403800680121490608400028F0D04AE009
:102C20002748403800680121090688432449403973
:102C30000860FFF7F7FA054606E0FFF7F3FA401BD6
:102C4000022801D9032070E51D48403800680121A1
:102C5000490608400028F0D119484038C0681A4990
:102C6000084017494039C86025E0FFE7E0690128BE
:102C700000D15AE512484038C668B107890F206A6A
:102C8000814216D170203040616A884211D17F2084
:102C900000023040A16A090288420AD11F20400484
:102CA0003040E16A884204D1710F4907206B8142AC
:102CB00001D0012039E5002037E50000881300002D
:102CC000401002408C80C11FFCFFFEEF70B504462F
:102CD0002546681E0949884201D901200CE0681E7A
:102CE000074948610321081F03F0C0F80020044988
:102CF000886107200861002070BD0000FFFFFF0011
:102D000000E000E0704770477047000010B50346D0
:102D1000002200BF3C20C05C012801D1022010BD70
:102D200001243C20C45400BF100A0002CC68204398
:102D30000246104603242402A0438C682043024626
:102D400010460124A402A0434C68204302461046CA
:102D50000124E402A0430C682043024610460124EB
:102D60002403A0430C692043024610460124640357
:102D7000A0434C692043024610460124A403A0430B
:102D80000C6B2043024610460F242404A0430C8BF6
:102D9000240420430246104601242407A043CC69A2
:102DA00020430246144C1868A0421CD110460F2440
:102DB0002405A0430C8D240520430246104601241F
:102DC0002406A0430C6A20430246104601246406F0
:102DD000A0434C6A20430246104601246407A043E6
:102DE000CC6A204302461868426400BF00243C209D
:102DF000C45400BF002092E7002C014030B50246C9
:102E00000B4600BF3C20805C012801D1022030BD70
:102E100001253C20855400BF02253D2085541068C3
:102E2000416810688468164D1068A84206D10F25C5
:102E30002D050846A84301465868014370250846F9
:102E4000A843014618680143106841600C4D1068A2
:102E5000A84203D00B4D1068A84207D18025204618
:102E6000A8430446986804431068846001253D2007
:102E7000855400BF00253C20855400BF0020C6E7D4
:102E8000002C01400004004010B50446002C01D184
:102E9000012010BD3D20005D002805D100213C200F
:102EA0000155204600F026F802213D200155211D44
:102EB000206801F0FDFD01214820015500BF3E20A2
:102EC00001553F2001554020015541200155422028
:102ED00001554320015500BF00BF44200155452046
:102EE0000155462001554720015500BF3D200155A1
:102EF0000020CEE738B504460E492068884217D135
:102F000000BF0D4800680121890408430A49086090
:102F100008460068012189040840009000BF00BFF6
:102F2000012200211620FFF74FFA1620FFF73AFA88
:102F300038BD0000004801404010024001463D20DD
:102F4000405C012801D00120704702233D204354FA
:102F50000868C068012318430B68D8600F4B0868E5
:102F6000984203D00E4B086898420FD108688268D7
:102F70000C4B1A40062A0FD0D81F82420CD008688A
:102F80000068012318430B68186005E008680068B2
:102F9000012318430B6818600020D5E7002C01407E
:102FA00000040040070001007047000070B50446AF
:102FB0002068C6682068056902202840022819D1C7
:102FC0003040022816D1401F216808610120207777
:102FD000206880698007800F002803D02046FFF713
:102FE000E3FF05E0204600F0E1F8204600F0EAF9B2
:102FF000002020770420284004281AD130400428DB
:1030000017D1C043216808610220207720688069B9
:10301000032109020840002803D02046FFF7C4FF1F
:1030200005E0204600F0C2F8204600F0CBF9002071
:10303000207708202840082819D13040082816D1C8
:10304000C04321680861042020772068C069800798
:10305000800F002803D02046FFF7A6FF05E020469A
:1030600000F0A4F8204600F0ADF9002020771020F1
:10307000284010281AD13040102817D1C0432168A9
:103080000861082020772068C069032109020840F0
:10309000002803D02046FFF787FF05E0204600F018
:1030A00085F8204600F08EF900202077E807C00F51
:1030B00000280AD0F007C00F002806D00120C04326
:1030C00021680861204600F009FA80202840802805
:1030D00006D001204003284001214903884209D13C
:1030E00080203040802805D118482168086120469A
:1030F000FFF709FEFF2001302840FF2101318842FF
:1031000009D180203040802805D1C843216808615A
:103110002046FFF7F7FD40202840402808D13040E6
:10312000402805D1C04321680861204600F0E6F937
:1031300020202840202808D13040202805D1C04335
:10314000216808612046FFF7DFFD70BD7FDFFFFFCC
:1031500010B586B00446142101A8FDF77CF9114989
:10316000206888421CD100BF0F48406B01210843F2
:103170000D4948630846406BC007C00F009000BF70
:1031800000BF0F2000020190022002900020039057
:1031900004900220059001A905200007FEF746FFD4
:1031A00006B010BD002C0140001002407047F8B579
:1031B00004460D461646002700BF3C20005D01284E
:1031C00001D10220F8BD01213C20015500BF0C2E89
:1031D00054D006DC002E09D0042E1ED0082E7ED13D
:1031E00035E0102E64D0142EF9D179E029462068FC
:1031F00001F0C4FC206880690821084321688861C7
:10320000206880690421884321688861206880697A
:1032100029690843216888617EE02946206801F019
:10322000FBFC206880690121C9020843216888618C
:1032300020688069012189028843216888612068AB
:1032400080692969090208432168886164E0294688
:10325000206801F037FD2068C06908210843216813
:10326000C8612068C069042188432168C86120685A
:10327000C069296908432168C8614DE02946206872
:1032800001F074FD2068C0690121C902084321686A
:10329000C8612068C0690121890288432168C8612A
:1032A0002068C0692969090208432168C86133E0C0
:1032B0002946206801F094FD2068406D08210843EC
:1032C000216848652068406D04218843216848656D
:1032D0002068406D29690843216848651CE019E0B1
:1032E0002946206801F0B0FD2068406D0121C90227
:1032F0000843216848652068406D012189028843A0
:10330000216848652068406D2969090208432168E1
:10331000486501E0012700BF00BF00BF00213C203D
:10332000015500BF38464DE710B50446002C01D1C9
:10333000012010BD3D20005D002805D100213C206A
:103340000155204600F026F802213D200155211D9F
:10335000206801F0ADFB01214820015500BF3E204F
:1033600001553F2001554020015541200155422083
:1033700001554320015500BF00BF442001554520A1
:103380000155462001554720015500BF3D200155FC
:103390000020CEE708B5094A016891420DD100BF6F
:1033A00007490968D2141143054A1160114609689A
:1033B000D2141140009100BF00BF08BD002C014095
:1033C000401002407047000070B504460D46002DC5
:1033D00002D13E20005D15E0042D02D13F20005DAA
:1033E00010E0082D02D14020005D0BE00C2D02D131
:1033F0004120005D06E0102D02D14220005D01E079
:103400004320005D012801D0012070BD002D03D1B3
:1034100002213E2001551AE0042D03D102213F2054
:10342000015514E0082D03D10221402001550EE082
:103430000C2D03D102214120015508E0102D03D1AC
:1034400002214220015502E00221432001550122C0
:103450002946206801F080FB1B492068884207D07C
:103460001A492068884203D019492068884201D14E
:10347000012000E00020002806D02068406C0121D7
:10348000C9030843216848640F492068884203D073
:103490001049206888420FD1206886680E490E4086
:1034A000062E0FD0C81F86420CD02068006801216C
:1034B00008432168086005E020680068012108438E
:1034C000216808600020A0E7002C01400044014072
:1034D000004801400004004007000100054A01685F
:1034E0001268914204D104490968491C024A1160DA
:1034F0007047000010020020780000207047F8B5E7
:1035000004460D46164600278C200059202836D147
:10351000002D01D0002E01D10120F8BD01210903A9
:10352000A068884208D12069002805D1E807C00FAB
:10353000002801D00120F0E70120E066002020678C
:1035400032462946204602F051FBE06E012813D195
:1035500010202168086200BF02F0C7FC0090012023
:1035600002F0C9FC20680068102108432168086047
:10357000009802F0C0FC00E001273846CDE70220A9
:10358000CBE7000070B505460C460749286888421D
:1035900009D101200549087005490C7040220549F0
:1035A0000548FFF7ACFF70BD004400406D000020EF
:1035B0006C0000205C0200209C02002070477047D5
:1035C0007047000010B504460949206888420DD1B3
:1035D0009020005908210840002807D008202168C1
:1035E0000862402203490448FFF789FF10BD00002C
:1035F000004400405C0200209C020020F0B585B031
:1036000004462068C5692068066820688768FE4807
:10361000284003900398002814D120202840002837
:1036200010D020203040002804D10120000738406D
:10363000002807D0606F002802D02046616F8847BD
:1036400005B0F0BD039800287ED0F048384000282F
:1036500003D1EF4830400028F6D0E807C00F00281B
:103660000DD0FF2001303040002808D00120216813
:10367000086290200059012108439021085102203E
:10368000284000280CD0F807C00F002808D00220DE
:1036900021680862902000590421084390210851B4
:1036A0000420284000280CD0F807C00F002808D0BC
:1036B00004202168086290200059022108439021CB
:1036C000085108202840002810D020203040002831
:1036D00003D1CE483840002808D00820216808626D
:1036E0009020005908210843902108510120C00270
:1036F000284000280ED0012080063040002809D044
:103700000120C0022168086290200059202108434E
:10371000902108519020005900285ED02020284098
:1037200000280ED020203040002804D101200007BE
:103730003840002805D0606F002802D02046616F15
:1037400088479020005900E048E002902068806897
:1037500040210840402804D0282102980840002831
:1037600035D0204601F082FD206880684021084065
:10377000402828D100BF02F0B5FB0190012002F0E3
:10378000B7FB2068806840218843216888600198E1
:1037900002F0AEFB00BF8020005900280FD09D49E9
:1037A00080200059816380210859FEF775F90028AF
:1037B00013D0802210591259916B88470DE0204692
:1037C000FFF700FF09E02046FFF7FCFE05E020467A
:1037D000FFF7F8FE00219020015131E7E06E01284B
:1037E0007ED11020284000287AD0102030400028B8
:1037F000FAD01020216808622068806840210840C3
:1038000040286ED1802000590068406880B2019045
:10381000019800286DD05C20015B0198814268DD31
:103820005E2101980853802000590068006820211B
:10383000084000284DD100BF02F054FB0090012049
:1038400002F056FB20680068FF210131884321689F
:103850000860009802F04CFB00BF00BF02F042FB82
:103860000090012002F044FB20688068400840007E
:1038700021688860009802F03BFB00BF00BF02F0A7
:1038800031FB0090012002F033FB2068806840216A
:10389000884321688860009802F02AFB00BF20213D
:1038A0008C2001510020E06600BF02F01BFB00905D
:1038B000012002F01DFB2068006810218843216868
:1038C0000860009802F014FB00BF80210859FEF741
:1038D00097F8022020675C20025B5E20005B02E01C
:1038E0006CE01BE005E0101A81B22046FFF74AFEAB
:1038F00013E05C20015B019881420ED180200059C9
:103900000068006820210840202806D10220206796
:103910005C20015B2046FFF735FE91E65C20015BF1
:103920005E20005B081A80B201905E20005B0028D8
:1039300043D00198002840D000BF02F0D3FA009095
:10394000012002F0D5FA20680068FF212131884368
:1039500021680860009802F0CBFA00BF00BF02F0B7
:10396000C1FA0090012002F0C3FA2068806827495C
:10397000C943084021688860009802F0B9FA00BF86
:1039800020218C2001510020E066606700BF02F01A
:10399000A9FA0090012002F0ABFA2068006810211B
:1039A000884321680860009802F0A2FA00BF022054
:1039B000206720460199FFF7E5FD41E6012000055B
:1039C000284000280CD0012080053840002807D06E
:1039D00001200005216808622046FFF7F1FD2FE66F
:1039E00080202840002817D080203040002804D1B3
:1039F0000120C005384000280ED0A06F002802D05A
:103A00002046A16F88471BE60F0800000100001048
:103A1000200100045D52000840202840002807D003
:103A200040203040002803D0204601F061FC07E62A
:103A30000120C0052840002808D001208007304020
:103A4000002803D02046FFF7BAFDF9E50120000663
:103A50002840002807D0F00FC007002803D02046D8
:103A6000FFF7ACFDECE500BFEAE510B50446002C1D
:103A700001D1012010BDA069002800D000E000BFE6
:103A800088200059002805D10021842001552046B6
:103A900000F02CF82421882001512068006840089B
:103AA000400021680860A06A002802D0204601F08A
:103AB000DBFA204601F0A8FF012800D1DAE72068F0
:103AC00040680921C90288432168486020688068ED
:103AD0002A21884321688860206800680121084302
:103AE00021680860204601F037FBC3E710B586B0B7
:103AF0000446142101A8FCF7AEFC1D492068884249
:103B000033D100BF1B48C06B012149040843194948
:103B1000C8630846C06B012149040840009000BFFB
:103B200000BF00BF1348406B01210843114948639F
:103B30000846406BC007C00F009000BF00BF0C20BC
:103B40000190022002900020039004900120059033
:103B500001A905200007FEF769FA002211461C2082
:103B6000FEF732FC1C20FEF71DFC06B010BD000065
:103B700000440040001002407047FFB583B0044687
:103B80000D46174688200059202877D1002D01D0F6
:103B9000002F02D1012007B0F0BD01210903A06868
:103BA000884208D12069002805D1E807C00F002805
:103BB00001D00120EFE70021902001512121882030
:103BC0000151FEF72FFB0190542007535620075355
:103BD00001210903A068884205D12069002802D18B
:103BE0000026029502E02E46002002902DE0069865
:103BF0000090002280212046019B02F0C7F8002897
:103C000004D02021882001510320C4E7002E09D1CF
:103C100002980088C005C00D216888620298801C47
:103C2000029003E0307821688862761C8820005971
:103C300021210840212806D15620005B401E81B278
:103C40005620015301E00120A5E75620005B002823
:103C5000CDD106980090002240212046019B02F021
:103C600095F8002805D0202188200151032092E7F3
:103C700004E020218820015100208CE702208AE7FF
:103C8000704700BFFEE700008168024A1140891CAE
:103C900081607047E8FFFF7F8168024A1140491C3C
:103CA00081607047E8FFFF7F0146086807229205A0
:103CB0001040704701468868022210404008704753
:103CC00001468868C007C00F01225040504070472D
:103CD00001468868C007C00F01225040504070471D
:103CE00001468868012212071040000F7047014604
:103CF000886804221040800870470146C868032283
:103D000092021040002801D1012070470020FCE7FA
:103D10008168024A1140091D81607047E8FFFF7FFA
:103D2000026807239B059A430A430260704730B537
:103D3000436904240D4625400724AC40A3430424D2
:103D40000C401546A5402B43436130BD0EB5002005
:103D50000090019002902348234908604005486084
:103D6000002121488160C1600121490501610421D0
:103D70004161002101764176012181760221C161F4
:103D80000021416281620121243001720021243826
:103D900001630521416381630021243001762438C9
:103DA000C164FDF71DFC002801D0FDF7DDF80120FE
:103DB000009000200190029069460B48FDF75AFAE6
:103DC000002801D0FDF7D0F80848009004200190A9
:103DD00069460548FDF74EFA002801D0FDF7C4F802
:103DE0000EBD000000240140F4000020002000B4BB
:103DF00008B500BF0A48806B012108430849886361
:103E00000846806BC007C00F009000BF00BF0022B3
:103E100011460920FEF7D8FA0920FEF7C3FA08BDBB
:103E20000010024000B587B0142102A8FCF713FB74
:103E300000BF4348406B012108434149486308469D
:103E4000406BC007C00F019000BF00BF00BF084615
:103E5000406B022108433A4948630846406B0221FF
:103E60000840019000BF00BF00BF3548406B0821EB
:103E70000843334948630846406B082108400190D5
:103E800000BF00BF0122032149032E48FEF7C3F9FA
:103E900000220F212C48FEF7BEF9F02002903120BD
:103EA00000040390002004900320059002A905203F
:103EB0000007FEF7BBF82548029000200390012080
:103EC00004900320059002A91E48FEF7AFF80120D8
:103ED000400302900120039000200490059002A965
:103EE0001848FEF7A3F801208003029011200390E8
:103EF00000200490059002A91248FEF797F80F20C1
:103F000002900120039000200490059002A90E4821
:103F1000FEF78CF8402002900020039001200490CE
:103F20000320059002A90748FEF780F800221146F9
:103F30000720FEF749FA0720FEF734FA07B000BD64
:103F40000010024000040050000C0050381C00001B
:103F500010B508480849086000204860074906482D
:103F6000C1608160FEF764F9002801D0FCF7FCFF16
:103F700010BD000000300040B4010020FF0F000021
:103F800010B50B480B4908603F20486000210948E4
:103F900081600921C160002101614161802181614D
:103FA000FEF772FF002801D0FCF7DEFF10BD000015
:103FB000004801401002002000B597B00020149086
:103FC000159016901C210DA8FCF745FA342168467F
:103FD000FCF741FA37483849086000204860002162
:103FE000354881603549C1600021016141618161CD
:103FF000FFF79AF9002801D0FCF7B6FF00201490D3
:104000001590169014A92C48FEF7F8FE002801D050
:10401000FCF7AAFF60200D9000200E900F901090EA
:1040200011901290139000220DA92348FFF7BFF8BA
:10403000002801D0FCF798FF6E200E9004220DA9F5
:104040001D48FFF7B4F8002801D0FCF78DFF0822C7
:104050000DA91948FFF7ABF8002801D0FCF784FF41
:104060000C220DA91448FFF7A2F8002801D0FCF794
:104070007BFF0020009001900290039004900120AB
:10408000400305900020069007900890012040060C
:10409000099000200A900B900C9069460648FEF7A4
:1040A00035FE002801D0FCF75FFF0348FFF750F80A
:1040B00017B000BD002C0140C4010020E703000040
:1040C00010B50E480E490860E1204002486000210A
:1040D0000B488160C16001610C2141610021816157
:1040E000C161016241620020054988620846FFF70C
:1040F000BCFC002801D0FCF737FF10BD0044004095
:104100009C02002000BFFEE710B5094C0949606918
:10411000884205D1182221460748FCF72FF806E00F
:10412000182206490448FCF729F800F017F810BDDA
:1041300000F800082144454C080000208C69000864
:10414000012003490870034800680349086070476C
:10415000200000206800002024000020F0B587B077
:1041600072B6FDF7F3FE02201F4908601F48FCF7F6
:104170009DFF1D4988600120C86004204860002020
:10418000059000BF00BF05A91748FDF73BFE044698
:10419000002C07D01648006916490860FDF782FE1A
:1041A00007B0F0BD144E114F03200490002512E01B
:1041B000E800301803C803910290E800C01901908C
:1041C0000B4601460120029AFDF784FE0446002CAE
:1041D00000D003E06D1C04988542E9D300BFFDF7D1
:1041E00061FE62B600BFDBE79400002000F8000823
:1041F00000200240040000200800002010B50A48FA
:104200000078002800D110BD0848006808490968F6
:10421000401A0849884204D3002003490870FFF778
:104220009DFF00BFEFE70000200000206800002095
:10423000240000208813000070470000F0B58DB006
:1042400000200690F9480078002803D1F84800784B
:10425000002801D10DB0F0BDF548007853287AD17F
:10426000F34840784C28FAD1F148807856287ED11E
:10427000EF48C0783038C4B2012C36DB042C34DC73
:10428000EB480079303864214143E94840793038BF
:104290000A2250430918E64880793038081885B258
:1042A000E44885421DD8601E4000E3490D52611E5E
:1042B000C8B2294600F058FB2346E0A2182107A8FF
:1042C000FBF796FF07A801F08FFBFFF739FF631E8E
:1042D0005B00D94EF25A631ED9B2D8B2FCF738FD52
:1042E00002E0D8A001F080FB3DE0002C38D101278E
:1042F000002525E068002818001DCD49085C3038ED
:104300006421414368002818401DC94A105C3038B8
:104310000A225043091868002818801DC44A105CFE
:104320003038081886B2C348864201D9002709E010
:104330006800C1490E52E8B2314600F015FB6D1C11
:10434000042DD7DB00BF002F06D0C0A001F04CFB2E
:10435000FFF7F6FE03E00AE0BAA001F045FB02E039
:10436000B8A001F041FB0020B149087072E7B048E5
:10437000007852284CD1AE4840784C2848D1AC48FF
:104380008078562844D1AA48C0783038C5B2012D6B
:1043900014DB042D12DC681E4000A74A115A05A840
:1043A00001F0F8FF05A82B46AAA21821009007A843
:1043B000FBF71EFF07A801F017FB25E0002D20D119
:1043C0006C460422A6A12046FBF7E6FF241D00262A
:1043D0000CE07000984A115A05A801F0DBFF032297
:1043E00005A92046FBF7D8FFE41C761C042EF0DB61
:1043F00023202070641C00202070684601F0F4FA2D
:1044000002E099A001F0F0FA00208949087021E744
:104410008748007853286ED1854840784D28FAD1D6
:10442000834880783038C4B2022C77DC8248047428
:1044300023468FA2182107A8FBF7DAFE07A801F090
:10444000D3FAFFF77DFE7C48007C00280FD10121C4
:1044500000F0B2FA0121084600F0AEFA0121022074
:1044600000F0AAFA0121032000F0A6FA59E07248F0
:10447000007C012840D1102105200007FDF7C2FE75
:10448000002803D1012100F097FA03E0002108463B
:1044900000F092FA202105200007FDF7B3FE002866
:1044A00004D10121084600F087FA03E00021012031
:1044B00000F082FA402105200007FDF7A3FE002846
:1044C00004D10121022000F077FA03E0002102204C
:1044D00000F072FA802105200007FDF793FE002806
:1044E00004D10121032000F067FA1AE00021032023
:1044F00000F062FA15E018E00021084600F05CFACE
:104500000021012000F058FA0021022000F054FAA6
:104510000021032000F050FA03E0FFE749A001F07A
:1045200063FA00204249087094E641480078522816
:1045300011D13F4840784D280DD13F48037C4EA211
:10454000182107A8FBF754FE07A801F04DFA002038
:10455000374908707EE636480078542865D13448DB
:1045600040785228FAD1324880784928F6D130482C
:10457000C0783038C4B2012C35DB042C33DC2C4835
:1045800000793038642141432948407930380A2283
:1045900050430918264880793038081885B2012D13
:1045A0000DD1601E012100F007FA234634A2182124
:1045B00007A8FBF71DFE07A801F016FA12E0002D70
:1045C0000DD1601E002100F0F7F923462CA218211E
:1045D00007A8FBF70DFE07A801F006FA02E02AA0E3
:1045E00001F002FA70E0002C6AD10127104800792E
:1045F0003038642141430E48407930380A22504314
:1046000009180B4880793038081886B2012E43D13A
:10461000002504E00121284600F0CEF96D1C042D90
:10462000F8DB1BA001F0E0F949E051E07C0000203C
:104630005C020020E703000008000020534C5625D0
:1046400064230000455252534C562300534C5630BD
:1046500023000000524C56256425732300000000FF
:10466000524C563000000000455252524C56230026
:10467000534D256423000000524D256423000000A3
:104680005452492564230000455252545249230094
:104690005452493023000000002E0CD1002504E0C4
:1046A0000021284600F088F96D1C042DF8DB7648BF
:1046B00001F09AF903E07448083801F095F903E035
:1046C0007148083801F090F9002070490870C1E580
:1046D0006E480078532872D16C48407850287CD1BD
:1046E0006A488078572878D16848C0783038C4B292
:1046F000012C32DB042C30DC644800793038642132
:1047000041436248407930380A22504309185F48D3
:1047100080793038081885B25D48854218DC601E03
:1047200041005C48455223465BA2182107A8FBF7CD
:104730005FFD07A801F058F9FFF702FD601E430076
:104740005448C25A601EC1B20520FCF701FB03E0C9
:104750004D484C3801F048F93BE0002C35D101259B
:10476000002021E042008218121D484B9A5C303A2A
:104770006423534342008218521D444EB25C303AC7
:104780000A2672439B1842008218921D3F4EB25C6B
:10479000303A9A1891B23E4A914201DD002505E077
:1047A00043003C4AD152401C0428DBDB00BF002DF3
:1047B00006D03BA001F018F9FFF7C2FC04E00CE0C2
:1047C00031484C3801F010F903E02F484C3801F023
:1047D0000BF900202D4908703CE52C480078522840
:1047E0004DD12A484078502849D128488078572808
:1047F00045D12648C0783038C5B2012D14DB042DD0
:1048000012DC681E42002348815A05A801F0C2FD4F
:1048100005A82B4624A21821009007A8FBF7E8FC66
:1048200007A801F0E1F826E0002D20D16C46042213
:1048300020A12046FBF7B0FD241D00260CE07200ED
:104840001448815A05A801F0A5FD032205A92046B8
:10485000FBF7A2FDE41C761C042EF0DB2320207065
:10486000641C00202070684601F0BEF803E0064892
:10487000283801F0B9F8002004490870EAE4002063
:104880000249087000BFE5E4904600085C02002081
:10489000E703000010000020535057256423000058
:1048A000535057302300000052505725642573237E
:1048B00000000000525057300000000010B50122E7
:1048C00051030248FDF7A7FC10BD00000004005092
:1048D00010B50022012149030148FDF79CFC10BDE1
:1048E0000004005010B5012291030248FDF793FC2B
:1048F00010BD00000004005000B585B014216846CA
:10490000FBF7A9FD01208003009000200190012009
:10491000029069460248FDF789FB05B000BD000022
:104920000004005010B50022012189030148FDF761
:1049300072FC10BD0004005000B585B0142168461B
:10494000FBF789FD012080030090112001900220D7
:10495000039069460248FDF769FB05B000BD000001
:1049600000040050704700000246032A02DC104B8E
:10497000994200D970470846002A06D0012A08D07B
:10498000022A0AD0032A10D10BE00A4B1B68586395
:104990000BE0084B1B68986307E0064B1B68D86365
:1049A00003E0044B1B68186400BF00BF00BFE1E7D1
:1049B000E7030000C401002030B50A46032800D9EF
:1049C00030BD830001219940002A14D00D4C246A87
:1049D0000C430C4D2C620B4C403464680125ED03F4
:1049E0002C43084D40356C60064C246801252C434F
:1049F000044D2C6004E0034C246A8C43014D2C626E
:104A000000BFDDE7002C014010B5FDF757FC03485F
:104A10000068401C0149086010BD000068000020CB
:104A200000B591B0342104A8FBF715FD00200090DB
:104A300001900290039001204002FDF7CFFC0A2074
:104A40000490FF200130079000200890402009903A
:104A500001200A9002200B9002210C9100210D915F
:104A600008210E9101040F910107109104A8FDF790
:104A700057FE002801D0FCF777FA072000900220AB
:104A8000019000200290039002216846FDF7D2FCBD
:104A9000002801D0FCF768FA11B000BD7047000093
:104AA00010B50248FEF782FA10BD00001002002087
:104AB00010B50268234B984202D0234B984205D18F
:104AC00070241346A3431A464B681A431D4B984261
:104AD0000BD01D4B984208D01C4B984205D01C4B64
:104AE000984202D01B4B984206D10324240213465D
:104AF000A3431A46CB681A4380241346A3434C6948
:104B000023431A468B68C3620B6883620D4B98423D
:104B100005D00F4B984202D00E4B984201D10B6941
:104B2000036303680424234303600123436100BF3C
:104B300000BF00BFBFF34F8F00BF00BF00BF0260C8
:104B400010BD0000002C0140000400400020004087
:104B5000004401400048014070B5CD06ED0E01242F
:104B6000AC402346046A9C430462046ACE06F60EF7
:104B70001546B5402C43046270BD000070B5036A51
:104B8000056A6D086D000562426884691E4D2C40FF
:104B9000A408A4000D682C4302261D46B5432B46ED
:104BA0008D682B43194DA84200D107E0184DA8424B
:104BB00000D103E0174DA8420AD100BF056A0426C0
:104BC000B543056208261D46B5432B46CD682B43E9
:104BD0000E4DA84205D00E4DA84202D00D4DA84260
:104BE0000CD1FF2601361546B5432A4676001546F8
:104BF000B5432A464D692A438D692A434260846140
:104C00004D684563036270BD8FFFFEFF002C0140BD
:104C1000004401400048014070B5026A056A102650
:104C2000B543056243688469224D2C400326360251
:104C30002546B5432C460D682D022C4320261546EB
:104C4000B5432A468D682D012A431B4DA84200D149
:104C500007E01A4DA84200D100BF194DA8420BD160
:104C60000AE0056A4026B543056280261546B5432D
:104C70002A46CD682D012A430F4DA84205D00F4D7D
:104C8000A84202D00E4DA8420ED10126B6021D4602
:104C9000B5432B4676001D46B5432B464D69AD0006
:104CA0002B438D69AD002B43436084614D68856360
:104CB000026270BDFF8FFFFE002C014000440140E6
:104CC0000048014070B5036A056AFF260136B54306
:104CD00005624268C469214D2C40A408A4000D68F7
:104CE0002C4376001D46B5432B468D682D022B4381
:104CF0001B4DA84200D107E01A4DA84200D100BFC9
:104D0000194DA8420CD10BE0056A0126B602B54345
:104D1000056276001D46B5432B46CD682D022B4318
:104D20000F4DA84205D00F4DA84202D00E4DA8420B
:104D30000ED1012636031546B5432A4676001546A0
:104D4000B5432A464D692D012A438D692D012A4319
:104D50004260C4614D68C563036270BD8FFFFEFF92
:104D6000002C0140004401400048014070B5036A36
:104D7000056A01263603B54305624468C269144DCD
:104D80002A40032636021546B5432A460D682D02F1
:104D90002A43012676031D46B5432B468D682D0315
:104DA0002B430C4DA84205D00B4DA84202D00B4D11
:104DB000A84207D10126B6032546B5432C464D69C6
:104DC000AD012C434460C2614D680564036270BD4F
:104DD000FF8FFFFE002C01400044014000480140CD
:104DE00070B5026A056A01263604B5430562436858
:104DF000446D114D2C400D682C4376001546B5438B
:104E00002A460D892D042A430C4DA84205D00C4D8D
:104E1000A84202D00B4DA84207D1012636041D46F8
:104E2000B5432B464D692D022B43436044654D68C5
:104E30008565026270BD00008FFFFEFF002C0140FF
:104E4000004401400048014070B5026A056A01262D
:104E50003605B54305624368446D114D2C400D681D
:104E60002D022C4376001546B5432A460D892D05A3
:104E70002A430C4DA84205D00B4DA84202D00B4D41
:104E8000A84207D10126B6041D46B5432B464D69FD
:104E9000AD022B43436044654D68C565026270BD39
:104EA000FF8FFFFE002C01400044014000480140FC
:104EB00070B504461948057C012D13D1204601F038
:104EC0003BFC0646314605200007FDF79BF900280C
:104ED00004D101212046FFF76FFD03E000212046A9
:104EE000FFF76AFD022D17D10D48005D002800D0A4
:104EF00070BD610009480830405A002800D1F7E72A
:104F000001212046FFF758FD06480068A100064A27
:104F1000505001200249085500BFE9E70800002071
:104F20002900002078000020A40000200F48007C09
:104F300001280BD1002006E000210D4A1154012167
:104F40000C4A1154401C0428F6DB0EE00748007C94
:104F500002280AD1002006E00121054A115400214F
:104F6000044A1154401C0428F6DB70470800002056
:104F7000290000202D00002070B52748057C002D59
:104F800014D126480078002844D1002408E00121EB
:104F90002046FFF711FD002021490855601CC4B2CE
:104FA000042CF4DB01201D49087070BD022D2CD1AA
:104FB000002424E0610018480830405A6421484326
:104FC00006461748005D002817D0002E06D10021A4
:104FD0002046FFF7F1FC002011490855A0001149B7
:104FE000085811490968081AB04206D30021204622
:104FF000FFF7E2FC00200A490855601CC4B2042CEB
:10500000D8DB00200549087004E0012D02D1002002
:105010000249087000BFC8E70800002028000020EF
:1050200029000020A40000207800002070B504466C
:105030000C48007C012813D1204601F07DFB054679
:10504000294605200007FDF7DDF8012804D10121DC
:105050002046FFF7B1FC03E000212046FFF7ACFC3F
:1050600070BD0000080000200822816A1140082954
:1050700007D10168496812039143826B11430268AA
:105080005160018DC907C90F002908D0016849681E
:10509000012252049143C26A114302685160022204
:1050A000816A1140022907D101684968D2039143FE
:1050B000026B1143026851600422816A1140042985
:1050C00007D10168496812049143426B1143026899
:1050D00051601022816A1140102907D10168896846
:1050E00012029143C26B1143026891602022816ACF
:1050F0001140202907D10168896812029143026C8E
:105100001143026891604022816A1140402915D103
:105110000168496892039143426C114302685160EF
:1051200001221205416C914208D1016849680322AD
:1051300052059143826C1143026851608022816A5A
:105140001140802907D10168496812039143C26C5C
:105150001143026851607047F8B504460021902061
:105160000151FDF75FF805462068006808210840F6
:10517000082824D138482B46002289040090204674
:1051800000F004FE00281AD000BF00F0ABFE064677
:10519000012000F0ADFE206800688021884321686E
:1051A0000860304600F0A4FE00BF20218820015195
:1051B00000BF00218420015500BF0320F8BD2068F6
:1051C000006804210840042836D123482B460022D9
:1051D00009050090204600F0D9FD00282CD000BF22
:1051E00000F080FE0646012000F082FE2068006884
:1051F000FF212131884321680860304600F078FEA5
:1052000000BF00BF00F06EFE0646012000F070FEF9
:10521000206880684008400021688860304600F0BF
:1052200067FE00BF20218C20015100BF0021842097
:10523000015500BF0320C1E72021882001518C20A7
:1052400001510020E066206700BF00218420015545
:1052500000BF0020B2E70000FFFFFF0170B5044669
:10526000A56A2846FEF7AEF970BD000070B5044689
:1052700000BF00F037FE0546012000F039FE20682F
:105280000068FF212131884321680860284600F02A
:105290002FFE00BF00BF00F025FE0546012000F0F4
:1052A00027FE2068806811490840216888602846E8
:1052B00000F01EFE00BFE06E012810D100BF00F01C
:1052C00011FE0546012000F013FE20680068102141
:1052D000884321680860284600F00AFE00BF2021AC
:1052E0008C2001510020E066606770BDFEFFFFEF7B
:1052F00070B5044600BF00F0F5FD0546012000F042
:10530000F7FD20680068402188432168086028462E
:1053100000F0EEFD00BF2021882001510020A06791
:105320002046FEF7ADFC70BDF8B504466020075B73
:105330008C20005922287ED12068406A86B2A56D53
:10534000304638402880A06D801CA0655E20005B40
:10535000401E81B25E200153005B002871D100BF66
:1053600000F0C0FD0090012000F0C2FD2068006840
:10537000FF212131884321680860009800F0B8FDC2
:1053800000BF00BF00F0AEFD0090012000F0B0FDB6
:10539000206880684008400021688860009800F01C
:1053A000A7FD00BF20218C200151002060672067ED
:1053B0002068406889040840002811D000BF00F030
:1053C00091FD0090012000F093FD2068006801210C
:1053D0008906884321680860009800F089FD00BFB5
:1053E000E06E012823D10020E06600BF00F07AFDC6
:1053F0000090012000F07CFD2068006810218843A7
:1054000021680860009800F073FD00BF2068C06943
:10541000102108400009002802D0102021680862ED
:105420005C20015B2046FEF7ADF80AE003E0204671
:10543000FEF7A2FB05E02068806908210843216887
:105440008861F8BDF0B587B004466020005B069027
:105450002068C56920680068039020688068029011
:105460008C20005922287DD16820005B0490C9E07F
:105470002068406A80B20590A76D0699059808409B
:105480003880A06D801CA0655E20005B401E81B24C
:105490005E2001532068C5696807400F002840D08E
:1054A000E807C00F00280ED0FF2101310398084003
:1054B000002808D0012021680862902000590121AD
:1054C0000843902108510220284000280DD002985E
:1054D000C007C00F002808D0022021680862902071
:1054E0000059042108439021085104202840002835
:1054F0000DD00298C007C00F002808D004202168F2
:105500000862902000590221084390210851902000
:105510000059002805D02046FEF754F800219020BD
:1055200001515E20005B00286CD100BF00F0DAFC66
:105530000190012000F0DCFC20680068FF210131AF
:10554000884321680860019800F0D2FC00BF00BFCA
:1055500000F0C8FC0190012000F0CAFC20688068BF
:10556000474900E084E0084021688860019800F025
:10557000BFFC00BF20218C20015100206067206704
:105580002068406889040840002811D000BF00F05E
:10559000A9FC0190012000F0ABFC2068006801210B
:1055A0008906884321680860019800F0A1FC00BFCB
:1055B000E06E012822D10020E06600BF00F092FCDE
:1055C0000190012000F094FC2068006810218843BD
:1055D00021680860019800F08BFC00BF2068C0695A
:1055E000102108400009002802D01020216808621C
:1055F0005C20015B2046FDF7C5FF02E02046FEF778
:10560000BBFA07E00498002804D020202840002896
:1056100000D02DE700BF5E20065B002E2ED0682054
:10562000005BB0422ADD00BF00F05CFC019001206D
:1056300000F05EFC2068806801210907884321682A
:105640008860019800F054FC00BF0E48606700BFFE
:1056500000F048FC0190012000F04AFC206800683E
:105660002021084321680860019800F041FC05E012
:1056700020688069082108432168886107B0F0BD6F
:10568000FEFFFFEF29530008F8B504466020065BD3
:105690008C20005922287ED12068406A85B2F0B261
:1056A0002840A16D0870A06D401CA0655E20005BC5
:1056B000401E81B25E200153005B002871D100BF03
:1056C00000F010FC0746012000F012FC2068006882
:1056D000FF212131884321680860384600F008FC2A
:1056E00000BF00BF00F0FEFB0746012000F000FCF9
:1056F000206880684008400021688860384600F0D3
:10570000F7FB00BF20218C2001510020606720673B
:105710002068406889040840002811D000BF00F0CC
:10572000E1FB0746012000F0E3FB2068006801214F
:105730008906884321680860384600F0D9FB00BF1D
:10574000E06E012823D10020E06600BF00F0CAFB14
:105750000746012000F0CCFB206800681021884338
:1057600021680860384600F0C3FB00BF2068C069AC
:10577000102108400009002802D01020216808628A
:105780005C20015B2046FDF7FDFE0AE003E02046B9
:10579000FEF7F2F905E020688069082108432168D6
:1057A0008861F8BDF0B585B004466020005B0490C8
:1057B0002068C569206800680290206880680190B0
:1057C0008C20005922287DD16820005B0390C8E01E
:1057D0002068406A87B20498C0B23840A16D087052
:1057E000A06D401CA0655E20005B401E81B25E2063
:1057F00001532068C5696807400F002840D0E807BA
:10580000C00F00280ED0FF21013102980840002867
:1058100008D0012021680862902000590121084326
:10582000902108510220284000280DD00198C0077F
:10583000C00F002808D0022021680862902000597B
:1058400004210843902108510420284000280DD04D
:105850000198C007C00F002808D004202168086202
:1058600090200059022108439021085190200059AE
:10587000002805D02046FDF7A5FE0021902001510B
:105880005E20005B00286CD100BF00F02BFB009075
:10589000012000F02DFB20680068FF2101318843C2
:1058A00021680860009800F023FB00BF00BF00F0F3
:1058B00019FB0090012000F01BFB2068806848491C
:1058C000084000E083E021688860009800F010FB49
:1058D00000BF20218C2001510020606720672068D4
:1058E000406889040840002811D000BF00F0FAFA8F
:1058F0000090012000F0FCFA206800680121890670
:10590000884321680860009800F0F2FA00BFE06E5A
:10591000012822D10020E06600BF00F0E3FA0090E9
:10592000012000F0E5FA2068006810218843216812
:105930000860009800F0DCFA00BF2068C069102100
:1059400008400009002802D01020216808625C206D
:10595000015B2046FDF716FE02E02046FEF70CF93B
:1059600007E00398002804D020202840002800D019
:105970002EE700BF5E20065B002E2ED06820005B65
:10598000B0422ADD00BF00F0ADFA0090012000F027
:10599000AFFA206880680121090788432168886080
:1059A000009800F0A5FA00BF0E48606700BF00F045
:1059B00099FA0090012000F09BFA206800682021ED
:1059C000084321680860009800F092FA05E020681A
:1059D0008069082108432168886105B0F0BD000096
:1059E000FEFFFFEF8956000870B504462046FAF71F
:1059F000B1FC85B264232A4621460248FEF7BDF871
:105A000070BD00009C020020F0B585B00446002067
:105A100001902169A068084361690843E16908436E
:105A20000390206800686949084003990843216889
:105A3000086020684068032109038843E16808433F
:105A400021684860A0690390206A03990843039085
:105A5000206880685E49084003990843216888608F
:105A60002068C06A00090001616A08432168C862B1
:105A700000BF58492068884217D1574840698007BD
:105A8000800F002806D0012808D0022804D003285F
:105A900008D105E0002707E0022705E0042703E01E
:105AA000082701E0102700BF06E04C492068884223
:105AB00001D1002700E0102700BF0121C903E069E0
:105AC000884241D1002F06D0022F08D0042F08D0E1
:105AD000082F0DD109E0FCF79DFD05460CE0404D77
